{
	"contracts/Owner/datatype.sol": {
		"DataTypes": {
			"abi": [
				{
					"inputs": [
						{
							"internalType": "string",
							"name": "_password",
							"type": "string"
						}
					],
					"stateMutability": "nonpayable",
					"type": "constructor"
				},
				{
					"inputs": [
						{
							"internalType": "address",
							"name": "_newuser",
							"type": "address"
						}
					],
					"name": "addUser",
					"outputs": [],
					"stateMutability": "nonpayable",
					"type": "function"
				},
				{
					"inputs": [],
					"name": "isLogin",
					"outputs": [
						{
							"internalType": "bool",
							"name": "",
							"type": "bool"
						}
					],
					"stateMutability": "view",
					"type": "function"
				},
				{
					"inputs": [],
					"name": "logOut",
					"outputs": [
						{
							"internalType": "bool",
							"name": "",
							"type": "bool"
						}
					],
					"stateMutability": "nonpayable",
					"type": "function"
				},
				{
					"inputs": [
						{
							"internalType": "string",
							"name": "_password",
							"type": "string"
						}
					],
					"name": "login",
					"outputs": [
						{
							"internalType": "bool",
							"name": "",
							"type": "bool"
						}
					],
					"stateMutability": "nonpayable",
					"type": "function"
				},
				{
					"inputs": [],
					"name": "loginCount",
					"outputs": [
						{
							"internalType": "uint256",
							"name": "",
							"type": "uint256"
						}
					],
					"stateMutability": "view",
					"type": "function"
				},
				{
					"inputs": [
						{
							"internalType": "address",
							"name": "",
							"type": "address"
						}
					],
					"name": "users",
					"outputs": [
						{
							"internalType": "bool",
							"name": "",
							"type": "bool"
						}
					],
					"stateMutability": "view",
					"type": "function"
				}
			],
			"devdoc": {
				"kind": "dev",
				"methods": {},
				"version": 1
			},
			"evm": {
				"assembly": "    /* \"contracts/Owner/datatype.sol\":87:1220  contract DataTypes is Owner{\r... */\n  mstore(0x40, 0x80)\n    /* \"contracts/Owner/datatype.sol\":248:355  constructor (string memory _password){\r... */\n  callvalue\n  dup1\n  iszero\n  tag_1\n  jumpi\n  0x00\n  dup1\n  revert\ntag_1:\n  pop\n  mload(0x40)\n  sub(codesize, bytecodeSize)\n  dup1\n  bytecodeSize\n  dup4\n  codecopy\n  dup2\n  dup2\n  add\n  0x40\n  mstore\n  dup2\n  add\n  swap1\n  tag_2\n  swap2\n  swap1\n  tag_3\n  jump\t// in\ntag_2:\n    /* \"contracts/Owner/owner.sol\":139:149  msg.sender */\n  caller\n    /* \"contracts/Owner/owner.sol\":131:136  owner */\n  0x00\n  dup1\n    /* \"contracts/Owner/owner.sol\":131:149  owner = msg.sender */\n  0x0100\n  exp\n  dup2\n  sload\n  dup2\n  0xffffffffffffffffffffffffffffffffffffffff\n  mul\n  not\n  and\n  swap1\n  dup4\n  0xffffffffffffffffffffffffffffffffffffffff\n  and\n  mul\n  or\n  swap1\n  sstore\n  pop\n    /* \"contracts/Owner/datatype.sol\":335:344  _password */\n  dup1\n    /* \"contracts/Owner/datatype.sol\":317:346  abi.encodePacked((_password)) */\n  add(0x20, mload(0x40))\n  tag_8\n  swap2\n  swap1\n  tag_9\n  jump\t// in\ntag_8:\n  mload(0x40)\n  0x20\n  dup2\n  dup4\n  sub\n  sub\n  dup2\n  mstore\n  swap1\n  0x40\n  mstore\n    /* \"contracts/Owner/datatype.sol\":307:347  keccak256(abi.encodePacked((_password))) */\n  dup1\n  mload\n  swap1\n  0x20\n  add\n  keccak256\n    /* \"contracts/Owner/datatype.sol\":296:304  password */\n  0x01\n    /* \"contracts/Owner/datatype.sol\":296:347  password = keccak256(abi.encodePacked((_password))) */\n  dup2\n  swap1\n  sstore\n  pop\n    /* \"contracts/Owner/datatype.sol\":248:355  constructor (string memory _password){\r... */\n  pop\n    /* \"contracts/Owner/datatype.sol\":87:1220  contract DataTypes is Owner{\r... */\n  jump(tag_10)\n    /* \"#utility.yul\":7:428   */\ntag_12:\n    /* \"#utility.yul\":96:101   */\n  0x00\n    /* \"#utility.yul\":121:187   */\n  tag_14\n    /* \"#utility.yul\":137:186   */\n  tag_15\n    /* \"#utility.yul\":179:185   */\n  dup5\n    /* \"#utility.yul\":137:186   */\n  tag_16\n  jump\t// in\ntag_15:\n    /* \"#utility.yul\":121:187   */\n  tag_17\n  jump\t// in\ntag_14:\n    /* \"#utility.yul\":112:187   */\n  swap1\n  pop\n    /* \"#utility.yul\":210:216   */\n  dup3\n    /* \"#utility.yul\":203:208   */\n  dup2\n    /* \"#utility.yul\":196:217   */\n  mstore\n    /* \"#utility.yul\":248:252   */\n  0x20\n    /* \"#utility.yul\":241:246   */\n  dup2\n    /* \"#utility.yul\":237:253   */\n  add\n    /* \"#utility.yul\":286:289   */\n  dup5\n    /* \"#utility.yul\":277:283   */\n  dup5\n    /* \"#utility.yul\":272:275   */\n  dup5\n    /* \"#utility.yul\":268:284   */\n  add\n    /* \"#utility.yul\":265:290   */\n  gt\n    /* \"#utility.yul\":262:374   */\n  iszero\n  tag_18\n  jumpi\n    /* \"#utility.yul\":293:372   */\n  tag_19\n  tag_20\n  jump\t// in\ntag_19:\n    /* \"#utility.yul\":262:374   */\ntag_18:\n    /* \"#utility.yul\":383:422   */\n  tag_21\n    /* \"#utility.yul\":415:421   */\n  dup5\n    /* \"#utility.yul\":410:413   */\n  dup3\n    /* \"#utility.yul\":405:408   */\n  dup6\n    /* \"#utility.yul\":383:422   */\n  tag_22\n  jump\t// in\ntag_21:\n    /* \"#utility.yul\":102:428   */\n  pop\n    /* \"#utility.yul\":7:428   */\n  swap4\n  swap3\n  pop\n  pop\n  pop\n  jump\t// out\n    /* \"#utility.yul\":448:803   */\ntag_23:\n    /* \"#utility.yul\":515:520   */\n  0x00\n    /* \"#utility.yul\":564:567   */\n  dup3\n    /* \"#utility.yul\":557:561   */\n  0x1f\n    /* \"#utility.yul\":549:555   */\n  dup4\n    /* \"#utility.yul\":545:562   */\n  add\n    /* \"#utility.yul\":541:568   */\n  slt\n    /* \"#utility.yul\":531:653   */\n  tag_25\n  jumpi\n    /* \"#utility.yul\":572:651   */\n  tag_26\n  tag_27\n  jump\t// in\ntag_26:\n    /* \"#utility.yul\":531:653   */\ntag_25:\n    /* \"#utility.yul\":682:688   */\n  dup2\n    /* \"#utility.yul\":676:689   */\n  mload\n    /* \"#utility.yul\":707:797   */\n  tag_28\n    /* \"#utility.yul\":793:796   */\n  dup5\n    /* \"#utility.yul\":785:791   */\n  dup3\n    /* \"#utility.yul\":778:782   */\n  0x20\n    /* \"#utility.yul\":770:776   */\n  dup7\n    /* \"#utility.yul\":766:783   */\n  add\n    /* \"#utility.yul\":707:797   */\n  tag_12\n  jump\t// in\ntag_28:\n    /* \"#utility.yul\":698:797   */\n  swap2\n  pop\n    /* \"#utility.yul\":521:803   */\n  pop\n    /* \"#utility.yul\":448:803   */\n  swap3\n  swap2\n  pop\n  pop\n  jump\t// out\n    /* \"#utility.yul\":809:1333   */\ntag_3:\n    /* \"#utility.yul\":889:895   */\n  0x00\n    /* \"#utility.yul\":938:940   */\n  0x20\n    /* \"#utility.yul\":926:935   */\n  dup3\n    /* \"#utility.yul\":917:924   */\n  dup5\n    /* \"#utility.yul\":913:936   */\n  sub\n    /* \"#utility.yul\":909:941   */\n  slt\n    /* \"#utility.yul\":906:1025   */\n  iszero\n  tag_30\n  jumpi\n    /* \"#utility.yul\":944:1023   */\n  tag_31\n  tag_32\n  jump\t// in\ntag_31:\n    /* \"#utility.yul\":906:1025   */\ntag_30:\n    /* \"#utility.yul\":1085:1086   */\n  0x00\n    /* \"#utility.yul\":1074:1083   */\n  dup3\n    /* \"#utility.yul\":1070:1087   */\n  add\n    /* \"#utility.yul\":1064:1088   */\n  mload\n    /* \"#utility.yul\":1115:1133   */\n  0xffffffffffffffff\n    /* \"#utility.yul\":1107:1113   */\n  dup2\n    /* \"#utility.yul\":1104:1134   */\n  gt\n    /* \"#utility.yul\":1101:1218   */\n  iszero\n  tag_33\n  jumpi\n    /* \"#utility.yul\":1137:1216   */\n  tag_34\n  tag_35\n  jump\t// in\ntag_34:\n    /* \"#utility.yul\":1101:1218   */\ntag_33:\n    /* \"#utility.yul\":1242:1316   */\n  tag_36\n    /* \"#utility.yul\":1308:1315   */\n  dup5\n    /* \"#utility.yul\":1299:1305   */\n  dup3\n    /* \"#utility.yul\":1288:1297   */\n  dup6\n    /* \"#utility.yul\":1284:1306   */\n  add\n    /* \"#utility.yul\":1242:1316   */\n  tag_23\n  jump\t// in\ntag_36:\n    /* \"#utility.yul\":1232:1316   */\n  swap2\n  pop\n    /* \"#utility.yul\":1035:1326   */\n  pop\n    /* \"#utility.yul\":809:1333   */\n  swap3\n  swap2\n  pop\n  pop\n  jump\t// out\n    /* \"#utility.yul\":1339:1716   */\ntag_37:\n    /* \"#utility.yul\":1445:1448   */\n  0x00\n    /* \"#utility.yul\":1473:1512   */\n  tag_39\n    /* \"#utility.yul\":1506:1511   */\n  dup3\n    /* \"#utility.yul\":1473:1512   */\n  tag_40\n  jump\t// in\ntag_39:\n    /* \"#utility.yul\":1528:1617   */\n  tag_41\n    /* \"#utility.yul\":1610:1616   */\n  dup2\n    /* \"#utility.yul\":1605:1608   */\n  dup6\n    /* \"#utility.yul\":1528:1617   */\n  tag_42\n  jump\t// in\ntag_41:\n    /* \"#utility.yul\":1521:1617   */\n  swap4\n  pop\n    /* \"#utility.yul\":1626:1678   */\n  tag_43\n    /* \"#utility.yul\":1671:1677   */\n  dup2\n    /* \"#utility.yul\":1666:1669   */\n  dup6\n    /* \"#utility.yul\":1659:1663   */\n  0x20\n    /* \"#utility.yul\":1652:1657   */\n  dup7\n    /* \"#utility.yul\":1648:1664   */\n  add\n    /* \"#utility.yul\":1626:1678   */\n  tag_22\n  jump\t// in\ntag_43:\n    /* \"#utility.yul\":1703:1709   */\n  dup1\n    /* \"#utility.yul\":1698:1701   */\n  dup5\n    /* \"#utility.yul\":1694:1710   */\n  add\n    /* \"#utility.yul\":1687:1710   */\n  swap2\n  pop\n    /* \"#utility.yul\":1449:1716   */\n  pop\n    /* \"#utility.yul\":1339:1716   */\n  swap3\n  swap2\n  pop\n  pop\n  jump\t// out\n    /* \"#utility.yul\":1722:1997   */\ntag_9:\n    /* \"#utility.yul\":1854:1857   */\n  0x00\n    /* \"#utility.yul\":1876:1971   */\n  tag_45\n    /* \"#utility.yul\":1967:1970   */\n  dup3\n    /* \"#utility.yul\":1958:1964   */\n  dup5\n    /* \"#utility.yul\":1876:1971   */\n  tag_37\n  jump\t// in\ntag_45:\n    /* \"#utility.yul\":1869:1971   */\n  swap2\n  pop\n    /* \"#utility.yul\":1988:1991   */\n  dup2\n    /* \"#utility.yul\":1981:1991   */\n  swap1\n  pop\n    /* \"#utility.yul\":1722:1997   */\n  swap3\n  swap2\n  pop\n  pop\n  jump\t// out\n    /* \"#utility.yul\":2003:2132   */\ntag_17:\n    /* \"#utility.yul\":2037:2043   */\n  0x00\n    /* \"#utility.yul\":2064:2084   */\n  tag_47\n  tag_48\n  jump\t// in\ntag_47:\n    /* \"#utility.yul\":2054:2084   */\n  swap1\n  pop\n    /* \"#utility.yul\":2093:2126   */\n  tag_49\n    /* \"#utility.yul\":2121:2125   */\n  dup3\n    /* \"#utility.yul\":2113:2119   */\n  dup3\n    /* \"#utility.yul\":2093:2126   */\n  tag_50\n  jump\t// in\ntag_49:\n    /* \"#utility.yul\":2003:2132   */\n  swap2\n  swap1\n  pop\n  jump\t// out\n    /* \"#utility.yul\":2138:2213   */\ntag_48:\n    /* \"#utility.yul\":2171:2177   */\n  0x00\n    /* \"#utility.yul\":2204:2206   */\n  0x40\n    /* \"#utility.yul\":2198:2207   */\n  mload\n    /* \"#utility.yul\":2188:2207   */\n  swap1\n  pop\n    /* \"#utility.yul\":2138:2213   */\n  swap1\n  jump\t// out\n    /* \"#utility.yul\":2219:2527   */\ntag_16:\n    /* \"#utility.yul\":2281:2285   */\n  0x00\n    /* \"#utility.yul\":2371:2389   */\n  0xffffffffffffffff\n    /* \"#utility.yul\":2363:2369   */\n  dup3\n    /* \"#utility.yul\":2360:2390   */\n  gt\n    /* \"#utility.yul\":2357:2413   */\n  iszero\n  tag_53\n  jumpi\n    /* \"#utility.yul\":2393:2411   */\n  tag_54\n  tag_55\n  jump\t// in\ntag_54:\n    /* \"#utility.yul\":2357:2413   */\ntag_53:\n    /* \"#utility.yul\":2431:2460   */\n  tag_56\n    /* \"#utility.yul\":2453:2459   */\n  dup3\n    /* \"#utility.yul\":2431:2460   */\n  tag_57\n  jump\t// in\ntag_56:\n    /* \"#utility.yul\":2423:2460   */\n  swap1\n  pop\n    /* \"#utility.yul\":2515:2519   */\n  0x20\n    /* \"#utility.yul\":2509:2513   */\n  dup2\n    /* \"#utility.yul\":2505:2520   */\n  add\n    /* \"#utility.yul\":2497:2520   */\n  swap1\n  pop\n    /* \"#utility.yul\":2219:2527   */\n  swap2\n  swap1\n  pop\n  jump\t// out\n    /* \"#utility.yul\":2533:2632   */\ntag_40:\n    /* \"#utility.yul\":2585:2591   */\n  0x00\n    /* \"#utility.yul\":2619:2624   */\n  dup2\n    /* \"#utility.yul\":2613:2625   */\n  mload\n    /* \"#utility.yul\":2603:2625   */\n  swap1\n  pop\n    /* \"#utility.yul\":2533:2632   */\n  swap2\n  swap1\n  pop\n  jump\t// out\n    /* \"#utility.yul\":2638:2786   */\ntag_42:\n    /* \"#utility.yul\":2740:2751   */\n  0x00\n    /* \"#utility.yul\":2777:2780   */\n  dup2\n    /* \"#utility.yul\":2762:2780   */\n  swap1\n  pop\n    /* \"#utility.yul\":2638:2786   */\n  swap3\n  swap2\n  pop\n  pop\n  jump\t// out\n    /* \"#utility.yul\":2792:3099   */\ntag_22:\n    /* \"#utility.yul\":2860:2861   */\n  0x00\n    /* \"#utility.yul\":2870:2983   */\ntag_61:\n    /* \"#utility.yul\":2884:2890   */\n  dup4\n    /* \"#utility.yul\":2881:2882   */\n  dup2\n    /* \"#utility.yul\":2878:2891   */\n  lt\n    /* \"#utility.yul\":2870:2983   */\n  iszero\n  tag_63\n  jumpi\n    /* \"#utility.yul\":2969:2970   */\n  dup1\n    /* \"#utility.yul\":2964:2967   */\n  dup3\n    /* \"#utility.yul\":2960:2971   */\n  add\n    /* \"#utility.yul\":2954:2972   */\n  mload\n    /* \"#utility.yul\":2950:2951   */\n  dup2\n    /* \"#utility.yul\":2945:2948   */\n  dup5\n    /* \"#utility.yul\":2941:2952   */\n  add\n    /* \"#utility.yul\":2934:2973   */\n  mstore\n    /* \"#utility.yul\":2906:2908   */\n  0x20\n    /* \"#utility.yul\":2903:2904   */\n  dup2\n    /* \"#utility.yul\":2899:2909   */\n  add\n    /* \"#utility.yul\":2894:2909   */\n  swap1\n  pop\n    /* \"#utility.yul\":2870:2983   */\n  jump(tag_61)\ntag_63:\n    /* \"#utility.yul\":3001:3007   */\n  dup4\n    /* \"#utility.yul\":2998:2999   */\n  dup2\n    /* \"#utility.yul\":2995:3008   */\n  gt\n    /* \"#utility.yul\":2992:3093   */\n  iszero\n  tag_64\n  jumpi\n    /* \"#utility.yul\":3081:3082   */\n  0x00\n    /* \"#utility.yul\":3072:3078   */\n  dup5\n    /* \"#utility.yul\":3067:3070   */\n  dup5\n    /* \"#utility.yul\":3063:3079   */\n  add\n    /* \"#utility.yul\":3056:3083   */\n  mstore\n    /* \"#utility.yul\":2992:3093   */\ntag_64:\n    /* \"#utility.yul\":2841:3099   */\n  pop\n    /* \"#utility.yul\":2792:3099   */\n  pop\n  pop\n  pop\n  jump\t// out\n    /* \"#utility.yul\":3105:3386   */\ntag_50:\n    /* \"#utility.yul\":3188:3215   */\n  tag_66\n    /* \"#utility.yul\":3210:3214   */\n  dup3\n    /* \"#utility.yul\":3188:3215   */\n  tag_57\n  jump\t// in\ntag_66:\n    /* \"#utility.yul\":3180:3186   */\n  dup2\n    /* \"#utility.yul\":3176:3216   */\n  add\n    /* \"#utility.yul\":3318:3324   */\n  dup2\n    /* \"#utility.yul\":3306:3316   */\n  dup2\n    /* \"#utility.yul\":3303:3325   */\n  lt\n    /* \"#utility.yul\":3282:3300   */\n  0xffffffffffffffff\n    /* \"#utility.yul\":3270:3280   */\n  dup3\n    /* \"#utility.yul\":3267:3301   */\n  gt\n    /* \"#utility.yul\":3264:3326   */\n  or\n    /* \"#utility.yul\":3261:3349   */\n  iszero\n  tag_67\n  jumpi\n    /* \"#utility.yul\":3329:3347   */\n  tag_68\n  tag_55\n  jump\t// in\ntag_68:\n    /* \"#utility.yul\":3261:3349   */\ntag_67:\n    /* \"#utility.yul\":3369:3379   */\n  dup1\n    /* \"#utility.yul\":3365:3367   */\n  0x40\n    /* \"#utility.yul\":3358:3380   */\n  mstore\n    /* \"#utility.yul\":3148:3386   */\n  pop\n    /* \"#utility.yul\":3105:3386   */\n  pop\n  pop\n  jump\t// out\n    /* \"#utility.yul\":3392:3572   */\ntag_55:\n    /* \"#utility.yul\":3440:3517   */\n  0x4e487b7100000000000000000000000000000000000000000000000000000000\n    /* \"#utility.yul\":3437:3438   */\n  0x00\n    /* \"#utility.yul\":3430:3518   */\n  mstore\n    /* \"#utility.yul\":3537:3541   */\n  0x41\n    /* \"#utility.yul\":3534:3535   */\n  0x04\n    /* \"#utility.yul\":3527:3542   */\n  mstore\n    /* \"#utility.yul\":3561:3565   */\n  0x24\n    /* \"#utility.yul\":3558:3559   */\n  0x00\n    /* \"#utility.yul\":3551:3566   */\n  revert\n    /* \"#utility.yul\":3578:3695   */\ntag_27:\n    /* \"#utility.yul\":3687:3688   */\n  0x00\n    /* \"#utility.yul\":3684:3685   */\n  dup1\n    /* \"#utility.yul\":3677:3689   */\n  revert\n    /* \"#utility.yul\":3701:3818   */\ntag_20:\n    /* \"#utility.yul\":3810:3811   */\n  0x00\n    /* \"#utility.yul\":3807:3808   */\n  dup1\n    /* \"#utility.yul\":3800:3812   */\n  revert\n    /* \"#utility.yul\":3824:3941   */\ntag_35:\n    /* \"#utility.yul\":3933:3934   */\n  0x00\n    /* \"#utility.yul\":3930:3931   */\n  dup1\n    /* \"#utility.yul\":3923:3935   */\n  revert\n    /* \"#utility.yul\":3947:4064   */\ntag_32:\n    /* \"#utility.yul\":4056:4057   */\n  0x00\n    /* \"#utility.yul\":4053:4054   */\n  dup1\n    /* \"#utility.yul\":4046:4058   */\n  revert\n    /* \"#utility.yul\":4070:4172   */\ntag_57:\n    /* \"#utility.yul\":4111:4117   */\n  0x00\n    /* \"#utility.yul\":4162:4164   */\n  0x1f\n    /* \"#utility.yul\":4158:4165   */\n  not\n    /* \"#utility.yul\":4153:4155   */\n  0x1f\n    /* \"#utility.yul\":4146:4151   */\n  dup4\n    /* \"#utility.yul\":4142:4156   */\n  add\n    /* \"#utility.yul\":4138:4166   */\n  and\n    /* \"#utility.yul\":4128:4166   */\n  swap1\n  pop\n    /* \"#utility.yul\":4070:4172   */\n  swap2\n  swap1\n  pop\n  jump\t// out\n    /* \"contracts/Owner/datatype.sol\":87:1220  contract DataTypes is Owner{\r... */\ntag_10:\n  dataSize(sub_0)\n  dup1\n  dataOffset(sub_0)\n  0x00\n  codecopy\n  0x00\n  return\nstop\n\nsub_0: assembly {\n        /* \"contracts/Owner/datatype.sol\":87:1220  contract DataTypes is Owner{\r... */\n      mstore(0x40, 0x80)\n      callvalue\n      dup1\n      iszero\n      tag_1\n      jumpi\n      0x00\n      dup1\n      revert\n    tag_1:\n      pop\n      jumpi(tag_2, lt(calldatasize, 0x04))\n      shr(0xe0, calldataload(0x00))\n      dup1\n      0x3a7d280c\n      eq\n      tag_3\n      jumpi\n      dup1\n      0x421b2d8b\n      eq\n      tag_4\n      jumpi\n      dup1\n      0x4be422ae\n      eq\n      tag_5\n      jumpi\n      dup1\n      0x92856185\n      eq\n      tag_6\n      jumpi\n      dup1\n      0xa87430ba\n      eq\n      tag_7\n      jumpi\n      dup1\n      0xd4d67be7\n      eq\n      tag_8\n      jumpi\n    tag_2:\n      0x00\n      dup1\n      revert\n        /* \"contracts/Owner/datatype.sol\":363:719  function login(string memory _password) onlyOwner public returns(bool){\r... */\n    tag_3:\n      tag_9\n      0x04\n      dup1\n      calldatasize\n      sub\n      dup2\n      add\n      swap1\n      tag_10\n      swap2\n      swap1\n      tag_11\n      jump\t// in\n    tag_10:\n      tag_12\n      jump\t// in\n    tag_9:\n      mload(0x40)\n      tag_13\n      swap2\n      swap1\n      tag_14\n      jump\t// in\n    tag_13:\n      mload(0x40)\n      dup1\n      swap2\n      sub\n      swap1\n      return\n        /* \"contracts/Owner/datatype.sol\":871:994  function addUser(address _newuser) onlyOwner loginCheck userCheck(_newuser) public{\r... */\n    tag_4:\n      tag_15\n      0x04\n      dup1\n      calldatasize\n      sub\n      dup2\n      add\n      swap1\n      tag_16\n      swap2\n      swap1\n      tag_17\n      jump\t// in\n    tag_16:\n      tag_18\n      jump\t// in\n    tag_15:\n      stop\n        /* \"contracts/Owner/datatype.sol\":725:865  function logOut() public returns(bool){\r... */\n    tag_5:\n      tag_19\n      tag_20\n      jump\t// in\n    tag_19:\n      mload(0x40)\n      tag_21\n      swap2\n      swap1\n      tag_14\n      jump\t// in\n    tag_21:\n      mload(0x40)\n      dup1\n      swap2\n      sub\n      swap1\n      return\n        /* \"contracts/Owner/datatype.sol\":173:192  bool public isLogin */\n    tag_6:\n      tag_22\n      tag_23\n      jump\t// in\n    tag_22:\n      mload(0x40)\n      tag_24\n      swap2\n      swap1\n      tag_14\n      jump\t// in\n    tag_24:\n      mload(0x40)\n      dup1\n      swap2\n      sub\n      swap1\n      return\n        /* \"contracts/Owner/datatype.sol\":201:239  mapping (address => bool) public users */\n    tag_7:\n      tag_25\n      0x04\n      dup1\n      calldatasize\n      sub\n      dup2\n      add\n      swap1\n      tag_26\n      swap2\n      swap1\n      tag_17\n      jump\t// in\n    tag_26:\n      tag_27\n      jump\t// in\n    tag_25:\n      mload(0x40)\n      tag_28\n      swap2\n      swap1\n      tag_14\n      jump\t// in\n    tag_28:\n      mload(0x40)\n      dup1\n      swap2\n      sub\n      swap1\n      return\n        /* \"contracts/Owner/datatype.sol\":144:166  uint public loginCount */\n    tag_8:\n      tag_29\n      tag_30\n      jump\t// in\n    tag_29:\n      mload(0x40)\n      tag_31\n      swap2\n      swap1\n      tag_32\n      jump\t// in\n    tag_31:\n      mload(0x40)\n      dup1\n      swap2\n      sub\n      swap1\n      return\n        /* \"contracts/Owner/datatype.sol\":363:719  function login(string memory _password) onlyOwner public returns(bool){\r... */\n    tag_12:\n        /* \"contracts/Owner/datatype.sol\":428:432  bool */\n      0x00\n        /* \"contracts/Owner/owner.sol\":217:222  owner */\n      dup1\n      0x00\n      swap1\n      sload\n      swap1\n      0x0100\n      exp\n      swap1\n      div\n      0xffffffffffffffffffffffffffffffffffffffff\n      and\n        /* \"contracts/Owner/owner.sol\":203:222  msg.sender == owner */\n      0xffffffffffffffffffffffffffffffffffffffff\n      and\n        /* \"contracts/Owner/owner.sol\":203:213  msg.sender */\n      caller\n        /* \"contracts/Owner/owner.sol\":203:222  msg.sender == owner */\n      0xffffffffffffffffffffffffffffffffffffffff\n      and\n      eq\n        /* \"contracts/Owner/owner.sol\":195:235  require(msg.sender == owner,\"not owner\") */\n      tag_34\n      jumpi\n      mload(0x40)\n      0x08c379a000000000000000000000000000000000000000000000000000000000\n      dup2\n      mstore\n      0x04\n      add\n      tag_35\n      swap1\n      tag_36\n      jump\t// in\n    tag_35:\n      mload(0x40)\n      dup1\n      swap2\n      sub\n      swap1\n      revert\n    tag_34:\n        /* \"contracts/Owner/datatype.sol\":453:460  isLogin */\n      0x03\n      0x00\n      swap1\n      sload\n      swap1\n      0x0100\n      exp\n      swap1\n      div\n      0xff\n      and\n        /* \"contracts/Owner/datatype.sol\":452:460  !isLogin */\n      iszero\n        /* \"contracts/Owner/datatype.sol\":444:482  require(!isLogin,\"already logined in\") */\n      tag_38\n      jumpi\n      mload(0x40)\n      0x08c379a000000000000000000000000000000000000000000000000000000000\n      dup2\n      mstore\n      0x04\n      add\n      tag_39\n      swap1\n      tag_40\n      jump\t// in\n    tag_39:\n      mload(0x40)\n      dup1\n      swap2\n      sub\n      swap1\n      revert\n    tag_38:\n        /* \"contracts/Owner/datatype.sol\":512:514  10 */\n      0x0a\n        /* \"contracts/Owner/datatype.sol\":501:511  loginCount */\n      sload(0x02)\n        /* \"contracts/Owner/datatype.sol\":501:514  loginCount<10 */\n      lt\n        /* \"contracts/Owner/datatype.sol\":493:545  require(loginCount<10,\"login count is less than 10\") */\n      tag_41\n      jumpi\n      mload(0x40)\n      0x08c379a000000000000000000000000000000000000000000000000000000000\n      dup2\n      mstore\n      0x04\n      add\n      tag_42\n      swap1\n      tag_43\n      jump\t// in\n    tag_42:\n      mload(0x40)\n      dup1\n      swap2\n      sub\n      swap1\n      revert\n    tag_41:\n        /* \"contracts/Owner/datatype.sol\":604:613  _password */\n      dup2\n        /* \"contracts/Owner/datatype.sol\":586:615  abi.encodePacked((_password)) */\n      add(0x20, mload(0x40))\n      tag_44\n      swap2\n      swap1\n      tag_45\n      jump\t// in\n    tag_44:\n      mload(0x40)\n      0x20\n      dup2\n      dup4\n      sub\n      sub\n      dup2\n      mstore\n      swap1\n      0x40\n      mstore\n        /* \"contracts/Owner/datatype.sol\":576:616  keccak256(abi.encodePacked((_password))) */\n      dup1\n      mload\n      swap1\n      0x20\n      add\n      keccak256\n        /* \"contracts/Owner/datatype.sol\":564:572  password */\n      sload(0x01)\n        /* \"contracts/Owner/datatype.sol\":564:616  password == keccak256(abi.encodePacked((_password))) */\n      eq\n        /* \"contracts/Owner/datatype.sol\":556:641  require(password == keccak256(abi.encodePacked((_password))),\"password doesnt match\") */\n      tag_46\n      jumpi\n      mload(0x40)\n      0x08c379a000000000000000000000000000000000000000000000000000000000\n      dup2\n      mstore\n      0x04\n      add\n      tag_47\n      swap1\n      tag_48\n      jump\t// in\n    tag_47:\n      mload(0x40)\n      dup1\n      swap2\n      sub\n      swap1\n      revert\n    tag_46:\n        /* \"contracts/Owner/datatype.sol\":654:664  loginCount */\n      0x02\n      0x00\n        /* \"contracts/Owner/datatype.sol\":654:666  loginCount++ */\n      dup2\n      sload\n      dup1\n      swap3\n      swap2\n      swap1\n      tag_49\n      swap1\n      tag_50\n      jump\t// in\n    tag_49:\n      swap2\n      swap1\n      pop\n      sstore\n      pop\n        /* \"contracts/Owner/datatype.sol\":685:689  true */\n      0x01\n        /* \"contracts/Owner/datatype.sol\":677:684  isLogin */\n      0x03\n      0x00\n        /* \"contracts/Owner/datatype.sol\":677:689  isLogin=true */\n      0x0100\n      exp\n      dup2\n      sload\n      dup2\n      0xff\n      mul\n      not\n      and\n      swap1\n      dup4\n      iszero\n      iszero\n      mul\n      or\n      swap1\n      sstore\n      pop\n        /* \"contracts/Owner/datatype.sol\":707:711  true */\n      0x01\n        /* \"contracts/Owner/datatype.sol\":700:711  return true */\n      swap1\n      pop\n        /* \"contracts/Owner/datatype.sol\":363:719  function login(string memory _password) onlyOwner public returns(bool){\r... */\n      swap2\n      swap1\n      pop\n      jump\t// out\n        /* \"contracts/Owner/datatype.sol\":871:994  function addUser(address _newuser) onlyOwner loginCheck userCheck(_newuser) public{\r... */\n    tag_18:\n        /* \"contracts/Owner/owner.sol\":217:222  owner */\n      0x00\n      dup1\n      sload\n      swap1\n      0x0100\n      exp\n      swap1\n      div\n      0xffffffffffffffffffffffffffffffffffffffff\n      and\n        /* \"contracts/Owner/owner.sol\":203:222  msg.sender == owner */\n      0xffffffffffffffffffffffffffffffffffffffff\n      and\n        /* \"contracts/Owner/owner.sol\":203:213  msg.sender */\n      caller\n        /* \"contracts/Owner/owner.sol\":203:222  msg.sender == owner */\n      0xffffffffffffffffffffffffffffffffffffffff\n      and\n      eq\n        /* \"contracts/Owner/owner.sol\":195:235  require(msg.sender == owner,\"not owner\") */\n      tag_52\n      jumpi\n      mload(0x40)\n      0x08c379a000000000000000000000000000000000000000000000000000000000\n      dup2\n      mstore\n      0x04\n      add\n      tag_53\n      swap1\n      tag_36\n      jump\t// in\n    tag_53:\n      mload(0x40)\n      dup1\n      swap2\n      sub\n      swap1\n      revert\n    tag_52:\n        /* \"contracts/Owner/datatype.sol\":1166:1173  isLogin */\n      0x03\n      0x00\n      swap1\n      sload\n      swap1\n      0x0100\n      exp\n      swap1\n      div\n      0xff\n      and\n        /* \"contracts/Owner/datatype.sol\":1158:1191  require(isLogin,\"Please log in!\") */\n      tag_55\n      jumpi\n      mload(0x40)\n      0x08c379a000000000000000000000000000000000000000000000000000000000\n      dup2\n      mstore\n      0x04\n      add\n      tag_56\n      swap1\n      tag_57\n      jump\t// in\n    tag_56:\n      mload(0x40)\n      dup1\n      swap2\n      sub\n      swap1\n      revert\n    tag_55:\n        /* \"contracts/Owner/datatype.sol\":937:945  _newuser */\n      dup1\n        /* \"contracts/Owner/datatype.sol\":1063:1068  users */\n      0x04\n        /* \"contracts/Owner/datatype.sol\":1063:1078  users[_newUser] */\n      0x00\n        /* \"contracts/Owner/datatype.sol\":1069:1077  _newUser */\n      dup3\n        /* \"contracts/Owner/datatype.sol\":1063:1078  users[_newUser] */\n      0xffffffffffffffffffffffffffffffffffffffff\n      and\n      0xffffffffffffffffffffffffffffffffffffffff\n      and\n      dup2\n      mstore\n      0x20\n      add\n      swap1\n      dup2\n      mstore\n      0x20\n      add\n      0x00\n      keccak256\n      0x00\n      swap1\n      sload\n      swap1\n      0x0100\n      exp\n      swap1\n      div\n      0xff\n      and\n        /* \"contracts/Owner/datatype.sol\":1062:1078  !users[_newUser] */\n      iszero\n        /* \"contracts/Owner/datatype.sol\":1054:1100  require(!users[_newUser],\"user already added\") */\n      tag_59\n      jumpi\n      mload(0x40)\n      0x08c379a000000000000000000000000000000000000000000000000000000000\n      dup2\n      mstore\n      0x04\n      add\n      tag_60\n      swap1\n      tag_61\n      jump\t// in\n    tag_60:\n      mload(0x40)\n      dup1\n      swap2\n      sub\n      swap1\n      revert\n    tag_59:\n        /* \"contracts/Owner/datatype.sol\":982:986  true */\n      0x01\n        /* \"contracts/Owner/datatype.sol\":964:969  users */\n      0x04\n        /* \"contracts/Owner/datatype.sol\":964:979  users[_newuser] */\n      0x00\n        /* \"contracts/Owner/datatype.sol\":970:978  _newuser */\n      dup5\n        /* \"contracts/Owner/datatype.sol\":964:979  users[_newuser] */\n      0xffffffffffffffffffffffffffffffffffffffff\n      and\n      0xffffffffffffffffffffffffffffffffffffffff\n      and\n      dup2\n      mstore\n      0x20\n      add\n      swap1\n      dup2\n      mstore\n      0x20\n      add\n      0x00\n      keccak256\n      0x00\n        /* \"contracts/Owner/datatype.sol\":964:986  users[_newuser] = true */\n      0x0100\n      exp\n      dup2\n      sload\n      dup2\n      0xff\n      mul\n      not\n      and\n      swap1\n      dup4\n      iszero\n      iszero\n      mul\n      or\n      swap1\n      sstore\n      pop\n        /* \"contracts/Owner/datatype.sol\":1202:1203  _ */\n      pop\n        /* \"contracts/Owner/datatype.sol\":871:994  function addUser(address _newuser) onlyOwner loginCheck userCheck(_newuser) public{\r... */\n      pop\n      jump\t// out\n        /* \"contracts/Owner/datatype.sol\":725:865  function logOut() public returns(bool){\r... */\n    tag_20:\n        /* \"contracts/Owner/datatype.sol\":758:762  bool */\n      0x00\n        /* \"contracts/Owner/datatype.sol\":783:790  isLogin */\n      0x03\n      0x00\n      swap1\n      sload\n      swap1\n      0x0100\n      exp\n      swap1\n      div\n      0xff\n      and\n        /* \"contracts/Owner/datatype.sol\":774:809  require (isLogin,\"Already log out\") */\n      tag_64\n      jumpi\n      mload(0x40)\n      0x08c379a000000000000000000000000000000000000000000000000000000000\n      dup2\n      mstore\n      0x04\n      add\n      tag_65\n      swap1\n      tag_66\n      jump\t// in\n    tag_65:\n      mload(0x40)\n      dup1\n      swap2\n      sub\n      swap1\n      revert\n    tag_64:\n        /* \"contracts/Owner/datatype.sol\":830:835  false */\n      0x00\n        /* \"contracts/Owner/datatype.sol\":820:827  isLogin */\n      0x03\n      0x00\n        /* \"contracts/Owner/datatype.sol\":820:835  isLogin = false */\n      0x0100\n      exp\n      dup2\n      sload\n      dup2\n      0xff\n      mul\n      not\n      and\n      swap1\n      dup4\n      iszero\n      iszero\n      mul\n      or\n      swap1\n      sstore\n      pop\n        /* \"contracts/Owner/datatype.sol\":853:857  true */\n      0x01\n        /* \"contracts/Owner/datatype.sol\":846:857  return true */\n      swap1\n      pop\n        /* \"contracts/Owner/datatype.sol\":725:865  function logOut() public returns(bool){\r... */\n      swap1\n      jump\t// out\n        /* \"contracts/Owner/datatype.sol\":173:192  bool public isLogin */\n    tag_23:\n      0x03\n      0x00\n      swap1\n      sload\n      swap1\n      0x0100\n      exp\n      swap1\n      div\n      0xff\n      and\n      dup2\n      jump\t// out\n        /* \"contracts/Owner/datatype.sol\":201:239  mapping (address => bool) public users */\n    tag_27:\n      mstore(0x20, 0x04)\n      dup1\n      0x00\n      mstore\n      keccak256(0x00, 0x40)\n      0x00\n      swap2\n      pop\n      sload\n      swap1\n      0x0100\n      exp\n      swap1\n      div\n      0xff\n      and\n      dup2\n      jump\t// out\n        /* \"contracts/Owner/datatype.sol\":144:166  uint public loginCount */\n    tag_30:\n      sload(0x02)\n      dup2\n      jump\t// out\n        /* \"#utility.yul\":7:419   */\n    tag_68:\n        /* \"#utility.yul\":85:90   */\n      0x00\n        /* \"#utility.yul\":110:176   */\n      tag_70\n        /* \"#utility.yul\":126:175   */\n      tag_71\n        /* \"#utility.yul\":168:174   */\n      dup5\n        /* \"#utility.yul\":126:175   */\n      tag_72\n      jump\t// in\n    tag_71:\n        /* \"#utility.yul\":110:176   */\n      tag_73\n      jump\t// in\n    tag_70:\n        /* \"#utility.yul\":101:176   */\n      swap1\n      pop\n        /* \"#utility.yul\":199:205   */\n      dup3\n        /* \"#utility.yul\":192:197   */\n      dup2\n        /* \"#utility.yul\":185:206   */\n      mstore\n        /* \"#utility.yul\":237:241   */\n      0x20\n        /* \"#utility.yul\":230:235   */\n      dup2\n        /* \"#utility.yul\":226:242   */\n      add\n        /* \"#utility.yul\":275:278   */\n      dup5\n        /* \"#utility.yul\":266:272   */\n      dup5\n        /* \"#utility.yul\":261:264   */\n      dup5\n        /* \"#utility.yul\":257:273   */\n      add\n        /* \"#utility.yul\":254:279   */\n      gt\n        /* \"#utility.yul\":251:363   */\n      iszero\n      tag_74\n      jumpi\n        /* \"#utility.yul\":282:361   */\n      tag_75\n      tag_76\n      jump\t// in\n    tag_75:\n        /* \"#utility.yul\":251:363   */\n    tag_74:\n        /* \"#utility.yul\":372:413   */\n      tag_77\n        /* \"#utility.yul\":406:412   */\n      dup5\n        /* \"#utility.yul\":401:404   */\n      dup3\n        /* \"#utility.yul\":396:399   */\n      dup6\n        /* \"#utility.yul\":372:413   */\n      tag_78\n      jump\t// in\n    tag_77:\n        /* \"#utility.yul\":91:419   */\n      pop\n        /* \"#utility.yul\":7:419   */\n      swap4\n      swap3\n      pop\n      pop\n      pop\n      jump\t// out\n        /* \"#utility.yul\":425:564   */\n    tag_79:\n        /* \"#utility.yul\":471:476   */\n      0x00\n        /* \"#utility.yul\":509:515   */\n      dup2\n        /* \"#utility.yul\":496:516   */\n      calldataload\n        /* \"#utility.yul\":487:516   */\n      swap1\n      pop\n        /* \"#utility.yul\":525:558   */\n      tag_81\n        /* \"#utility.yul\":552:557   */\n      dup2\n        /* \"#utility.yul\":525:558   */\n      tag_82\n      jump\t// in\n    tag_81:\n        /* \"#utility.yul\":425:564   */\n      swap3\n      swap2\n      pop\n      pop\n      jump\t// out\n        /* \"#utility.yul\":584:924   */\n    tag_83:\n        /* \"#utility.yul\":640:645   */\n      0x00\n        /* \"#utility.yul\":689:692   */\n      dup3\n        /* \"#utility.yul\":682:686   */\n      0x1f\n        /* \"#utility.yul\":674:680   */\n      dup4\n        /* \"#utility.yul\":670:687   */\n      add\n        /* \"#utility.yul\":666:693   */\n      slt\n        /* \"#utility.yul\":656:778   */\n      tag_85\n      jumpi\n        /* \"#utility.yul\":697:776   */\n      tag_86\n      tag_87\n      jump\t// in\n    tag_86:\n        /* \"#utility.yul\":656:778   */\n    tag_85:\n        /* \"#utility.yul\":814:820   */\n      dup2\n        /* \"#utility.yul\":801:821   */\n      calldataload\n        /* \"#utility.yul\":839:918   */\n      tag_88\n        /* \"#utility.yul\":914:917   */\n      dup5\n        /* \"#utility.yul\":906:912   */\n      dup3\n        /* \"#utility.yul\":899:903   */\n      0x20\n        /* \"#utility.yul\":891:897   */\n      dup7\n        /* \"#utility.yul\":887:904   */\n      add\n        /* \"#utility.yul\":839:918   */\n      tag_68\n      jump\t// in\n    tag_88:\n        /* \"#utility.yul\":830:918   */\n      swap2\n      pop\n        /* \"#utility.yul\":646:924   */\n      pop\n        /* \"#utility.yul\":584:924   */\n      swap3\n      swap2\n      pop\n      pop\n      jump\t// out\n        /* \"#utility.yul\":930:1259   */\n    tag_17:\n        /* \"#utility.yul\":989:995   */\n      0x00\n        /* \"#utility.yul\":1038:1040   */\n      0x20\n        /* \"#utility.yul\":1026:1035   */\n      dup3\n        /* \"#utility.yul\":1017:1024   */\n      dup5\n        /* \"#utility.yul\":1013:1036   */\n      sub\n        /* \"#utility.yul\":1009:1041   */\n      slt\n        /* \"#utility.yul\":1006:1125   */\n      iszero\n      tag_90\n      jumpi\n        /* \"#utility.yul\":1044:1123   */\n      tag_91\n      tag_92\n      jump\t// in\n    tag_91:\n        /* \"#utility.yul\":1006:1125   */\n    tag_90:\n        /* \"#utility.yul\":1164:1165   */\n      0x00\n        /* \"#utility.yul\":1189:1242   */\n      tag_93\n        /* \"#utility.yul\":1234:1241   */\n      dup5\n        /* \"#utility.yul\":1225:1231   */\n      dup3\n        /* \"#utility.yul\":1214:1223   */\n      dup6\n        /* \"#utility.yul\":1210:1232   */\n      add\n        /* \"#utility.yul\":1189:1242   */\n      tag_79\n      jump\t// in\n    tag_93:\n        /* \"#utility.yul\":1179:1242   */\n      swap2\n      pop\n        /* \"#utility.yul\":1135:1252   */\n      pop\n        /* \"#utility.yul\":930:1259   */\n      swap3\n      swap2\n      pop\n      pop\n      jump\t// out\n        /* \"#utility.yul\":1265:1774   */\n    tag_11:\n        /* \"#utility.yul\":1334:1340   */\n      0x00\n        /* \"#utility.yul\":1383:1385   */\n      0x20\n        /* \"#utility.yul\":1371:1380   */\n      dup3\n        /* \"#utility.yul\":1362:1369   */\n      dup5\n        /* \"#utility.yul\":1358:1381   */\n      sub\n        /* \"#utility.yul\":1354:1386   */\n      slt\n        /* \"#utility.yul\":1351:1470   */\n      iszero\n      tag_95\n      jumpi\n        /* \"#utility.yul\":1389:1468   */\n      tag_96\n      tag_92\n      jump\t// in\n    tag_96:\n        /* \"#utility.yul\":1351:1470   */\n    tag_95:\n        /* \"#utility.yul\":1537:1538   */\n      0x00\n        /* \"#utility.yul\":1526:1535   */\n      dup3\n        /* \"#utility.yul\":1522:1539   */\n      add\n        /* \"#utility.yul\":1509:1540   */\n      calldataload\n        /* \"#utility.yul\":1567:1585   */\n      0xffffffffffffffff\n        /* \"#utility.yul\":1559:1565   */\n      dup2\n        /* \"#utility.yul\":1556:1586   */\n      gt\n        /* \"#utility.yul\":1553:1670   */\n      iszero\n      tag_97\n      jumpi\n        /* \"#utility.yul\":1589:1668   */\n      tag_98\n      tag_99\n      jump\t// in\n    tag_98:\n        /* \"#utility.yul\":1553:1670   */\n    tag_97:\n        /* \"#utility.yul\":1694:1757   */\n      tag_100\n        /* \"#utility.yul\":1749:1756   */\n      dup5\n        /* \"#utility.yul\":1740:1746   */\n      dup3\n        /* \"#utility.yul\":1729:1738   */\n      dup6\n        /* \"#utility.yul\":1725:1747   */\n      add\n        /* \"#utility.yul\":1694:1757   */\n      tag_83\n      jump\t// in\n    tag_100:\n        /* \"#utility.yul\":1684:1757   */\n      swap2\n      pop\n        /* \"#utility.yul\":1480:1767   */\n      pop\n        /* \"#utility.yul\":1265:1774   */\n      swap3\n      swap2\n      pop\n      pop\n      jump\t// out\n        /* \"#utility.yul\":1780:1889   */\n    tag_101:\n        /* \"#utility.yul\":1861:1882   */\n      tag_103\n        /* \"#utility.yul\":1876:1881   */\n      dup2\n        /* \"#utility.yul\":1861:1882   */\n      tag_104\n      jump\t// in\n    tag_103:\n        /* \"#utility.yul\":1856:1859   */\n      dup3\n        /* \"#utility.yul\":1849:1883   */\n      mstore\n        /* \"#utility.yul\":1780:1889   */\n      pop\n      pop\n      jump\t// out\n        /* \"#utility.yul\":1895:2272   */\n    tag_105:\n        /* \"#utility.yul\":2001:2004   */\n      0x00\n        /* \"#utility.yul\":2029:2068   */\n      tag_107\n        /* \"#utility.yul\":2062:2067   */\n      dup3\n        /* \"#utility.yul\":2029:2068   */\n      tag_108\n      jump\t// in\n    tag_107:\n        /* \"#utility.yul\":2084:2173   */\n      tag_109\n        /* \"#utility.yul\":2166:2172   */\n      dup2\n        /* \"#utility.yul\":2161:2164   */\n      dup6\n        /* \"#utility.yul\":2084:2173   */\n      tag_110\n      jump\t// in\n    tag_109:\n        /* \"#utility.yul\":2077:2173   */\n      swap4\n      pop\n        /* \"#utility.yul\":2182:2234   */\n      tag_111\n        /* \"#utility.yul\":2227:2233   */\n      dup2\n        /* \"#utility.yul\":2222:2225   */\n      dup6\n        /* \"#utility.yul\":2215:2219   */\n      0x20\n        /* \"#utility.yul\":2208:2213   */\n      dup7\n        /* \"#utility.yul\":2204:2220   */\n      add\n        /* \"#utility.yul\":2182:2234   */\n      tag_112\n      jump\t// in\n    tag_111:\n        /* \"#utility.yul\":2259:2265   */\n      dup1\n        /* \"#utility.yul\":2254:2257   */\n      dup5\n        /* \"#utility.yul\":2250:2266   */\n      add\n        /* \"#utility.yul\":2243:2266   */\n      swap2\n      pop\n        /* \"#utility.yul\":2005:2272   */\n      pop\n        /* \"#utility.yul\":1895:2272   */\n      swap3\n      swap2\n      pop\n      pop\n      jump\t// out\n        /* \"#utility.yul\":2278:2644   */\n    tag_113:\n        /* \"#utility.yul\":2420:2423   */\n      0x00\n        /* \"#utility.yul\":2441:2508   */\n      tag_115\n        /* \"#utility.yul\":2505:2507   */\n      0x12\n        /* \"#utility.yul\":2500:2503   */\n      dup4\n        /* \"#utility.yul\":2441:2508   */\n      tag_116\n      jump\t// in\n    tag_115:\n        /* \"#utility.yul\":2434:2508   */\n      swap2\n      pop\n        /* \"#utility.yul\":2517:2610   */\n      tag_117\n        /* \"#utility.yul\":2606:2609   */\n      dup3\n        /* \"#utility.yul\":2517:2610   */\n      tag_118\n      jump\t// in\n    tag_117:\n        /* \"#utility.yul\":2635:2637   */\n      0x20\n        /* \"#utility.yul\":2630:2633   */\n      dup3\n        /* \"#utility.yul\":2626:2638   */\n      add\n        /* \"#utility.yul\":2619:2638   */\n      swap1\n      pop\n        /* \"#utility.yul\":2278:2644   */\n      swap2\n      swap1\n      pop\n      jump\t// out\n        /* \"#utility.yul\":2650:3016   */\n    tag_119:\n        /* \"#utility.yul\":2792:2795   */\n      0x00\n        /* \"#utility.yul\":2813:2880   */\n      tag_121\n        /* \"#utility.yul\":2877:2879   */\n      0x1b\n        /* \"#utility.yul\":2872:2875   */\n      dup4\n        /* \"#utility.yul\":2813:2880   */\n      tag_116\n      jump\t// in\n    tag_121:\n        /* \"#utility.yul\":2806:2880   */\n      swap2\n      pop\n        /* \"#utility.yul\":2889:2982   */\n      tag_122\n        /* \"#utility.yul\":2978:2981   */\n      dup3\n        /* \"#utility.yul\":2889:2982   */\n      tag_123\n      jump\t// in\n    tag_122:\n        /* \"#utility.yul\":3007:3009   */\n      0x20\n        /* \"#utility.yul\":3002:3005   */\n      dup3\n        /* \"#utility.yul\":2998:3010   */\n      add\n        /* \"#utility.yul\":2991:3010   */\n      swap1\n      pop\n        /* \"#utility.yul\":2650:3016   */\n      swap2\n      swap1\n      pop\n      jump\t// out\n        /* \"#utility.yul\":3022:3388   */\n    tag_124:\n        /* \"#utility.yul\":3164:3167   */\n      0x00\n        /* \"#utility.yul\":3185:3252   */\n      tag_126\n        /* \"#utility.yul\":3249:3251   */\n      0x15\n        /* \"#utility.yul\":3244:3247   */\n      dup4\n        /* \"#utility.yul\":3185:3252   */\n      tag_116\n      jump\t// in\n    tag_126:\n        /* \"#utility.yul\":3178:3252   */\n      swap2\n      pop\n        /* \"#utility.yul\":3261:3354   */\n      tag_127\n        /* \"#utility.yul\":3350:3353   */\n      dup3\n        /* \"#utility.yul\":3261:3354   */\n      tag_128\n      jump\t// in\n    tag_127:\n        /* \"#utility.yul\":3379:3381   */\n      0x20\n        /* \"#utility.yul\":3374:3377   */\n      dup3\n        /* \"#utility.yul\":3370:3382   */\n      add\n        /* \"#utility.yul\":3363:3382   */\n      swap1\n      pop\n        /* \"#utility.yul\":3022:3388   */\n      swap2\n      swap1\n      pop\n      jump\t// out\n        /* \"#utility.yul\":3394:3760   */\n    tag_129:\n        /* \"#utility.yul\":3536:3539   */\n      0x00\n        /* \"#utility.yul\":3557:3624   */\n      tag_131\n        /* \"#utility.yul\":3621:3623   */\n      0x0e\n        /* \"#utility.yul\":3616:3619   */\n      dup4\n        /* \"#utility.yul\":3557:3624   */\n      tag_116\n      jump\t// in\n    tag_131:\n        /* \"#utility.yul\":3550:3624   */\n      swap2\n      pop\n        /* \"#utility.yul\":3633:3726   */\n      tag_132\n        /* \"#utility.yul\":3722:3725   */\n      dup3\n        /* \"#utility.yul\":3633:3726   */\n      tag_133\n      jump\t// in\n    tag_132:\n        /* \"#utility.yul\":3751:3753   */\n      0x20\n        /* \"#utility.yul\":3746:3749   */\n      dup3\n        /* \"#utility.yul\":3742:3754   */\n      add\n        /* \"#utility.yul\":3735:3754   */\n      swap1\n      pop\n        /* \"#utility.yul\":3394:3760   */\n      swap2\n      swap1\n      pop\n      jump\t// out\n        /* \"#utility.yul\":3766:4132   */\n    tag_134:\n        /* \"#utility.yul\":3908:3911   */\n      0x00\n        /* \"#utility.yul\":3929:3996   */\n      tag_136\n        /* \"#utility.yul\":3993:3995   */\n      0x0f\n        /* \"#utility.yul\":3988:3991   */\n      dup4\n        /* \"#utility.yul\":3929:3996   */\n      tag_116\n      jump\t// in\n    tag_136:\n        /* \"#utility.yul\":3922:3996   */\n      swap2\n      pop\n        /* \"#utility.yul\":4005:4098   */\n      tag_137\n        /* \"#utility.yul\":4094:4097   */\n      dup3\n        /* \"#utility.yul\":4005:4098   */\n      tag_138\n      jump\t// in\n    tag_137:\n        /* \"#utility.yul\":4123:4125   */\n      0x20\n        /* \"#utility.yul\":4118:4121   */\n      dup3\n        /* \"#utility.yul\":4114:4126   */\n      add\n        /* \"#utility.yul\":4107:4126   */\n      swap1\n      pop\n        /* \"#utility.yul\":3766:4132   */\n      swap2\n      swap1\n      pop\n      jump\t// out\n        /* \"#utility.yul\":4138:4504   */\n    tag_139:\n        /* \"#utility.yul\":4280:4283   */\n      0x00\n        /* \"#utility.yul\":4301:4368   */\n      tag_141\n        /* \"#utility.yul\":4365:4367   */\n      0x12\n        /* \"#utility.yul\":4360:4363   */\n      dup4\n        /* \"#utility.yul\":4301:4368   */\n      tag_116\n      jump\t// in\n    tag_141:\n        /* \"#utility.yul\":4294:4368   */\n      swap2\n      pop\n        /* \"#utility.yul\":4377:4470   */\n      tag_142\n        /* \"#utility.yul\":4466:4469   */\n      dup3\n        /* \"#utility.yul\":4377:4470   */\n      tag_143\n      jump\t// in\n    tag_142:\n        /* \"#utility.yul\":4495:4497   */\n      0x20\n        /* \"#utility.yul\":4490:4493   */\n      dup3\n        /* \"#utility.yul\":4486:4498   */\n      add\n        /* \"#utility.yul\":4479:4498   */\n      swap1\n      pop\n        /* \"#utility.yul\":4138:4504   */\n      swap2\n      swap1\n      pop\n      jump\t// out\n        /* \"#utility.yul\":4510:4875   */\n    tag_144:\n        /* \"#utility.yul\":4652:4655   */\n      0x00\n        /* \"#utility.yul\":4673:4739   */\n      tag_146\n        /* \"#utility.yul\":4737:4738   */\n      0x09\n        /* \"#utility.yul\":4732:4735   */\n      dup4\n        /* \"#utility.yul\":4673:4739   */\n      tag_116\n      jump\t// in\n    tag_146:\n        /* \"#utility.yul\":4666:4739   */\n      swap2\n      pop\n        /* \"#utility.yul\":4748:4841   */\n      tag_147\n        /* \"#utility.yul\":4837:4840   */\n      dup3\n        /* \"#utility.yul\":4748:4841   */\n      tag_148\n      jump\t// in\n    tag_147:\n        /* \"#utility.yul\":4866:4868   */\n      0x20\n        /* \"#utility.yul\":4861:4864   */\n      dup3\n        /* \"#utility.yul\":4857:4869   */\n      add\n        /* \"#utility.yul\":4850:4869   */\n      swap1\n      pop\n        /* \"#utility.yul\":4510:4875   */\n      swap2\n      swap1\n      pop\n      jump\t// out\n        /* \"#utility.yul\":4881:4999   */\n    tag_149:\n        /* \"#utility.yul\":4968:4992   */\n      tag_151\n        /* \"#utility.yul\":4986:4991   */\n      dup2\n        /* \"#utility.yul\":4968:4992   */\n      tag_152\n      jump\t// in\n    tag_151:\n        /* \"#utility.yul\":4963:4966   */\n      dup3\n        /* \"#utility.yul\":4956:4993   */\n      mstore\n        /* \"#utility.yul\":4881:4999   */\n      pop\n      pop\n      jump\t// out\n        /* \"#utility.yul\":5005:5280   */\n    tag_45:\n        /* \"#utility.yul\":5137:5140   */\n      0x00\n        /* \"#utility.yul\":5159:5254   */\n      tag_154\n        /* \"#utility.yul\":5250:5253   */\n      dup3\n        /* \"#utility.yul\":5241:5247   */\n      dup5\n        /* \"#utility.yul\":5159:5254   */\n      tag_105\n      jump\t// in\n    tag_154:\n        /* \"#utility.yul\":5152:5254   */\n      swap2\n      pop\n        /* \"#utility.yul\":5271:5274   */\n      dup2\n        /* \"#utility.yul\":5264:5274   */\n      swap1\n      pop\n        /* \"#utility.yul\":5005:5280   */\n      swap3\n      swap2\n      pop\n      pop\n      jump\t// out\n        /* \"#utility.yul\":5286:5496   */\n    tag_14:\n        /* \"#utility.yul\":5373:5377   */\n      0x00\n        /* \"#utility.yul\":5411:5413   */\n      0x20\n        /* \"#utility.yul\":5400:5409   */\n      dup3\n        /* \"#utility.yul\":5396:5414   */\n      add\n        /* \"#utility.yul\":5388:5414   */\n      swap1\n      pop\n        /* \"#utility.yul\":5424:5489   */\n      tag_156\n        /* \"#utility.yul\":5486:5487   */\n      0x00\n        /* \"#utility.yul\":5475:5484   */\n      dup4\n        /* \"#utility.yul\":5471:5488   */\n      add\n        /* \"#utility.yul\":5462:5468   */\n      dup5\n        /* \"#utility.yul\":5424:5489   */\n      tag_101\n      jump\t// in\n    tag_156:\n        /* \"#utility.yul\":5286:5496   */\n      swap3\n      swap2\n      pop\n      pop\n      jump\t// out\n        /* \"#utility.yul\":5502:5921   */\n    tag_61:\n        /* \"#utility.yul\":5668:5672   */\n      0x00\n        /* \"#utility.yul\":5706:5708   */\n      0x20\n        /* \"#utility.yul\":5695:5704   */\n      dup3\n        /* \"#utility.yul\":5691:5709   */\n      add\n        /* \"#utility.yul\":5683:5709   */\n      swap1\n      pop\n        /* \"#utility.yul\":5755:5764   */\n      dup2\n        /* \"#utility.yul\":5749:5753   */\n      dup2\n        /* \"#utility.yul\":5745:5765   */\n      sub\n        /* \"#utility.yul\":5741:5742   */\n      0x00\n        /* \"#utility.yul\":5730:5739   */\n      dup4\n        /* \"#utility.yul\":5726:5743   */\n      add\n        /* \"#utility.yul\":5719:5766   */\n      mstore\n        /* \"#utility.yul\":5783:5914   */\n      tag_158\n        /* \"#utility.yul\":5909:5913   */\n      dup2\n        /* \"#utility.yul\":5783:5914   */\n      tag_113\n      jump\t// in\n    tag_158:\n        /* \"#utility.yul\":5775:5914   */\n      swap1\n      pop\n        /* \"#utility.yul\":5502:5921   */\n      swap2\n      swap1\n      pop\n      jump\t// out\n        /* \"#utility.yul\":5927:6346   */\n    tag_43:\n        /* \"#utility.yul\":6093:6097   */\n      0x00\n        /* \"#utility.yul\":6131:6133   */\n      0x20\n        /* \"#utility.yul\":6120:6129   */\n      dup3\n        /* \"#utility.yul\":6116:6134   */\n      add\n        /* \"#utility.yul\":6108:6134   */\n      swap1\n      pop\n        /* \"#utility.yul\":6180:6189   */\n      dup2\n        /* \"#utility.yul\":6174:6178   */\n      dup2\n        /* \"#utility.yul\":6170:6190   */\n      sub\n        /* \"#utility.yul\":6166:6167   */\n      0x00\n        /* \"#utility.yul\":6155:6164   */\n      dup4\n        /* \"#utility.yul\":6151:6168   */\n      add\n        /* \"#utility.yul\":6144:6191   */\n      mstore\n        /* \"#utility.yul\":6208:6339   */\n      tag_160\n        /* \"#utility.yul\":6334:6338   */\n      dup2\n        /* \"#utility.yul\":6208:6339   */\n      tag_119\n      jump\t// in\n    tag_160:\n        /* \"#utility.yul\":6200:6339   */\n      swap1\n      pop\n        /* \"#utility.yul\":5927:6346   */\n      swap2\n      swap1\n      pop\n      jump\t// out\n        /* \"#utility.yul\":6352:6771   */\n    tag_48:\n        /* \"#utility.yul\":6518:6522   */\n      0x00\n        /* \"#utility.yul\":6556:6558   */\n      0x20\n        /* \"#utility.yul\":6545:6554   */\n      dup3\n        /* \"#utility.yul\":6541:6559   */\n      add\n        /* \"#utility.yul\":6533:6559   */\n      swap1\n      pop\n        /* \"#utility.yul\":6605:6614   */\n      dup2\n        /* \"#utility.yul\":6599:6603   */\n      dup2\n        /* \"#utility.yul\":6595:6615   */\n      sub\n        /* \"#utility.yul\":6591:6592   */\n      0x00\n        /* \"#utility.yul\":6580:6589   */\n      dup4\n        /* \"#utility.yul\":6576:6593   */\n      add\n        /* \"#utility.yul\":6569:6616   */\n      mstore\n        /* \"#utility.yul\":6633:6764   */\n      tag_162\n        /* \"#utility.yul\":6759:6763   */\n      dup2\n        /* \"#utility.yul\":6633:6764   */\n      tag_124\n      jump\t// in\n    tag_162:\n        /* \"#utility.yul\":6625:6764   */\n      swap1\n      pop\n        /* \"#utility.yul\":6352:6771   */\n      swap2\n      swap1\n      pop\n      jump\t// out\n        /* \"#utility.yul\":6777:7196   */\n    tag_57:\n        /* \"#utility.yul\":6943:6947   */\n      0x00\n        /* \"#utility.yul\":6981:6983   */\n      0x20\n        /* \"#utility.yul\":6970:6979   */\n      dup3\n        /* \"#utility.yul\":6966:6984   */\n      add\n        /* \"#utility.yul\":6958:6984   */\n      swap1\n      pop\n        /* \"#utility.yul\":7030:7039   */\n      dup2\n        /* \"#utility.yul\":7024:7028   */\n      dup2\n        /* \"#utility.yul\":7020:7040   */\n      sub\n        /* \"#utility.yul\":7016:7017   */\n      0x00\n        /* \"#utility.yul\":7005:7014   */\n      dup4\n        /* \"#utility.yul\":7001:7018   */\n      add\n        /* \"#utility.yul\":6994:7041   */\n      mstore\n        /* \"#utility.yul\":7058:7189   */\n      tag_164\n        /* \"#utility.yul\":7184:7188   */\n      dup2\n        /* \"#utility.yul\":7058:7189   */\n      tag_129\n      jump\t// in\n    tag_164:\n        /* \"#utility.yul\":7050:7189   */\n      swap1\n      pop\n        /* \"#utility.yul\":6777:7196   */\n      swap2\n      swap1\n      pop\n      jump\t// out\n        /* \"#utility.yul\":7202:7621   */\n    tag_66:\n        /* \"#utility.yul\":7368:7372   */\n      0x00\n        /* \"#utility.yul\":7406:7408   */\n      0x20\n        /* \"#utility.yul\":7395:7404   */\n      dup3\n        /* \"#utility.yul\":7391:7409   */\n      add\n        /* \"#utility.yul\":7383:7409   */\n      swap1\n      pop\n        /* \"#utility.yul\":7455:7464   */\n      dup2\n        /* \"#utility.yul\":7449:7453   */\n      dup2\n        /* \"#utility.yul\":7445:7465   */\n      sub\n        /* \"#utility.yul\":7441:7442   */\n      0x00\n        /* \"#utility.yul\":7430:7439   */\n      dup4\n        /* \"#utility.yul\":7426:7443   */\n      add\n        /* \"#utility.yul\":7419:7466   */\n      mstore\n        /* \"#utility.yul\":7483:7614   */\n      tag_166\n        /* \"#utility.yul\":7609:7613   */\n      dup2\n        /* \"#utility.yul\":7483:7614   */\n      tag_134\n      jump\t// in\n    tag_166:\n        /* \"#utility.yul\":7475:7614   */\n      swap1\n      pop\n        /* \"#utility.yul\":7202:7621   */\n      swap2\n      swap1\n      pop\n      jump\t// out\n        /* \"#utility.yul\":7627:8046   */\n    tag_40:\n        /* \"#utility.yul\":7793:7797   */\n      0x00\n        /* \"#utility.yul\":7831:7833   */\n      0x20\n        /* \"#utility.yul\":7820:7829   */\n      dup3\n        /* \"#utility.yul\":7816:7834   */\n      add\n        /* \"#utility.yul\":7808:7834   */\n      swap1\n      pop\n        /* \"#utility.yul\":7880:7889   */\n      dup2\n        /* \"#utility.yul\":7874:7878   */\n      dup2\n        /* \"#utility.yul\":7870:7890   */\n      sub\n        /* \"#utility.yul\":7866:7867   */\n      0x00\n        /* \"#utility.yul\":7855:7864   */\n      dup4\n        /* \"#utility.yul\":7851:7868   */\n      add\n        /* \"#utility.yul\":7844:7891   */\n      mstore\n        /* \"#utility.yul\":7908:8039   */\n      tag_168\n        /* \"#utility.yul\":8034:8038   */\n      dup2\n        /* \"#utility.yul\":7908:8039   */\n      tag_139\n      jump\t// in\n    tag_168:\n        /* \"#utility.yul\":7900:8039   */\n      swap1\n      pop\n        /* \"#utility.yul\":7627:8046   */\n      swap2\n      swap1\n      pop\n      jump\t// out\n        /* \"#utility.yul\":8052:8471   */\n    tag_36:\n        /* \"#utility.yul\":8218:8222   */\n      0x00\n        /* \"#utility.yul\":8256:8258   */\n      0x20\n        /* \"#utility.yul\":8245:8254   */\n      dup3\n        /* \"#utility.yul\":8241:8259   */\n      add\n        /* \"#utility.yul\":8233:8259   */\n      swap1\n      pop\n        /* \"#utility.yul\":8305:8314   */\n      dup2\n        /* \"#utility.yul\":8299:8303   */\n      dup2\n        /* \"#utility.yul\":8295:8315   */\n      sub\n        /* \"#utility.yul\":8291:8292   */\n      0x00\n        /* \"#utility.yul\":8280:8289   */\n      dup4\n        /* \"#utility.yul\":8276:8293   */\n      add\n        /* \"#utility.yul\":8269:8316   */\n      mstore\n        /* \"#utility.yul\":8333:8464   */\n      tag_170\n        /* \"#utility.yul\":8459:8463   */\n      dup2\n        /* \"#utility.yul\":8333:8464   */\n      tag_144\n      jump\t// in\n    tag_170:\n        /* \"#utility.yul\":8325:8464   */\n      swap1\n      pop\n        /* \"#utility.yul\":8052:8471   */\n      swap2\n      swap1\n      pop\n      jump\t// out\n        /* \"#utility.yul\":8477:8699   */\n    tag_32:\n        /* \"#utility.yul\":8570:8574   */\n      0x00\n        /* \"#utility.yul\":8608:8610   */\n      0x20\n        /* \"#utility.yul\":8597:8606   */\n      dup3\n        /* \"#utility.yul\":8593:8611   */\n      add\n        /* \"#utility.yul\":8585:8611   */\n      swap1\n      pop\n        /* \"#utility.yul\":8621:8692   */\n      tag_172\n        /* \"#utility.yul\":8689:8690   */\n      0x00\n        /* \"#utility.yul\":8678:8687   */\n      dup4\n        /* \"#utility.yul\":8674:8691   */\n      add\n        /* \"#utility.yul\":8665:8671   */\n      dup5\n        /* \"#utility.yul\":8621:8692   */\n      tag_149\n      jump\t// in\n    tag_172:\n        /* \"#utility.yul\":8477:8699   */\n      swap3\n      swap2\n      pop\n      pop\n      jump\t// out\n        /* \"#utility.yul\":8705:8834   */\n    tag_73:\n        /* \"#utility.yul\":8739:8745   */\n      0x00\n        /* \"#utility.yul\":8766:8786   */\n      tag_174\n      tag_175\n      jump\t// in\n    tag_174:\n        /* \"#utility.yul\":8756:8786   */\n      swap1\n      pop\n        /* \"#utility.yul\":8795:8828   */\n      tag_176\n        /* \"#utility.yul\":8823:8827   */\n      dup3\n        /* \"#utility.yul\":8815:8821   */\n      dup3\n        /* \"#utility.yul\":8795:8828   */\n      tag_177\n      jump\t// in\n    tag_176:\n        /* \"#utility.yul\":8705:8834   */\n      swap2\n      swap1\n      pop\n      jump\t// out\n        /* \"#utility.yul\":8840:8915   */\n    tag_175:\n        /* \"#utility.yul\":8873:8879   */\n      0x00\n        /* \"#utility.yul\":8906:8908   */\n      0x40\n        /* \"#utility.yul\":8900:8909   */\n      mload\n        /* \"#utility.yul\":8890:8909   */\n      swap1\n      pop\n        /* \"#utility.yul\":8840:8915   */\n      swap1\n      jump\t// out\n        /* \"#utility.yul\":8921:9229   */\n    tag_72:\n        /* \"#utility.yul\":8983:8987   */\n      0x00\n        /* \"#utility.yul\":9073:9091   */\n      0xffffffffffffffff\n        /* \"#utility.yul\":9065:9071   */\n      dup3\n        /* \"#utility.yul\":9062:9092   */\n      gt\n        /* \"#utility.yul\":9059:9115   */\n      iszero\n      tag_180\n      jumpi\n        /* \"#utility.yul\":9095:9113   */\n      tag_181\n      tag_182\n      jump\t// in\n    tag_181:\n        /* \"#utility.yul\":9059:9115   */\n    tag_180:\n        /* \"#utility.yul\":9133:9162   */\n      tag_183\n        /* \"#utility.yul\":9155:9161   */\n      dup3\n        /* \"#utility.yul\":9133:9162   */\n      tag_184\n      jump\t// in\n    tag_183:\n        /* \"#utility.yul\":9125:9162   */\n      swap1\n      pop\n        /* \"#utility.yul\":9217:9221   */\n      0x20\n        /* \"#utility.yul\":9211:9215   */\n      dup2\n        /* \"#utility.yul\":9207:9222   */\n      add\n        /* \"#utility.yul\":9199:9222   */\n      swap1\n      pop\n        /* \"#utility.yul\":8921:9229   */\n      swap2\n      swap1\n      pop\n      jump\t// out\n        /* \"#utility.yul\":9235:9334   */\n    tag_108:\n        /* \"#utility.yul\":9287:9293   */\n      0x00\n        /* \"#utility.yul\":9321:9326   */\n      dup2\n        /* \"#utility.yul\":9315:9327   */\n      mload\n        /* \"#utility.yul\":9305:9327   */\n      swap1\n      pop\n        /* \"#utility.yul\":9235:9334   */\n      swap2\n      swap1\n      pop\n      jump\t// out\n        /* \"#utility.yul\":9340:9509   */\n    tag_116:\n        /* \"#utility.yul\":9424:9435   */\n      0x00\n        /* \"#utility.yul\":9458:9464   */\n      dup3\n        /* \"#utility.yul\":9453:9456   */\n      dup3\n        /* \"#utility.yul\":9446:9465   */\n      mstore\n        /* \"#utility.yul\":9498:9502   */\n      0x20\n        /* \"#utility.yul\":9493:9496   */\n      dup3\n        /* \"#utility.yul\":9489:9503   */\n      add\n        /* \"#utility.yul\":9474:9503   */\n      swap1\n      pop\n        /* \"#utility.yul\":9340:9509   */\n      swap3\n      swap2\n      pop\n      pop\n      jump\t// out\n        /* \"#utility.yul\":9515:9663   */\n    tag_110:\n        /* \"#utility.yul\":9617:9628   */\n      0x00\n        /* \"#utility.yul\":9654:9657   */\n      dup2\n        /* \"#utility.yul\":9639:9657   */\n      swap1\n      pop\n        /* \"#utility.yul\":9515:9663   */\n      swap3\n      swap2\n      pop\n      pop\n      jump\t// out\n        /* \"#utility.yul\":9669:9765   */\n    tag_188:\n        /* \"#utility.yul\":9706:9713   */\n      0x00\n        /* \"#utility.yul\":9735:9759   */\n      tag_190\n        /* \"#utility.yul\":9753:9758   */\n      dup3\n        /* \"#utility.yul\":9735:9759   */\n      tag_191\n      jump\t// in\n    tag_190:\n        /* \"#utility.yul\":9724:9759   */\n      swap1\n      pop\n        /* \"#utility.yul\":9669:9765   */\n      swap2\n      swap1\n      pop\n      jump\t// out\n        /* \"#utility.yul\":9771:9861   */\n    tag_104:\n        /* \"#utility.yul\":9805:9812   */\n      0x00\n        /* \"#utility.yul\":9848:9853   */\n      dup2\n        /* \"#utility.yul\":9841:9854   */\n      iszero\n        /* \"#utility.yul\":9834:9855   */\n      iszero\n        /* \"#utility.yul\":9823:9855   */\n      swap1\n      pop\n        /* \"#utility.yul\":9771:9861   */\n      swap2\n      swap1\n      pop\n      jump\t// out\n        /* \"#utility.yul\":9867:9993   */\n    tag_191:\n        /* \"#utility.yul\":9904:9911   */\n      0x00\n        /* \"#utility.yul\":9944:9986   */\n      0xffffffffffffffffffffffffffffffffffffffff\n        /* \"#utility.yul\":9937:9942   */\n      dup3\n        /* \"#utility.yul\":9933:9987   */\n      and\n        /* \"#utility.yul\":9922:9987   */\n      swap1\n      pop\n        /* \"#utility.yul\":9867:9993   */\n      swap2\n      swap1\n      pop\n      jump\t// out\n        /* \"#utility.yul\":9999:10076   */\n    tag_152:\n        /* \"#utility.yul\":10036:10043   */\n      0x00\n        /* \"#utility.yul\":10065:10070   */\n      dup2\n        /* \"#utility.yul\":10054:10070   */\n      swap1\n      pop\n        /* \"#utility.yul\":9999:10076   */\n      swap2\n      swap1\n      pop\n      jump\t// out\n        /* \"#utility.yul\":10082:10236   */\n    tag_78:\n        /* \"#utility.yul\":10166:10172   */\n      dup3\n        /* \"#utility.yul\":10161:10164   */\n      dup2\n        /* \"#utility.yul\":10156:10159   */\n      dup4\n        /* \"#utility.yul\":10143:10173   */\n      calldatacopy\n        /* \"#utility.yul\":10228:10229   */\n      0x00\n        /* \"#utility.yul\":10219:10225   */\n      dup4\n        /* \"#utility.yul\":10214:10217   */\n      dup4\n        /* \"#utility.yul\":10210:10226   */\n      add\n        /* \"#utility.yul\":10203:10230   */\n      mstore\n        /* \"#utility.yul\":10082:10236   */\n      pop\n      pop\n      pop\n      jump\t// out\n        /* \"#utility.yul\":10242:10549   */\n    tag_112:\n        /* \"#utility.yul\":10310:10311   */\n      0x00\n        /* \"#utility.yul\":10320:10433   */\n    tag_197:\n        /* \"#utility.yul\":10334:10340   */\n      dup4\n        /* \"#utility.yul\":10331:10332   */\n      dup2\n        /* \"#utility.yul\":10328:10341   */\n      lt\n        /* \"#utility.yul\":10320:10433   */\n      iszero\n      tag_199\n      jumpi\n        /* \"#utility.yul\":10419:10420   */\n      dup1\n        /* \"#utility.yul\":10414:10417   */\n      dup3\n        /* \"#utility.yul\":10410:10421   */\n      add\n        /* \"#utility.yul\":10404:10422   */\n      mload\n        /* \"#utility.yul\":10400:10401   */\n      dup2\n        /* \"#utility.yul\":10395:10398   */\n      dup5\n        /* \"#utility.yul\":10391:10402   */\n      add\n        /* \"#utility.yul\":10384:10423   */\n      mstore\n        /* \"#utility.yul\":10356:10358   */\n      0x20\n        /* \"#utility.yul\":10353:10354   */\n      dup2\n        /* \"#utility.yul\":10349:10359   */\n      add\n        /* \"#utility.yul\":10344:10359   */\n      swap1\n      pop\n        /* \"#utility.yul\":10320:10433   */\n      jump(tag_197)\n    tag_199:\n        /* \"#utility.yul\":10451:10457   */\n      dup4\n        /* \"#utility.yul\":10448:10449   */\n      dup2\n        /* \"#utility.yul\":10445:10458   */\n      gt\n        /* \"#utility.yul\":10442:10543   */\n      iszero\n      tag_200\n      jumpi\n        /* \"#utility.yul\":10531:10532   */\n      0x00\n        /* \"#utility.yul\":10522:10528   */\n      dup5\n        /* \"#utility.yul\":10517:10520   */\n      dup5\n        /* \"#utility.yul\":10513:10529   */\n      add\n        /* \"#utility.yul\":10506:10533   */\n      mstore\n        /* \"#utility.yul\":10442:10543   */\n    tag_200:\n        /* \"#utility.yul\":10291:10549   */\n      pop\n        /* \"#utility.yul\":10242:10549   */\n      pop\n      pop\n      pop\n      jump\t// out\n        /* \"#utility.yul\":10555:10836   */\n    tag_177:\n        /* \"#utility.yul\":10638:10665   */\n      tag_202\n        /* \"#utility.yul\":10660:10664   */\n      dup3\n        /* \"#utility.yul\":10638:10665   */\n      tag_184\n      jump\t// in\n    tag_202:\n        /* \"#utility.yul\":10630:10636   */\n      dup2\n        /* \"#utility.yul\":10626:10666   */\n      add\n        /* \"#utility.yul\":10768:10774   */\n      dup2\n        /* \"#utility.yul\":10756:10766   */\n      dup2\n        /* \"#utility.yul\":10753:10775   */\n      lt\n        /* \"#utility.yul\":10732:10750   */\n      0xffffffffffffffff\n        /* \"#utility.yul\":10720:10730   */\n      dup3\n        /* \"#utility.yul\":10717:10751   */\n      gt\n        /* \"#utility.yul\":10714:10776   */\n      or\n        /* \"#utility.yul\":10711:10799   */\n      iszero\n      tag_203\n      jumpi\n        /* \"#utility.yul\":10779:10797   */\n      tag_204\n      tag_182\n      jump\t// in\n    tag_204:\n        /* \"#utility.yul\":10711:10799   */\n    tag_203:\n        /* \"#utility.yul\":10819:10829   */\n      dup1\n        /* \"#utility.yul\":10815:10817   */\n      0x40\n        /* \"#utility.yul\":10808:10830   */\n      mstore\n        /* \"#utility.yul\":10598:10836   */\n      pop\n        /* \"#utility.yul\":10555:10836   */\n      pop\n      pop\n      jump\t// out\n        /* \"#utility.yul\":10842:11075   */\n    tag_50:\n        /* \"#utility.yul\":10881:10884   */\n      0x00\n        /* \"#utility.yul\":10904:10928   */\n      tag_206\n        /* \"#utility.yul\":10922:10927   */\n      dup3\n        /* \"#utility.yul\":10904:10928   */\n      tag_152\n      jump\t// in\n    tag_206:\n        /* \"#utility.yul\":10895:10928   */\n      swap2\n      pop\n        /* \"#utility.yul\":10950:11016   */\n      0xffffffffffffffffffffffffffffffffffffffffffffffffffffffffffffffff\n        /* \"#utility.yul\":10943:10948   */\n      dup3\n        /* \"#utility.yul\":10940:11017   */\n      eq\n        /* \"#utility.yul\":10937:11040   */\n      iszero\n      tag_207\n      jumpi\n        /* \"#utility.yul\":11020:11038   */\n      tag_208\n      tag_209\n      jump\t// in\n    tag_208:\n        /* \"#utility.yul\":10937:11040   */\n    tag_207:\n        /* \"#utility.yul\":11067:11068   */\n      0x01\n        /* \"#utility.yul\":11060:11065   */\n      dup3\n        /* \"#utility.yul\":11056:11069   */\n      add\n        /* \"#utility.yul\":11049:11069   */\n      swap1\n      pop\n        /* \"#utility.yul\":10842:11075   */\n      swap2\n      swap1\n      pop\n      jump\t// out\n        /* \"#utility.yul\":11081:11261   */\n    tag_209:\n        /* \"#utility.yul\":11129:11206   */\n      0x4e487b7100000000000000000000000000000000000000000000000000000000\n        /* \"#utility.yul\":11126:11127   */\n      0x00\n        /* \"#utility.yul\":11119:11207   */\n      mstore\n        /* \"#utility.yul\":11226:11230   */\n      0x11\n        /* \"#utility.yul\":11223:11224   */\n      0x04\n        /* \"#utility.yul\":11216:11231   */\n      mstore\n        /* \"#utility.yul\":11250:11254   */\n      0x24\n        /* \"#utility.yul\":11247:11248   */\n      0x00\n        /* \"#utility.yul\":11240:11255   */\n      revert\n        /* \"#utility.yul\":11267:11447   */\n    tag_182:\n        /* \"#utility.yul\":11315:11392   */\n      0x4e487b7100000000000000000000000000000000000000000000000000000000\n        /* \"#utility.yul\":11312:11313   */\n      0x00\n        /* \"#utility.yul\":11305:11393   */\n      mstore\n        /* \"#utility.yul\":11412:11416   */\n      0x41\n        /* \"#utility.yul\":11409:11410   */\n      0x04\n        /* \"#utility.yul\":11402:11417   */\n      mstore\n        /* \"#utility.yul\":11436:11440   */\n      0x24\n        /* \"#utility.yul\":11433:11434   */\n      0x00\n        /* \"#utility.yul\":11426:11441   */\n      revert\n        /* \"#utility.yul\":11453:11570   */\n    tag_87:\n        /* \"#utility.yul\":11562:11563   */\n      0x00\n        /* \"#utility.yul\":11559:11560   */\n      dup1\n        /* \"#utility.yul\":11552:11564   */\n      revert\n        /* \"#utility.yul\":11576:11693   */\n    tag_76:\n        /* \"#utility.yul\":11685:11686   */\n      0x00\n        /* \"#utility.yul\":11682:11683   */\n      dup1\n        /* \"#utility.yul\":11675:11687   */\n      revert\n        /* \"#utility.yul\":11699:11816   */\n    tag_99:\n        /* \"#utility.yul\":11808:11809   */\n      0x00\n        /* \"#utility.yul\":11805:11806   */\n      dup1\n        /* \"#utility.yul\":11798:11810   */\n      revert\n        /* \"#utility.yul\":11822:11939   */\n    tag_92:\n        /* \"#utility.yul\":11931:11932   */\n      0x00\n        /* \"#utility.yul\":11928:11929   */\n      dup1\n        /* \"#utility.yul\":11921:11933   */\n      revert\n        /* \"#utility.yul\":11945:12047   */\n    tag_184:\n        /* \"#utility.yul\":11986:11992   */\n      0x00\n        /* \"#utility.yul\":12037:12039   */\n      0x1f\n        /* \"#utility.yul\":12033:12040   */\n      not\n        /* \"#utility.yul\":12028:12030   */\n      0x1f\n        /* \"#utility.yul\":12021:12026   */\n      dup4\n        /* \"#utility.yul\":12017:12031   */\n      add\n        /* \"#utility.yul\":12013:12041   */\n      and\n        /* \"#utility.yul\":12003:12041   */\n      swap1\n      pop\n        /* \"#utility.yul\":11945:12047   */\n      swap2\n      swap1\n      pop\n      jump\t// out\n        /* \"#utility.yul\":12053:12221   */\n    tag_118:\n        /* \"#utility.yul\":12193:12213   */\n      0x7573657220616c72656164792061646465640000000000000000000000000000\n        /* \"#utility.yul\":12189:12190   */\n      0x00\n        /* \"#utility.yul\":12181:12187   */\n      dup3\n        /* \"#utility.yul\":12177:12191   */\n      add\n        /* \"#utility.yul\":12170:12214   */\n      mstore\n        /* \"#utility.yul\":12053:12221   */\n      pop\n      jump\t// out\n        /* \"#utility.yul\":12227:12404   */\n    tag_123:\n        /* \"#utility.yul\":12367:12396   */\n      0x6c6f67696e20636f756e74206973206c657373207468616e2031300000000000\n        /* \"#utility.yul\":12363:12364   */\n      0x00\n        /* \"#utility.yul\":12355:12361   */\n      dup3\n        /* \"#utility.yul\":12351:12365   */\n      add\n        /* \"#utility.yul\":12344:12397   */\n      mstore\n        /* \"#utility.yul\":12227:12404   */\n      pop\n      jump\t// out\n        /* \"#utility.yul\":12410:12581   */\n    tag_128:\n        /* \"#utility.yul\":12550:12573   */\n      0x70617373776f726420646f65736e74206d617463680000000000000000000000\n        /* \"#utility.yul\":12546:12547   */\n      0x00\n        /* \"#utility.yul\":12538:12544   */\n      dup3\n        /* \"#utility.yul\":12534:12548   */\n      add\n        /* \"#utility.yul\":12527:12574   */\n      mstore\n        /* \"#utility.yul\":12410:12581   */\n      pop\n      jump\t// out\n        /* \"#utility.yul\":12587:12751   */\n    tag_133:\n        /* \"#utility.yul\":12727:12743   */\n      0x506c65617365206c6f6720696e21000000000000000000000000000000000000\n        /* \"#utility.yul\":12723:12724   */\n      0x00\n        /* \"#utility.yul\":12715:12721   */\n      dup3\n        /* \"#utility.yul\":12711:12725   */\n      add\n        /* \"#utility.yul\":12704:12744   */\n      mstore\n        /* \"#utility.yul\":12587:12751   */\n      pop\n      jump\t// out\n        /* \"#utility.yul\":12757:12922   */\n    tag_138:\n        /* \"#utility.yul\":12897:12914   */\n      0x416c7265616479206c6f67206f75740000000000000000000000000000000000\n        /* \"#utility.yul\":12893:12894   */\n      0x00\n        /* \"#utility.yul\":12885:12891   */\n      dup3\n        /* \"#utility.yul\":12881:12895   */\n      add\n        /* \"#utility.yul\":12874:12915   */\n      mstore\n        /* \"#utility.yul\":12757:12922   */\n      pop\n      jump\t// out\n        /* \"#utility.yul\":12928:13096   */\n    tag_143:\n        /* \"#utility.yul\":13068:13088   */\n      0x616c7265616479206c6f67696e656420696e0000000000000000000000000000\n        /* \"#utility.yul\":13064:13065   */\n      0x00\n        /* \"#utility.yul\":13056:13062   */\n      dup3\n        /* \"#utility.yul\":13052:13066   */\n      add\n        /* \"#utility.yul\":13045:13089   */\n      mstore\n        /* \"#utility.yul\":12928:13096   */\n      pop\n      jump\t// out\n        /* \"#utility.yul\":13102:13261   */\n    tag_148:\n        /* \"#utility.yul\":13242:13253   */\n      0x6e6f74206f776e65720000000000000000000000000000000000000000000000\n        /* \"#utility.yul\":13238:13239   */\n      0x00\n        /* \"#utility.yul\":13230:13236   */\n      dup3\n        /* \"#utility.yul\":13226:13240   */\n      add\n        /* \"#utility.yul\":13219:13254   */\n      mstore\n        /* \"#utility.yul\":13102:13261   */\n      pop\n      jump\t// out\n        /* \"#utility.yul\":13267:13389   */\n    tag_82:\n        /* \"#utility.yul\":13340:13364   */\n      tag_225\n        /* \"#utility.yul\":13358:13363   */\n      dup2\n        /* \"#utility.yul\":13340:13364   */\n      tag_188\n      jump\t// in\n    tag_225:\n        /* \"#utility.yul\":13333:13338   */\n      dup2\n        /* \"#utility.yul\":13330:13365   */\n      eq\n        /* \"#utility.yul\":13320:13383   */\n      tag_226\n      jumpi\n        /* \"#utility.yul\":13379:13380   */\n      0x00\n        /* \"#utility.yul\":13376:13377   */\n      dup1\n        /* \"#utility.yul\":13369:13381   */\n      revert\n        /* \"#utility.yul\":13320:13383   */\n    tag_226:\n        /* \"#utility.yul\":13267:13389   */\n      pop\n      jump\t// out\n\n    auxdata: 0xa264697066735822122038770e0e4fd1f38c066f3d36b59743dc3a49a60b9f9f08d09e192d1713caee4064736f6c63430008070033\n}\n",
				"bytecode": {
					"linkReferences": {},
					"object": "60806040523480156200001157600080fd5b5060405162000f6938038062000f6983398181016040528101906200003791906200012b565b336000806101000a81548173ffffffffffffffffffffffffffffffffffffffff021916908373ffffffffffffffffffffffffffffffffffffffff160217905550806040516020016200008a9190620001b3565b604051602081830303815290604052805190602001206001819055505062000301565b6000620000c4620000be84620001f5565b620001cc565b905082815260208101848484011115620000e357620000e2620002e1565b5b620000f084828562000241565b509392505050565b600082601f83011262000110576200010f620002dc565b5b815162000122848260208601620000ad565b91505092915050565b600060208284031215620001445762000143620002eb565b5b600082015167ffffffffffffffff811115620001655762000164620002e6565b5b6200017384828501620000f8565b91505092915050565b600062000189826200022b565b62000195818562000236565b9350620001a781856020860162000241565b80840191505092915050565b6000620001c182846200017c565b915081905092915050565b6000620001d8620001eb565b9050620001e6828262000277565b919050565b6000604051905090565b600067ffffffffffffffff821115620002135762000212620002ad565b5b6200021e82620002f0565b9050602081019050919050565b600081519050919050565b600081905092915050565b60005b838110156200026157808201518184015260208101905062000244565b8381111562000271576000848401525b50505050565b6200028282620002f0565b810181811067ffffffffffffffff82111715620002a457620002a3620002ad565b5b80604052505050565b7f4e487b7100000000000000000000000000000000000000000000000000000000600052604160045260246000fd5b600080fd5b600080fd5b600080fd5b600080fd5b6000601f19601f8301169050919050565b610c5880620003116000396000f3fe608060405234801561001057600080fd5b50600436106100625760003560e01c80633a7d280c14610067578063421b2d8b146100975780634be422ae146100b357806392856185146100d1578063a87430ba146100ef578063d4d67be71461011f575b600080fd5b610081600480360381019061007c919061062e565b61013d565b60405161008e91906107d2565b60405180910390f35b6100b160048036038101906100ac9190610601565b610309565b005b6100bb6104d0565b6040516100c891906107d2565b60405180910390f35b6100d9610543565b6040516100e691906107d2565b60405180910390f35b61010960048036038101906101049190610601565b610556565b60405161011691906107d2565b60405180910390f35b610127610576565b60405161013491906108cd565b60405180910390f35b60008060009054906101000a900473ffffffffffffffffffffffffffffffffffffffff1673ffffffffffffffffffffffffffffffffffffffff163373ffffffffffffffffffffffffffffffffffffffff16146101ce576040517f08c379a00000000000000000000000000000000000000000000000000000000081526004016101c5906108ad565b60405180910390fd5b600360009054906101000a900460ff161561021e576040517f08c379a00000000000000000000000000000000000000000000000000000000081526004016102159061088d565b60405180910390fd5b600a60025410610263576040517f08c379a000000000000000000000000000000000000000000000000000000000815260040161025a9061080d565b60405180910390fd5b8160405160200161027491906107bb565b60405160208183030381529060405280519060200120600154146102cd576040517f08c379a00000000000000000000000000000000000000000000000000000000081526004016102c49061082d565b60405180910390fd5b600260008154809291906102e090610a20565b91905055506001600360006101000a81548160ff02191690831515021790555060019050919050565b60008054906101000a900473ffffffffffffffffffffffffffffffffffffffff1673ffffffffffffffffffffffffffffffffffffffff163373ffffffffffffffffffffffffffffffffffffffff1614610397576040517f08c379a000000000000000000000000000000000000000000000000000000000815260040161038e906108ad565b60405180910390fd5b600360009054906101000a900460ff166103e6576040517f08c379a00000000000000000000000000000000000000000000000000000000081526004016103dd9061084d565b60405180910390fd5b80600460008273ffffffffffffffffffffffffffffffffffffffff1673ffffffffffffffffffffffffffffffffffffffff16815260200190815260200160002060009054906101000a900460ff1615610474576040517f08c379a000000000000000000000000000000000000000000000000000000000815260040161046b906107ed565b60405180910390fd5b6001600460008473ffffffffffffffffffffffffffffffffffffffff1673ffffffffffffffffffffffffffffffffffffffff16815260200190815260200160002060006101000a81548160ff0219169083151502179055505050565b6000600360009054906101000a900460ff16610521576040517f08c379a00000000000000000000000000000000000000000000000000000000081526004016105189061086d565b60405180910390fd5b6000600360006101000a81548160ff0219169083151502179055506001905090565b600360009054906101000a900460ff1681565b60046020528060005260406000206000915054906101000a900460ff1681565b60025481565b600061058f61058a8461090d565b6108e8565b9050828152602081018484840111156105ab576105aa610acc565b5b6105b68482856109ad565b509392505050565b6000813590506105cd81610c0b565b92915050565b600082601f8301126105e8576105e7610ac7565b5b81356105f884826020860161057c565b91505092915050565b60006020828403121561061757610616610ad6565b5b6000610625848285016105be565b91505092915050565b60006020828403121561064457610643610ad6565b5b600082013567ffffffffffffffff81111561066257610661610ad1565b5b61066e848285016105d3565b91505092915050565b61068081610977565b82525050565b60006106918261093e565b61069b818561095a565b93506106ab8185602086016109bc565b80840191505092915050565b60006106c4601283610949565b91506106cf82610aec565b602082019050919050565b60006106e7601b83610949565b91506106f282610b15565b602082019050919050565b600061070a601583610949565b915061071582610b3e565b602082019050919050565b600061072d600e83610949565b915061073882610b67565b602082019050919050565b6000610750600f83610949565b915061075b82610b90565b602082019050919050565b6000610773601283610949565b915061077e82610bb9565b602082019050919050565b6000610796600983610949565b91506107a182610be2565b602082019050919050565b6107b5816109a3565b82525050565b60006107c78284610686565b915081905092915050565b60006020820190506107e76000830184610677565b92915050565b60006020820190508181036000830152610806816106b7565b9050919050565b60006020820190508181036000830152610826816106da565b9050919050565b60006020820190508181036000830152610846816106fd565b9050919050565b6000602082019050818103600083015261086681610720565b9050919050565b6000602082019050818103600083015261088681610743565b9050919050565b600060208201905081810360008301526108a681610766565b9050919050565b600060208201905081810360008301526108c681610789565b9050919050565b60006020820190506108e260008301846107ac565b92915050565b60006108f2610903565b90506108fe82826109ef565b919050565b6000604051905090565b600067ffffffffffffffff82111561092857610927610a98565b5b61093182610adb565b9050602081019050919050565b600081519050919050565b600082825260208201905092915050565b600081905092915050565b600061097082610983565b9050919050565b60008115159050919050565b600073ffffffffffffffffffffffffffffffffffffffff82169050919050565b6000819050919050565b82818337600083830152505050565b60005b838110156109da5780820151818401526020810190506109bf565b838111156109e9576000848401525b50505050565b6109f882610adb565b810181811067ffffffffffffffff82111715610a1757610a16610a98565b5b80604052505050565b6000610a2b826109a3565b91507fffffffffffffffffffffffffffffffffffffffffffffffffffffffffffffffff821415610a5e57610a5d610a69565b5b600182019050919050565b7f4e487b7100000000000000000000000000000000000000000000000000000000600052601160045260246000fd5b7f4e487b7100000000000000000000000000000000000000000000000000000000600052604160045260246000fd5b600080fd5b600080fd5b600080fd5b600080fd5b6000601f19601f8301169050919050565b7f7573657220616c72656164792061646465640000000000000000000000000000600082015250565b7f6c6f67696e20636f756e74206973206c657373207468616e2031300000000000600082015250565b7f70617373776f726420646f65736e74206d617463680000000000000000000000600082015250565b7f506c65617365206c6f6720696e21000000000000000000000000000000000000600082015250565b7f416c7265616479206c6f67206f75740000000000000000000000000000000000600082015250565b7f616c7265616479206c6f67696e656420696e0000000000000000000000000000600082015250565b7f6e6f74206f776e65720000000000000000000000000000000000000000000000600082015250565b610c1481610965565b8114610c1f57600080fd5b5056fea264697066735822122038770e0e4fd1f38c066f3d36b59743dc3a49a60b9f9f08d09e192d1713caee4064736f6c63430008070033",
					"opcodes": "PUSH1 0x80 PUSH1 0x40 MSTORE CALLVALUE DUP1 ISZERO PUSH3 0x11 JUMPI PUSH1 0x0 DUP1 REVERT JUMPDEST POP PUSH1 0x40 MLOAD PUSH3 0xF69 CODESIZE SUB DUP1 PUSH3 0xF69 DUP4 CODECOPY DUP2 DUP2 ADD PUSH1 0x40 MSTORE DUP2 ADD SWAP1 PUSH3 0x37 SWAP2 SWAP1 PUSH3 0x12B JUMP JUMPDEST CALLER PUSH1 0x0 DUP1 PUSH2 0x100 EXP DUP2 SLOAD DUP2 PUSH20 0xFFFFFFFFFFFFFFFFFFFFFFFFFFFFFFFFFFFFFFFF MUL NOT AND SWAP1 DUP4 PUSH20 0xFFFFFFFFFFFFFFFFFFFFFFFFFFFFFFFFFFFFFFFF AND MUL OR SWAP1 SSTORE POP DUP1 PUSH1 0x40 MLOAD PUSH1 0x20 ADD PUSH3 0x8A SWAP2 SWAP1 PUSH3 0x1B3 JUMP JUMPDEST PUSH1 0x40 MLOAD PUSH1 0x20 DUP2 DUP4 SUB SUB DUP2 MSTORE SWAP1 PUSH1 0x40 MSTORE DUP1 MLOAD SWAP1 PUSH1 0x20 ADD KECCAK256 PUSH1 0x1 DUP2 SWAP1 SSTORE POP POP PUSH3 0x301 JUMP JUMPDEST PUSH1 0x0 PUSH3 0xC4 PUSH3 0xBE DUP5 PUSH3 0x1F5 JUMP JUMPDEST PUSH3 0x1CC JUMP JUMPDEST SWAP1 POP DUP3 DUP2 MSTORE PUSH1 0x20 DUP2 ADD DUP5 DUP5 DUP5 ADD GT ISZERO PUSH3 0xE3 JUMPI PUSH3 0xE2 PUSH3 0x2E1 JUMP JUMPDEST JUMPDEST PUSH3 0xF0 DUP5 DUP3 DUP6 PUSH3 0x241 JUMP JUMPDEST POP SWAP4 SWAP3 POP POP POP JUMP JUMPDEST PUSH1 0x0 DUP3 PUSH1 0x1F DUP4 ADD SLT PUSH3 0x110 JUMPI PUSH3 0x10F PUSH3 0x2DC JUMP JUMPDEST JUMPDEST DUP2 MLOAD PUSH3 0x122 DUP5 DUP3 PUSH1 0x20 DUP7 ADD PUSH3 0xAD JUMP JUMPDEST SWAP2 POP POP SWAP3 SWAP2 POP POP JUMP JUMPDEST PUSH1 0x0 PUSH1 0x20 DUP3 DUP5 SUB SLT ISZERO PUSH3 0x144 JUMPI PUSH3 0x143 PUSH3 0x2EB JUMP JUMPDEST JUMPDEST PUSH1 0x0 DUP3 ADD MLOAD PUSH8 0xFFFFFFFFFFFFFFFF DUP2 GT ISZERO PUSH3 0x165 JUMPI PUSH3 0x164 PUSH3 0x2E6 JUMP JUMPDEST JUMPDEST PUSH3 0x173 DUP5 DUP3 DUP6 ADD PUSH3 0xF8 JUMP JUMPDEST SWAP2 POP POP SWAP3 SWAP2 POP POP JUMP JUMPDEST PUSH1 0x0 PUSH3 0x189 DUP3 PUSH3 0x22B JUMP JUMPDEST PUSH3 0x195 DUP2 DUP6 PUSH3 0x236 JUMP JUMPDEST SWAP4 POP PUSH3 0x1A7 DUP2 DUP6 PUSH1 0x20 DUP7 ADD PUSH3 0x241 JUMP JUMPDEST DUP1 DUP5 ADD SWAP2 POP POP SWAP3 SWAP2 POP POP JUMP JUMPDEST PUSH1 0x0 PUSH3 0x1C1 DUP3 DUP5 PUSH3 0x17C JUMP JUMPDEST SWAP2 POP DUP2 SWAP1 POP SWAP3 SWAP2 POP POP JUMP JUMPDEST PUSH1 0x0 PUSH3 0x1D8 PUSH3 0x1EB JUMP JUMPDEST SWAP1 POP PUSH3 0x1E6 DUP3 DUP3 PUSH3 0x277 JUMP JUMPDEST SWAP2 SWAP1 POP JUMP JUMPDEST PUSH1 0x0 PUSH1 0x40 MLOAD SWAP1 POP SWAP1 JUMP JUMPDEST PUSH1 0x0 PUSH8 0xFFFFFFFFFFFFFFFF DUP3 GT ISZERO PUSH3 0x213 JUMPI PUSH3 0x212 PUSH3 0x2AD JUMP JUMPDEST JUMPDEST PUSH3 0x21E DUP3 PUSH3 0x2F0 JUMP JUMPDEST SWAP1 POP PUSH1 0x20 DUP2 ADD SWAP1 POP SWAP2 SWAP1 POP JUMP JUMPDEST PUSH1 0x0 DUP2 MLOAD SWAP1 POP SWAP2 SWAP1 POP JUMP JUMPDEST PUSH1 0x0 DUP2 SWAP1 POP SWAP3 SWAP2 POP POP JUMP JUMPDEST PUSH1 0x0 JUMPDEST DUP4 DUP2 LT ISZERO PUSH3 0x261 JUMPI DUP1 DUP3 ADD MLOAD DUP2 DUP5 ADD MSTORE PUSH1 0x20 DUP2 ADD SWAP1 POP PUSH3 0x244 JUMP JUMPDEST DUP4 DUP2 GT ISZERO PUSH3 0x271 JUMPI PUSH1 0x0 DUP5 DUP5 ADD MSTORE JUMPDEST POP POP POP POP JUMP JUMPDEST PUSH3 0x282 DUP3 PUSH3 0x2F0 JUMP JUMPDEST DUP2 ADD DUP2 DUP2 LT PUSH8 0xFFFFFFFFFFFFFFFF DUP3 GT OR ISZERO PUSH3 0x2A4 JUMPI PUSH3 0x2A3 PUSH3 0x2AD JUMP JUMPDEST JUMPDEST DUP1 PUSH1 0x40 MSTORE POP POP POP JUMP JUMPDEST PUSH32 0x4E487B7100000000000000000000000000000000000000000000000000000000 PUSH1 0x0 MSTORE PUSH1 0x41 PUSH1 0x4 MSTORE PUSH1 0x24 PUSH1 0x0 REVERT JUMPDEST PUSH1 0x0 DUP1 REVERT JUMPDEST PUSH1 0x0 DUP1 REVERT JUMPDEST PUSH1 0x0 DUP1 REVERT JUMPDEST PUSH1 0x0 DUP1 REVERT JUMPDEST PUSH1 0x0 PUSH1 0x1F NOT PUSH1 0x1F DUP4 ADD AND SWAP1 POP SWAP2 SWAP1 POP JUMP JUMPDEST PUSH2 0xC58 DUP1 PUSH3 0x311 PUSH1 0x0 CODECOPY PUSH1 0x0 RETURN INVALID PUSH1 0x80 PUSH1 0x40 MSTORE CALLVALUE DUP1 ISZERO PUSH2 0x10 JUMPI PUSH1 0x0 DUP1 REVERT JUMPDEST POP PUSH1 0x4 CALLDATASIZE LT PUSH2 0x62 JUMPI PUSH1 0x0 CALLDATALOAD PUSH1 0xE0 SHR DUP1 PUSH4 0x3A7D280C EQ PUSH2 0x67 JUMPI DUP1 PUSH4 0x421B2D8B EQ PUSH2 0x97 JUMPI DUP1 PUSH4 0x4BE422AE EQ PUSH2 0xB3 JUMPI DUP1 PUSH4 0x92856185 EQ PUSH2 0xD1 JUMPI DUP1 PUSH4 0xA87430BA EQ PUSH2 0xEF JUMPI DUP1 PUSH4 0xD4D67BE7 EQ PUSH2 0x11F JUMPI JUMPDEST PUSH1 0x0 DUP1 REVERT JUMPDEST PUSH2 0x81 PUSH1 0x4 DUP1 CALLDATASIZE SUB DUP2 ADD SWAP1 PUSH2 0x7C SWAP2 SWAP1 PUSH2 0x62E JUMP JUMPDEST PUSH2 0x13D JUMP JUMPDEST PUSH1 0x40 MLOAD PUSH2 0x8E SWAP2 SWAP1 PUSH2 0x7D2 JUMP JUMPDEST PUSH1 0x40 MLOAD DUP1 SWAP2 SUB SWAP1 RETURN JUMPDEST PUSH2 0xB1 PUSH1 0x4 DUP1 CALLDATASIZE SUB DUP2 ADD SWAP1 PUSH2 0xAC SWAP2 SWAP1 PUSH2 0x601 JUMP JUMPDEST PUSH2 0x309 JUMP JUMPDEST STOP JUMPDEST PUSH2 0xBB PUSH2 0x4D0 JUMP JUMPDEST PUSH1 0x40 MLOAD PUSH2 0xC8 SWAP2 SWAP1 PUSH2 0x7D2 JUMP JUMPDEST PUSH1 0x40 MLOAD DUP1 SWAP2 SUB SWAP1 RETURN JUMPDEST PUSH2 0xD9 PUSH2 0x543 JUMP JUMPDEST PUSH1 0x40 MLOAD PUSH2 0xE6 SWAP2 SWAP1 PUSH2 0x7D2 JUMP JUMPDEST PUSH1 0x40 MLOAD DUP1 SWAP2 SUB SWAP1 RETURN JUMPDEST PUSH2 0x109 PUSH1 0x4 DUP1 CALLDATASIZE SUB DUP2 ADD SWAP1 PUSH2 0x104 SWAP2 SWAP1 PUSH2 0x601 JUMP JUMPDEST PUSH2 0x556 JUMP JUMPDEST PUSH1 0x40 MLOAD PUSH2 0x116 SWAP2 SWAP1 PUSH2 0x7D2 JUMP JUMPDEST PUSH1 0x40 MLOAD DUP1 SWAP2 SUB SWAP1 RETURN JUMPDEST PUSH2 0x127 PUSH2 0x576 JUMP JUMPDEST PUSH1 0x40 MLOAD PUSH2 0x134 SWAP2 SWAP1 PUSH2 0x8CD JUMP JUMPDEST PUSH1 0x40 MLOAD DUP1 SWAP2 SUB SWAP1 RETURN JUMPDEST PUSH1 0x0 DUP1 PUSH1 0x0 SWAP1 SLOAD SWAP1 PUSH2 0x100 EXP SWAP1 DIV PUSH20 0xFFFFFFFFFFFFFFFFFFFFFFFFFFFFFFFFFFFFFFFF AND PUSH20 0xFFFFFFFFFFFFFFFFFFFFFFFFFFFFFFFFFFFFFFFF AND CALLER PUSH20 0xFFFFFFFFFFFFFFFFFFFFFFFFFFFFFFFFFFFFFFFF AND EQ PUSH2 0x1CE JUMPI PUSH1 0x40 MLOAD PUSH32 0x8C379A000000000000000000000000000000000000000000000000000000000 DUP2 MSTORE PUSH1 0x4 ADD PUSH2 0x1C5 SWAP1 PUSH2 0x8AD JUMP JUMPDEST PUSH1 0x40 MLOAD DUP1 SWAP2 SUB SWAP1 REVERT JUMPDEST PUSH1 0x3 PUSH1 0x0 SWAP1 SLOAD SWAP1 PUSH2 0x100 EXP SWAP1 DIV PUSH1 0xFF AND ISZERO PUSH2 0x21E JUMPI PUSH1 0x40 MLOAD PUSH32 0x8C379A000000000000000000000000000000000000000000000000000000000 DUP2 MSTORE PUSH1 0x4 ADD PUSH2 0x215 SWAP1 PUSH2 0x88D JUMP JUMPDEST PUSH1 0x40 MLOAD DUP1 SWAP2 SUB SWAP1 REVERT JUMPDEST PUSH1 0xA PUSH1 0x2 SLOAD LT PUSH2 0x263 JUMPI PUSH1 0x40 MLOAD PUSH32 0x8C379A000000000000000000000000000000000000000000000000000000000 DUP2 MSTORE PUSH1 0x4 ADD PUSH2 0x25A SWAP1 PUSH2 0x80D JUMP JUMPDEST PUSH1 0x40 MLOAD DUP1 SWAP2 SUB SWAP1 REVERT JUMPDEST DUP2 PUSH1 0x40 MLOAD PUSH1 0x20 ADD PUSH2 0x274 SWAP2 SWAP1 PUSH2 0x7BB JUMP JUMPDEST PUSH1 0x40 MLOAD PUSH1 0x20 DUP2 DUP4 SUB SUB DUP2 MSTORE SWAP1 PUSH1 0x40 MSTORE DUP1 MLOAD SWAP1 PUSH1 0x20 ADD KECCAK256 PUSH1 0x1 SLOAD EQ PUSH2 0x2CD JUMPI PUSH1 0x40 MLOAD PUSH32 0x8C379A000000000000000000000000000000000000000000000000000000000 DUP2 MSTORE PUSH1 0x4 ADD PUSH2 0x2C4 SWAP1 PUSH2 0x82D JUMP JUMPDEST PUSH1 0x40 MLOAD DUP1 SWAP2 SUB SWAP1 REVERT JUMPDEST PUSH1 0x2 PUSH1 0x0 DUP2 SLOAD DUP1 SWAP3 SWAP2 SWAP1 PUSH2 0x2E0 SWAP1 PUSH2 0xA20 JUMP JUMPDEST SWAP2 SWAP1 POP SSTORE POP PUSH1 0x1 PUSH1 0x3 PUSH1 0x0 PUSH2 0x100 EXP DUP2 SLOAD DUP2 PUSH1 0xFF MUL NOT AND SWAP1 DUP4 ISZERO ISZERO MUL OR SWAP1 SSTORE POP PUSH1 0x1 SWAP1 POP SWAP2 SWAP1 POP JUMP JUMPDEST PUSH1 0x0 DUP1 SLOAD SWAP1 PUSH2 0x100 EXP SWAP1 DIV PUSH20 0xFFFFFFFFFFFFFFFFFFFFFFFFFFFFFFFFFFFFFFFF AND PUSH20 0xFFFFFFFFFFFFFFFFFFFFFFFFFFFFFFFFFFFFFFFF AND CALLER PUSH20 0xFFFFFFFFFFFFFFFFFFFFFFFFFFFFFFFFFFFFFFFF AND EQ PUSH2 0x397 JUMPI PUSH1 0x40 MLOAD PUSH32 0x8C379A000000000000000000000000000000000000000000000000000000000 DUP2 MSTORE PUSH1 0x4 ADD PUSH2 0x38E SWAP1 PUSH2 0x8AD JUMP JUMPDEST PUSH1 0x40 MLOAD DUP1 SWAP2 SUB SWAP1 REVERT JUMPDEST PUSH1 0x3 PUSH1 0x0 SWAP1 SLOAD SWAP1 PUSH2 0x100 EXP SWAP1 DIV PUSH1 0xFF AND PUSH2 0x3E6 JUMPI PUSH1 0x40 MLOAD PUSH32 0x8C379A000000000000000000000000000000000000000000000000000000000 DUP2 MSTORE PUSH1 0x4 ADD PUSH2 0x3DD SWAP1 PUSH2 0x84D JUMP JUMPDEST PUSH1 0x40 MLOAD DUP1 SWAP2 SUB SWAP1 REVERT JUMPDEST DUP1 PUSH1 0x4 PUSH1 0x0 DUP3 PUSH20 0xFFFFFFFFFFFFFFFFFFFFFFFFFFFFFFFFFFFFFFFF AND PUSH20 0xFFFFFFFFFFFFFFFFFFFFFFFFFFFFFFFFFFFFFFFF AND DUP2 MSTORE PUSH1 0x20 ADD SWAP1 DUP2 MSTORE PUSH1 0x20 ADD PUSH1 0x0 KECCAK256 PUSH1 0x0 SWAP1 SLOAD SWAP1 PUSH2 0x100 EXP SWAP1 DIV PUSH1 0xFF AND ISZERO PUSH2 0x474 JUMPI PUSH1 0x40 MLOAD PUSH32 0x8C379A000000000000000000000000000000000000000000000000000000000 DUP2 MSTORE PUSH1 0x4 ADD PUSH2 0x46B SWAP1 PUSH2 0x7ED JUMP JUMPDEST PUSH1 0x40 MLOAD DUP1 SWAP2 SUB SWAP1 REVERT JUMPDEST PUSH1 0x1 PUSH1 0x4 PUSH1 0x0 DUP5 PUSH20 0xFFFFFFFFFFFFFFFFFFFFFFFFFFFFFFFFFFFFFFFF AND PUSH20 0xFFFFFFFFFFFFFFFFFFFFFFFFFFFFFFFFFFFFFFFF AND DUP2 MSTORE PUSH1 0x20 ADD SWAP1 DUP2 MSTORE PUSH1 0x20 ADD PUSH1 0x0 KECCAK256 PUSH1 0x0 PUSH2 0x100 EXP DUP2 SLOAD DUP2 PUSH1 0xFF MUL NOT AND SWAP1 DUP4 ISZERO ISZERO MUL OR SWAP1 SSTORE POP POP POP JUMP JUMPDEST PUSH1 0x0 PUSH1 0x3 PUSH1 0x0 SWAP1 SLOAD SWAP1 PUSH2 0x100 EXP SWAP1 DIV PUSH1 0xFF AND PUSH2 0x521 JUMPI PUSH1 0x40 MLOAD PUSH32 0x8C379A000000000000000000000000000000000000000000000000000000000 DUP2 MSTORE PUSH1 0x4 ADD PUSH2 0x518 SWAP1 PUSH2 0x86D JUMP JUMPDEST PUSH1 0x40 MLOAD DUP1 SWAP2 SUB SWAP1 REVERT JUMPDEST PUSH1 0x0 PUSH1 0x3 PUSH1 0x0 PUSH2 0x100 EXP DUP2 SLOAD DUP2 PUSH1 0xFF MUL NOT AND SWAP1 DUP4 ISZERO ISZERO MUL OR SWAP1 SSTORE POP PUSH1 0x1 SWAP1 POP SWAP1 JUMP JUMPDEST PUSH1 0x3 PUSH1 0x0 SWAP1 SLOAD SWAP1 PUSH2 0x100 EXP SWAP1 DIV PUSH1 0xFF AND DUP2 JUMP JUMPDEST PUSH1 0x4 PUSH1 0x20 MSTORE DUP1 PUSH1 0x0 MSTORE PUSH1 0x40 PUSH1 0x0 KECCAK256 PUSH1 0x0 SWAP2 POP SLOAD SWAP1 PUSH2 0x100 EXP SWAP1 DIV PUSH1 0xFF AND DUP2 JUMP JUMPDEST PUSH1 0x2 SLOAD DUP2 JUMP JUMPDEST PUSH1 0x0 PUSH2 0x58F PUSH2 0x58A DUP5 PUSH2 0x90D JUMP JUMPDEST PUSH2 0x8E8 JUMP JUMPDEST SWAP1 POP DUP3 DUP2 MSTORE PUSH1 0x20 DUP2 ADD DUP5 DUP5 DUP5 ADD GT ISZERO PUSH2 0x5AB JUMPI PUSH2 0x5AA PUSH2 0xACC JUMP JUMPDEST JUMPDEST PUSH2 0x5B6 DUP5 DUP3 DUP6 PUSH2 0x9AD JUMP JUMPDEST POP SWAP4 SWAP3 POP POP POP JUMP JUMPDEST PUSH1 0x0 DUP2 CALLDATALOAD SWAP1 POP PUSH2 0x5CD DUP2 PUSH2 0xC0B JUMP JUMPDEST SWAP3 SWAP2 POP POP JUMP JUMPDEST PUSH1 0x0 DUP3 PUSH1 0x1F DUP4 ADD SLT PUSH2 0x5E8 JUMPI PUSH2 0x5E7 PUSH2 0xAC7 JUMP JUMPDEST JUMPDEST DUP2 CALLDATALOAD PUSH2 0x5F8 DUP5 DUP3 PUSH1 0x20 DUP7 ADD PUSH2 0x57C JUMP JUMPDEST SWAP2 POP POP SWAP3 SWAP2 POP POP JUMP JUMPDEST PUSH1 0x0 PUSH1 0x20 DUP3 DUP5 SUB SLT ISZERO PUSH2 0x617 JUMPI PUSH2 0x616 PUSH2 0xAD6 JUMP JUMPDEST JUMPDEST PUSH1 0x0 PUSH2 0x625 DUP5 DUP3 DUP6 ADD PUSH2 0x5BE JUMP JUMPDEST SWAP2 POP POP SWAP3 SWAP2 POP POP JUMP JUMPDEST PUSH1 0x0 PUSH1 0x20 DUP3 DUP5 SUB SLT ISZERO PUSH2 0x644 JUMPI PUSH2 0x643 PUSH2 0xAD6 JUMP JUMPDEST JUMPDEST PUSH1 0x0 DUP3 ADD CALLDATALOAD PUSH8 0xFFFFFFFFFFFFFFFF DUP2 GT ISZERO PUSH2 0x662 JUMPI PUSH2 0x661 PUSH2 0xAD1 JUMP JUMPDEST JUMPDEST PUSH2 0x66E DUP5 DUP3 DUP6 ADD PUSH2 0x5D3 JUMP JUMPDEST SWAP2 POP POP SWAP3 SWAP2 POP POP JUMP JUMPDEST PUSH2 0x680 DUP2 PUSH2 0x977 JUMP JUMPDEST DUP3 MSTORE POP POP JUMP JUMPDEST PUSH1 0x0 PUSH2 0x691 DUP3 PUSH2 0x93E JUMP JUMPDEST PUSH2 0x69B DUP2 DUP6 PUSH2 0x95A JUMP JUMPDEST SWAP4 POP PUSH2 0x6AB DUP2 DUP6 PUSH1 0x20 DUP7 ADD PUSH2 0x9BC JUMP JUMPDEST DUP1 DUP5 ADD SWAP2 POP POP SWAP3 SWAP2 POP POP JUMP JUMPDEST PUSH1 0x0 PUSH2 0x6C4 PUSH1 0x12 DUP4 PUSH2 0x949 JUMP JUMPDEST SWAP2 POP PUSH2 0x6CF DUP3 PUSH2 0xAEC JUMP JUMPDEST PUSH1 0x20 DUP3 ADD SWAP1 POP SWAP2 SWAP1 POP JUMP JUMPDEST PUSH1 0x0 PUSH2 0x6E7 PUSH1 0x1B DUP4 PUSH2 0x949 JUMP JUMPDEST SWAP2 POP PUSH2 0x6F2 DUP3 PUSH2 0xB15 JUMP JUMPDEST PUSH1 0x20 DUP3 ADD SWAP1 POP SWAP2 SWAP1 POP JUMP JUMPDEST PUSH1 0x0 PUSH2 0x70A PUSH1 0x15 DUP4 PUSH2 0x949 JUMP JUMPDEST SWAP2 POP PUSH2 0x715 DUP3 PUSH2 0xB3E JUMP JUMPDEST PUSH1 0x20 DUP3 ADD SWAP1 POP SWAP2 SWAP1 POP JUMP JUMPDEST PUSH1 0x0 PUSH2 0x72D PUSH1 0xE DUP4 PUSH2 0x949 JUMP JUMPDEST SWAP2 POP PUSH2 0x738 DUP3 PUSH2 0xB67 JUMP JUMPDEST PUSH1 0x20 DUP3 ADD SWAP1 POP SWAP2 SWAP1 POP JUMP JUMPDEST PUSH1 0x0 PUSH2 0x750 PUSH1 0xF DUP4 PUSH2 0x949 JUMP JUMPDEST SWAP2 POP PUSH2 0x75B DUP3 PUSH2 0xB90 JUMP JUMPDEST PUSH1 0x20 DUP3 ADD SWAP1 POP SWAP2 SWAP1 POP JUMP JUMPDEST PUSH1 0x0 PUSH2 0x773 PUSH1 0x12 DUP4 PUSH2 0x949 JUMP JUMPDEST SWAP2 POP PUSH2 0x77E DUP3 PUSH2 0xBB9 JUMP JUMPDEST PUSH1 0x20 DUP3 ADD SWAP1 POP SWAP2 SWAP1 POP JUMP JUMPDEST PUSH1 0x0 PUSH2 0x796 PUSH1 0x9 DUP4 PUSH2 0x949 JUMP JUMPDEST SWAP2 POP PUSH2 0x7A1 DUP3 PUSH2 0xBE2 JUMP JUMPDEST PUSH1 0x20 DUP3 ADD SWAP1 POP SWAP2 SWAP1 POP JUMP JUMPDEST PUSH2 0x7B5 DUP2 PUSH2 0x9A3 JUMP JUMPDEST DUP3 MSTORE POP POP JUMP JUMPDEST PUSH1 0x0 PUSH2 0x7C7 DUP3 DUP5 PUSH2 0x686 JUMP JUMPDEST SWAP2 POP DUP2 SWAP1 POP SWAP3 SWAP2 POP POP JUMP JUMPDEST PUSH1 0x0 PUSH1 0x20 DUP3 ADD SWAP1 POP PUSH2 0x7E7 PUSH1 0x0 DUP4 ADD DUP5 PUSH2 0x677 JUMP JUMPDEST SWAP3 SWAP2 POP POP JUMP JUMPDEST PUSH1 0x0 PUSH1 0x20 DUP3 ADD SWAP1 POP DUP2 DUP2 SUB PUSH1 0x0 DUP4 ADD MSTORE PUSH2 0x806 DUP2 PUSH2 0x6B7 JUMP JUMPDEST SWAP1 POP SWAP2 SWAP1 POP JUMP JUMPDEST PUSH1 0x0 PUSH1 0x20 DUP3 ADD SWAP1 POP DUP2 DUP2 SUB PUSH1 0x0 DUP4 ADD MSTORE PUSH2 0x826 DUP2 PUSH2 0x6DA JUMP JUMPDEST SWAP1 POP SWAP2 SWAP1 POP JUMP JUMPDEST PUSH1 0x0 PUSH1 0x20 DUP3 ADD SWAP1 POP DUP2 DUP2 SUB PUSH1 0x0 DUP4 ADD MSTORE PUSH2 0x846 DUP2 PUSH2 0x6FD JUMP JUMPDEST SWAP1 POP SWAP2 SWAP1 POP JUMP JUMPDEST PUSH1 0x0 PUSH1 0x20 DUP3 ADD SWAP1 POP DUP2 DUP2 SUB PUSH1 0x0 DUP4 ADD MSTORE PUSH2 0x866 DUP2 PUSH2 0x720 JUMP JUMPDEST SWAP1 POP SWAP2 SWAP1 POP JUMP JUMPDEST PUSH1 0x0 PUSH1 0x20 DUP3 ADD SWAP1 POP DUP2 DUP2 SUB PUSH1 0x0 DUP4 ADD MSTORE PUSH2 0x886 DUP2 PUSH2 0x743 JUMP JUMPDEST SWAP1 POP SWAP2 SWAP1 POP JUMP JUMPDEST PUSH1 0x0 PUSH1 0x20 DUP3 ADD SWAP1 POP DUP2 DUP2 SUB PUSH1 0x0 DUP4 ADD MSTORE PUSH2 0x8A6 DUP2 PUSH2 0x766 JUMP JUMPDEST SWAP1 POP SWAP2 SWAP1 POP JUMP JUMPDEST PUSH1 0x0 PUSH1 0x20 DUP3 ADD SWAP1 POP DUP2 DUP2 SUB PUSH1 0x0 DUP4 ADD MSTORE PUSH2 0x8C6 DUP2 PUSH2 0x789 JUMP JUMPDEST SWAP1 POP SWAP2 SWAP1 POP JUMP JUMPDEST PUSH1 0x0 PUSH1 0x20 DUP3 ADD SWAP1 POP PUSH2 0x8E2 PUSH1 0x0 DUP4 ADD DUP5 PUSH2 0x7AC JUMP JUMPDEST SWAP3 SWAP2 POP POP JUMP JUMPDEST PUSH1 0x0 PUSH2 0x8F2 PUSH2 0x903 JUMP JUMPDEST SWAP1 POP PUSH2 0x8FE DUP3 DUP3 PUSH2 0x9EF JUMP JUMPDEST SWAP2 SWAP1 POP JUMP JUMPDEST PUSH1 0x0 PUSH1 0x40 MLOAD SWAP1 POP SWAP1 JUMP JUMPDEST PUSH1 0x0 PUSH8 0xFFFFFFFFFFFFFFFF DUP3 GT ISZERO PUSH2 0x928 JUMPI PUSH2 0x927 PUSH2 0xA98 JUMP JUMPDEST JUMPDEST PUSH2 0x931 DUP3 PUSH2 0xADB JUMP JUMPDEST SWAP1 POP PUSH1 0x20 DUP2 ADD SWAP1 POP SWAP2 SWAP1 POP JUMP JUMPDEST PUSH1 0x0 DUP2 MLOAD SWAP1 POP SWAP2 SWAP1 POP JUMP JUMPDEST PUSH1 0x0 DUP3 DUP3 MSTORE PUSH1 0x20 DUP3 ADD SWAP1 POP SWAP3 SWAP2 POP POP JUMP JUMPDEST PUSH1 0x0 DUP2 SWAP1 POP SWAP3 SWAP2 POP POP JUMP JUMPDEST PUSH1 0x0 PUSH2 0x970 DUP3 PUSH2 0x983 JUMP JUMPDEST SWAP1 POP SWAP2 SWAP1 POP JUMP JUMPDEST PUSH1 0x0 DUP2 ISZERO ISZERO SWAP1 POP SWAP2 SWAP1 POP JUMP JUMPDEST PUSH1 0x0 PUSH20 0xFFFFFFFFFFFFFFFFFFFFFFFFFFFFFFFFFFFFFFFF DUP3 AND SWAP1 POP SWAP2 SWAP1 POP JUMP JUMPDEST PUSH1 0x0 DUP2 SWAP1 POP SWAP2 SWAP1 POP JUMP JUMPDEST DUP3 DUP2 DUP4 CALLDATACOPY PUSH1 0x0 DUP4 DUP4 ADD MSTORE POP POP POP JUMP JUMPDEST PUSH1 0x0 JUMPDEST DUP4 DUP2 LT ISZERO PUSH2 0x9DA JUMPI DUP1 DUP3 ADD MLOAD DUP2 DUP5 ADD MSTORE PUSH1 0x20 DUP2 ADD SWAP1 POP PUSH2 0x9BF JUMP JUMPDEST DUP4 DUP2 GT ISZERO PUSH2 0x9E9 JUMPI PUSH1 0x0 DUP5 DUP5 ADD MSTORE JUMPDEST POP POP POP POP JUMP JUMPDEST PUSH2 0x9F8 DUP3 PUSH2 0xADB JUMP JUMPDEST DUP2 ADD DUP2 DUP2 LT PUSH8 0xFFFFFFFFFFFFFFFF DUP3 GT OR ISZERO PUSH2 0xA17 JUMPI PUSH2 0xA16 PUSH2 0xA98 JUMP JUMPDEST JUMPDEST DUP1 PUSH1 0x40 MSTORE POP POP POP JUMP JUMPDEST PUSH1 0x0 PUSH2 0xA2B DUP3 PUSH2 0x9A3 JUMP JUMPDEST SWAP2 POP PUSH32 0xFFFFFFFFFFFFFFFFFFFFFFFFFFFFFFFFFFFFFFFFFFFFFFFFFFFFFFFFFFFFFFFF DUP3 EQ ISZERO PUSH2 0xA5E JUMPI PUSH2 0xA5D PUSH2 0xA69 JUMP JUMPDEST JUMPDEST PUSH1 0x1 DUP3 ADD SWAP1 POP SWAP2 SWAP1 POP JUMP JUMPDEST PUSH32 0x4E487B7100000000000000000000000000000000000000000000000000000000 PUSH1 0x0 MSTORE PUSH1 0x11 PUSH1 0x4 MSTORE PUSH1 0x24 PUSH1 0x0 REVERT JUMPDEST PUSH32 0x4E487B7100000000000000000000000000000000000000000000000000000000 PUSH1 0x0 MSTORE PUSH1 0x41 PUSH1 0x4 MSTORE PUSH1 0x24 PUSH1 0x0 REVERT JUMPDEST PUSH1 0x0 DUP1 REVERT JUMPDEST PUSH1 0x0 DUP1 REVERT JUMPDEST PUSH1 0x0 DUP1 REVERT JUMPDEST PUSH1 0x0 DUP1 REVERT JUMPDEST PUSH1 0x0 PUSH1 0x1F NOT PUSH1 0x1F DUP4 ADD AND SWAP1 POP SWAP2 SWAP1 POP JUMP JUMPDEST PUSH32 0x7573657220616C72656164792061646465640000000000000000000000000000 PUSH1 0x0 DUP3 ADD MSTORE POP JUMP JUMPDEST PUSH32 0x6C6F67696E20636F756E74206973206C657373207468616E2031300000000000 PUSH1 0x0 DUP3 ADD MSTORE POP JUMP JUMPDEST PUSH32 0x70617373776F726420646F65736E74206D617463680000000000000000000000 PUSH1 0x0 DUP3 ADD MSTORE POP JUMP JUMPDEST PUSH32 0x506C65617365206C6F6720696E21000000000000000000000000000000000000 PUSH1 0x0 DUP3 ADD MSTORE POP JUMP JUMPDEST PUSH32 0x416C7265616479206C6F67206F75740000000000000000000000000000000000 PUSH1 0x0 DUP3 ADD MSTORE POP JUMP JUMPDEST PUSH32 0x616C7265616479206C6F67696E656420696E0000000000000000000000000000 PUSH1 0x0 DUP3 ADD MSTORE POP JUMP JUMPDEST PUSH32 0x6E6F74206F776E65720000000000000000000000000000000000000000000000 PUSH1 0x0 DUP3 ADD MSTORE POP JUMP JUMPDEST PUSH2 0xC14 DUP2 PUSH2 0x965 JUMP JUMPDEST DUP2 EQ PUSH2 0xC1F JUMPI PUSH1 0x0 DUP1 REVERT JUMPDEST POP JUMP INVALID LOG2 PUSH5 0x6970667358 0x22 SLT KECCAK256 CODESIZE PUSH24 0xE0E4FD1F38C066F3D36B59743DC3A49A60B9F9F08D09E19 0x2D OR SGT 0xCA 0xEE BLOCKHASH PUSH5 0x736F6C6343 STOP ADDMOD SMOD STOP CALLER "
				},
				"gasEstimates": {
					"creation": {
						"codeDepositCost": "632000",
						"executionCost": "infinite",
						"totalCost": "infinite"
					},
					"external": {
						"addUser(address)": "31383",
						"isLogin()": "2515",
						"logOut()": "26785",
						"login(string)": "infinite",
						"loginCount()": "2517",
						"users(address)": "2911"
					}
				},
				"methodIdentifiers": {
					"addUser(address)": "421b2d8b",
					"isLogin()": "92856185",
					"logOut()": "4be422ae",
					"login(string)": "3a7d280c",
					"loginCount()": "d4d67be7",
					"users(address)": "a87430ba"
				}
			},
			"storageLayout": {
				"storage": [
					{
						"astId": 139,
						"contract": "contracts/Owner/datatype.sol:DataTypes",
						"label": "owner",
						"offset": 0,
						"slot": "0",
						"type": "t_address"
					},
					{
						"astId": 6,
						"contract": "contracts/Owner/datatype.sol:DataTypes",
						"label": "password",
						"offset": 0,
						"slot": "1",
						"type": "t_bytes32"
					},
					{
						"astId": 8,
						"contract": "contracts/Owner/datatype.sol:DataTypes",
						"label": "loginCount",
						"offset": 0,
						"slot": "2",
						"type": "t_uint256"
					},
					{
						"astId": 10,
						"contract": "contracts/Owner/datatype.sol:DataTypes",
						"label": "isLogin",
						"offset": 0,
						"slot": "3",
						"type": "t_bool"
					},
					{
						"astId": 14,
						"contract": "contracts/Owner/datatype.sol:DataTypes",
						"label": "users",
						"offset": 0,
						"slot": "4",
						"type": "t_mapping(t_address,t_bool)"
					}
				],
				"types": {
					"t_address": {
						"encoding": "inplace",
						"label": "address",
						"numberOfBytes": "20"
					},
					"t_bool": {
						"encoding": "inplace",
						"label": "bool",
						"numberOfBytes": "1"
					},
					"t_bytes32": {
						"encoding": "inplace",
						"label": "bytes32",
						"numberOfBytes": "32"
					},
					"t_mapping(t_address,t_bool)": {
						"encoding": "mapping",
						"key": "t_address",
						"label": "mapping(address => bool)",
						"numberOfBytes": "32",
						"value": "t_bool"
					},
					"t_uint256": {
						"encoding": "inplace",
						"label": "uint256",
						"numberOfBytes": "32"
					}
				}
			},
			"userdoc": {
				"kind": "user",
				"methods": {},
				"version": 1
			}
		}
	}
}