{
	"contracts/3_Ballot.sol": {
		"Ballot": {
			"abi": [
				{
					"inputs": [
						{
							"internalType": "bytes32[]",
							"name": "proposalNames",
							"type": "bytes32[]"
						}
					],
					"stateMutability": "nonpayable",
					"type": "constructor"
				},
				{
					"inputs": [],
					"name": "chairperson",
					"outputs": [
						{
							"internalType": "address",
							"name": "",
							"type": "address"
						}
					],
					"stateMutability": "view",
					"type": "function"
				},
				{
					"inputs": [
						{
							"internalType": "address",
							"name": "to",
							"type": "address"
						}
					],
					"name": "delegate",
					"outputs": [],
					"stateMutability": "nonpayable",
					"type": "function"
				},
				{
					"inputs": [
						{
							"internalType": "address",
							"name": "voter",
							"type": "address"
						}
					],
					"name": "giveRightToVote",
					"outputs": [],
					"stateMutability": "nonpayable",
					"type": "function"
				},
				{
					"inputs": [
						{
							"internalType": "uint256",
							"name": "",
							"type": "uint256"
						}
					],
					"name": "proposals",
					"outputs": [
						{
							"internalType": "bytes32",
							"name": "name",
							"type": "bytes32"
						},
						{
							"internalType": "uint256",
							"name": "voteCount",
							"type": "uint256"
						}
					],
					"stateMutability": "view",
					"type": "function"
				},
				{
					"inputs": [
						{
							"internalType": "uint256",
							"name": "proposal",
							"type": "uint256"
						}
					],
					"name": "vote",
					"outputs": [],
					"stateMutability": "nonpayable",
					"type": "function"
				},
				{
					"inputs": [
						{
							"internalType": "address",
							"name": "",
							"type": "address"
						}
					],
					"name": "voters",
					"outputs": [
						{
							"internalType": "uint256",
							"name": "weight",
							"type": "uint256"
						},
						{
							"internalType": "bool",
							"name": "voted",
							"type": "bool"
						},
						{
							"internalType": "address",
							"name": "delegate",
							"type": "address"
						},
						{
							"internalType": "uint256",
							"name": "vote",
							"type": "uint256"
						}
					],
					"stateMutability": "view",
					"type": "function"
				},
				{
					"inputs": [],
					"name": "winnerName",
					"outputs": [
						{
							"internalType": "bytes32",
							"name": "winnerName_",
							"type": "bytes32"
						}
					],
					"stateMutability": "view",
					"type": "function"
				},
				{
					"inputs": [],
					"name": "winningProposal",
					"outputs": [
						{
							"internalType": "uint256",
							"name": "winningProposal_",
							"type": "uint256"
						}
					],
					"stateMutability": "view",
					"type": "function"
				}
			],
			"devdoc": {
				"details": "Implements voting process along with vote delegation",
				"kind": "dev",
				"methods": {
					"constructor": {
						"details": "Create a new ballot to choose one of 'proposalNames'.",
						"params": {
							"proposalNames": "names of proposals"
						}
					},
					"delegate(address)": {
						"details": "Delegate your vote to the voter 'to'.",
						"params": {
							"to": "address to which vote is delegated"
						}
					},
					"giveRightToVote(address)": {
						"details": "Give 'voter' the right to vote on this ballot. May only be called by 'chairperson'.",
						"params": {
							"voter": "address of voter"
						}
					},
					"vote(uint256)": {
						"details": "Give your vote (including votes delegated to you) to proposal 'proposals[proposal].name'.",
						"params": {
							"proposal": "index of proposal in the proposals array"
						}
					},
					"winnerName()": {
						"details": "Calls winningProposal() function to get the index of the winner contained in the proposals array and then",
						"returns": {
							"winnerName_": "the name of the winner"
						}
					},
					"winningProposal()": {
						"details": "Computes the winning proposal taking all previous votes into account.",
						"returns": {
							"winningProposal_": "index of winning proposal in the proposals array"
						}
					}
				},
				"title": "Ballot",
				"version": 1
			},
			"evm": {
				"assembly": "    /* \"contracts/3_Ballot.sol\":157:4512  contract Ballot {... */\n  mstore(0x40, 0x80)\n    /* \"contracts/3_Ballot.sol\":955:1436  constructor(bytes32[] memory proposalNames) {... */\n  callvalue\n  dup1\n  iszero\n  tag_1\n  jumpi\n  0x00\n  dup1\n  revert\ntag_1:\n  pop\n  mload(0x40)\n  sub(codesize, bytecodeSize)\n  dup1\n  bytecodeSize\n  dup4\n  codecopy\n  dup2\n  add\n  0x40\n  dup2\n  swap1\n  mstore\n  tag_2\n  swap2\n  tag_3\n  jump\t// in\ntag_2:\n    /* \"contracts/3_Ballot.sol\":1009:1020  chairperson */\n  0x00\n    /* \"contracts/3_Ballot.sol\":1009:1033  chairperson = msg.sender */\n  dup1\n  sload\n  not(sub(exp(0x02, 0xa0), 0x01))\n  and\n    /* \"contracts/3_Ballot.sol\":1023:1033  msg.sender */\n  caller\n    /* \"contracts/3_Ballot.sol\":1009:1033  chairperson = msg.sender */\n  swap1\n  dup2\n  or\n  dup3\n  sstore\n    /* \"contracts/3_Ballot.sol\":1043:1062  voters[chairperson] */\n  dup2\n  mstore\n    /* \"contracts/3_Ballot.sol\":1009:1033  chairperson = msg.sender */\n  0x01\n    /* \"contracts/3_Ballot.sol\":1043:1062  voters[chairperson] */\n  0x20\n  dup2\n  swap1\n  mstore\n  0x40\n  dup3\n  keccak256\n    /* \"contracts/3_Ballot.sol\":1043:1073  voters[chairperson].weight = 1 */\n  sstore\n    /* \"contracts/3_Ballot.sol\":1084:1430  for (uint i = 0; i < proposalNames.length; i++) {... */\ntag_6:\n    /* \"contracts/3_Ballot.sol\":1105:1118  proposalNames */\n  dup2\n    /* \"contracts/3_Ballot.sol\":1105:1125  proposalNames.length */\n  mload\n    /* \"contracts/3_Ballot.sol\":1101:1102  i */\n  dup2\n    /* \"contracts/3_Ballot.sol\":1101:1125  i < proposalNames.length */\n  lt\n    /* \"contracts/3_Ballot.sol\":1084:1430  for (uint i = 0; i < proposalNames.length; i++) {... */\n  iszero\n  tag_7\n  jumpi\n    /* \"contracts/3_Ballot.sol\":1309:1318  proposals */\n  0x02\n    /* \"contracts/3_Ballot.sol\":1324:1418  Proposal({... */\n  mload(0x40)\n  dup1\n  0x40\n  add\n  0x40\n  mstore\n  dup1\n    /* \"contracts/3_Ballot.sol\":1357:1370  proposalNames */\n  dup5\n    /* \"contracts/3_Ballot.sol\":1371:1372  i */\n  dup5\n    /* \"contracts/3_Ballot.sol\":1357:1373  proposalNames[i] */\n  dup2\n  mload\n  dup2\n  lt\n  tag_10\n  jumpi\n  tag_10\n  tag_11\n  jump\t// in\ntag_10:\n  0x20\n  swap1\n  dup2\n  mul\n  swap2\n  swap1\n  swap2\n  add\n  dup2\n  add\n  mload\n    /* \"contracts/3_Ballot.sol\":1324:1418  Proposal({... */\n  dup3\n  mstore\n    /* \"contracts/3_Ballot.sol\":1402:1403  0 */\n  0x00\n    /* \"contracts/3_Ballot.sol\":1324:1418  Proposal({... */\n  swap2\n  dup2\n  add\n  dup3\n  swap1\n  mstore\n    /* \"contracts/3_Ballot.sol\":1309:1419  proposals.push(Proposal({... */\n  dup4\n  sload\n  0x01\n  dup2\n  dup2\n  add\n  dup7\n  sstore\n  swap5\n  dup4\n  mstore\n  swap2\n  dup2\n  swap1\n  keccak256\n  dup4\n  mload\n  0x02\n  swap1\n  swap4\n  mul\n  add\n  swap2\n  dup3\n  sstore\n  swap2\n  swap1\n  swap2\n  add\n  mload\n  swap2\n  add\n  sstore\n    /* \"contracts/3_Ballot.sol\":1127:1130  i++ */\n  dup1\n  tag_13\n  dup2\n  tag_14\n  jump\t// in\ntag_13:\n  swap2\n  pop\n  pop\n    /* \"contracts/3_Ballot.sol\":1084:1430  for (uint i = 0; i < proposalNames.length; i++) {... */\n  jump(tag_6)\ntag_7:\n  pop\n    /* \"contracts/3_Ballot.sol\":955:1436  constructor(bytes32[] memory proposalNames) {... */\n  pop\n    /* \"contracts/3_Ballot.sol\":157:4512  contract Ballot {... */\n  jump(tag_16)\n    /* \"#utility.yul\":14:1131   */\ntag_3:\n    /* \"#utility.yul\":109:115   */\n  0x00\n    /* \"#utility.yul\":140:142   */\n  0x20\n    /* \"#utility.yul\":183:185   */\n  dup1\n    /* \"#utility.yul\":171:180   */\n  dup4\n    /* \"#utility.yul\":162:169   */\n  dup6\n    /* \"#utility.yul\":158:181   */\n  sub\n    /* \"#utility.yul\":154:186   */\n  slt\n    /* \"#utility.yul\":151:203   */\n  iszero\n  tag_18\n  jumpi\n    /* \"#utility.yul\":199:200   */\n  0x00\n    /* \"#utility.yul\":196:197   */\n  dup1\n    /* \"#utility.yul\":189:201   */\n  revert\n    /* \"#utility.yul\":151:203   */\ntag_18:\n    /* \"#utility.yul\":232:241   */\n  dup3\n    /* \"#utility.yul\":226:242   */\n  mload\n    /* \"#utility.yul\":261:279   */\n  0xffffffffffffffff\n    /* \"#utility.yul\":302:304   */\n  dup1\n    /* \"#utility.yul\":294:300   */\n  dup3\n    /* \"#utility.yul\":291:305   */\n  gt\n    /* \"#utility.yul\":288:322   */\n  iszero\n  tag_19\n  jumpi\n    /* \"#utility.yul\":318:319   */\n  0x00\n    /* \"#utility.yul\":315:316   */\n  dup1\n    /* \"#utility.yul\":308:320   */\n  revert\n    /* \"#utility.yul\":288:322   */\ntag_19:\n    /* \"#utility.yul\":356:362   */\n  dup2\n    /* \"#utility.yul\":345:354   */\n  dup6\n    /* \"#utility.yul\":341:363   */\n  add\n    /* \"#utility.yul\":331:363   */\n  swap2\n  pop\n    /* \"#utility.yul\":401:408   */\n  dup6\n    /* \"#utility.yul\":394:398   */\n  0x1f\n    /* \"#utility.yul\":390:392   */\n  dup4\n    /* \"#utility.yul\":386:399   */\n  add\n    /* \"#utility.yul\":382:409   */\n  slt\n    /* \"#utility.yul\":372:427   */\n  tag_20\n  jumpi\n    /* \"#utility.yul\":423:424   */\n  0x00\n    /* \"#utility.yul\":420:421   */\n  dup1\n    /* \"#utility.yul\":413:425   */\n  revert\n    /* \"#utility.yul\":372:427   */\ntag_20:\n    /* \"#utility.yul\":452:454   */\n  dup2\n    /* \"#utility.yul\":446:455   */\n  mload\n    /* \"#utility.yul\":474:476   */\n  dup2\n    /* \"#utility.yul\":470:472   */\n  dup2\n    /* \"#utility.yul\":467:477   */\n  gt\n    /* \"#utility.yul\":464:500   */\n  iszero\n  tag_22\n  jumpi\n    /* \"#utility.yul\":480:498   */\n  tag_22\n  tag_23\n  jump\t// in\ntag_22:\n    /* \"#utility.yul\":527:529   */\n  dup4\n    /* \"#utility.yul\":523:525   */\n  dup2\n    /* \"#utility.yul\":519:530   */\n  mul\n    /* \"#utility.yul\":559:561   */\n  0x40\n    /* \"#utility.yul\":553:562   */\n  mload\n    /* \"#utility.yul\":622:624   */\n  0x1f\n    /* \"#utility.yul\":618:625   */\n  not\n    /* \"#utility.yul\":613:615   */\n  0x3f\n    /* \"#utility.yul\":609:611   */\n  dup4\n    /* \"#utility.yul\":605:616   */\n  add\n    /* \"#utility.yul\":601:626   */\n  and\n    /* \"#utility.yul\":593:599   */\n  dup2\n    /* \"#utility.yul\":589:627   */\n  add\n    /* \"#utility.yul\":677:683   */\n  dup2\n    /* \"#utility.yul\":665:675   */\n  dup2\n    /* \"#utility.yul\":662:684   */\n  lt\n    /* \"#utility.yul\":657:659   */\n  dup6\n    /* \"#utility.yul\":645:655   */\n  dup3\n    /* \"#utility.yul\":642:660   */\n  gt\n    /* \"#utility.yul\":639:685   */\n  or\n    /* \"#utility.yul\":636:708   */\n  iszero\n  tag_25\n  jumpi\n    /* \"#utility.yul\":688:706   */\n  tag_25\n  tag_23\n  jump\t// in\ntag_25:\n    /* \"#utility.yul\":724:726   */\n  0x40\n    /* \"#utility.yul\":717:739   */\n  mstore\n    /* \"#utility.yul\":774:792   */\n  dup3\n  dup2\n  mstore\n    /* \"#utility.yul\":808:823   */\n  dup6\n  dup2\n  add\n  swap4\n  pop\n    /* \"#utility.yul\":843:854   */\n  dup5\n  dup7\n  add\n    /* \"#utility.yul\":873:884   */\n  dup3\n  dup7\n  add\n    /* \"#utility.yul\":869:889   */\n  dup8\n  add\n    /* \"#utility.yul\":866:899   */\n  dup11\n  lt\n    /* \"#utility.yul\":863:916   */\n  iszero\n  tag_26\n  jumpi\n    /* \"#utility.yul\":912:913   */\n  0x00\n    /* \"#utility.yul\":909:910   */\n  dup1\n    /* \"#utility.yul\":902:914   */\n  revert\n    /* \"#utility.yul\":863:916   */\ntag_26:\n    /* \"#utility.yul\":934:935   */\n  0x00\n    /* \"#utility.yul\":925:935   */\n  swap6\n  pop\n    /* \"#utility.yul\":944:1100   */\ntag_27:\n    /* \"#utility.yul\":958:960   */\n  dup4\n    /* \"#utility.yul\":955:956   */\n  dup7\n    /* \"#utility.yul\":952:961   */\n  lt\n    /* \"#utility.yul\":944:1100   */\n  iszero\n  tag_29\n  jumpi\n    /* \"#utility.yul\":1015:1025   */\n  dup1\n  mload\n    /* \"#utility.yul\":1003:1026   */\n  dup6\n  mstore\n    /* \"#utility.yul\":976:977   */\n  0x01\n    /* \"#utility.yul\":969:978   */\n  swap6\n  swap1\n  swap6\n  add\n  swap5\n    /* \"#utility.yul\":1046:1058   */\n  swap4\n  dup7\n  add\n  swap4\n    /* \"#utility.yul\":1078:1090   */\n  dup7\n  add\n    /* \"#utility.yul\":944:1100   */\n  jump(tag_27)\ntag_29:\n  pop\n    /* \"#utility.yul\":1119:1125   */\n  swap9\n    /* \"#utility.yul\":14:1131   */\n  swap8\n  pop\n  pop\n  pop\n  pop\n  pop\n  pop\n  pop\n  pop\n  jump\t// out\n    /* \"#utility.yul\":1136:1425   */\ntag_14:\n    /* \"#utility.yul\":1175:1178   */\n  0x00\n  not(0x00)\n    /* \"#utility.yul\":1196:1213   */\n  dup3\n  eq\n    /* \"#utility.yul\":1193:1390   */\n  iszero\n  tag_31\n  jumpi\n    /* \"#utility.yul\":1246:1323   */\n  0x4e487b7100000000000000000000000000000000000000000000000000000000\n    /* \"#utility.yul\":1243:1244   */\n  0x00\n    /* \"#utility.yul\":1236:1324   */\n  mstore\n    /* \"#utility.yul\":1347:1351   */\n  0x11\n    /* \"#utility.yul\":1344:1345   */\n  0x04\n    /* \"#utility.yul\":1337:1352   */\n  mstore\n    /* \"#utility.yul\":1375:1379   */\n  0x24\n    /* \"#utility.yul\":1372:1373   */\n  0x00\n    /* \"#utility.yul\":1365:1380   */\n  revert\n    /* \"#utility.yul\":1193:1390   */\ntag_31:\n  pop\n    /* \"#utility.yul\":1417:1418   */\n  0x01\n    /* \"#utility.yul\":1406:1419   */\n  add\n  swap1\n    /* \"#utility.yul\":1136:1425   */\n  jump\t// out\n    /* \"#utility.yul\":1430:1614   */\ntag_11:\n    /* \"#utility.yul\":1482:1559   */\n  0x4e487b7100000000000000000000000000000000000000000000000000000000\n    /* \"#utility.yul\":1479:1480   */\n  0x00\n    /* \"#utility.yul\":1472:1560   */\n  mstore\n    /* \"#utility.yul\":1579:1583   */\n  0x32\n    /* \"#utility.yul\":1576:1577   */\n  0x04\n    /* \"#utility.yul\":1569:1584   */\n  mstore\n    /* \"#utility.yul\":1603:1607   */\n  0x24\n    /* \"#utility.yul\":1600:1601   */\n  0x00\n    /* \"#utility.yul\":1593:1608   */\n  revert\n    /* \"#utility.yul\":1619:1803   */\ntag_23:\n    /* \"#utility.yul\":1671:1748   */\n  0x4e487b7100000000000000000000000000000000000000000000000000000000\n    /* \"#utility.yul\":1668:1669   */\n  0x00\n    /* \"#utility.yul\":1661:1749   */\n  mstore\n    /* \"#utility.yul\":1768:1772   */\n  0x41\n    /* \"#utility.yul\":1765:1766   */\n  0x04\n    /* \"#utility.yul\":1758:1773   */\n  mstore\n    /* \"#utility.yul\":1792:1796   */\n  0x24\n    /* \"#utility.yul\":1789:1790   */\n  0x00\n    /* \"#utility.yul\":1782:1797   */\n  revert\n    /* \"#utility.yul\":1619:1803   */\ntag_16:\n    /* \"contracts/3_Ballot.sol\":157:4512  contract Ballot {... */\n  dataSize(sub_0)\n  dup1\n  dataOffset(sub_0)\n  0x00\n  codecopy\n  0x00\n  return\nstop\n\nsub_0: assembly {\n        /* \"contracts/3_Ballot.sol\":157:4512  contract Ballot {... */\n      mstore(0x40, 0x80)\n      callvalue\n      dup1\n      iszero\n      tag_1\n      jumpi\n      0x00\n      dup1\n      revert\n    tag_1:\n      pop\n      jumpi(tag_2, lt(calldatasize, 0x04))\n      calldataload(0x00)\n      0x0100000000000000000000000000000000000000000000000000000000\n      swap1\n      div\n      dup1\n      0x609ff1bd\n      gt\n      tag_11\n      jumpi\n      dup1\n      0x609ff1bd\n      eq\n      tag_7\n      jumpi\n      dup1\n      0x9e7b8d61\n      eq\n      tag_8\n      jumpi\n      dup1\n      0xa3ec138d\n      eq\n      tag_9\n      jumpi\n      dup1\n      0xe2ba53f0\n      eq\n      tag_10\n      jumpi\n      0x00\n      dup1\n      revert\n    tag_11:\n      dup1\n      0x0121b93f\n      eq\n      tag_3\n      jumpi\n      dup1\n      0x013cf08b\n      eq\n      tag_4\n      jumpi\n      dup1\n      0x2e4176cf\n      eq\n      tag_5\n      jumpi\n      dup1\n      0x5c19a95c\n      eq\n      tag_6\n      jumpi\n    tag_2:\n      0x00\n      dup1\n      revert\n        /* \"contracts/3_Ballot.sol\":3166:3624  function vote(uint proposal) public {... */\n    tag_3:\n      tag_12\n      tag_13\n      calldatasize\n      0x04\n      tag_14\n      jump\t// in\n    tag_13:\n      tag_15\n      jump\t// in\n    tag_12:\n      stop\n        /* \"contracts/3_Ballot.sol\":791:818  Proposal[] public proposals */\n    tag_4:\n      tag_16\n      tag_17\n      calldatasize\n      0x04\n      tag_14\n      jump\t// in\n    tag_17:\n      tag_18\n      jump\t// in\n    tag_16:\n      0x40\n      dup1\n      mload\n        /* \"#utility.yul\":1100:1125   */\n      swap3\n      dup4\n      mstore\n        /* \"#utility.yul\":1156:1158   */\n      0x20\n        /* \"#utility.yul\":1141:1159   */\n      dup4\n      add\n        /* \"#utility.yul\":1134:1168   */\n      swap2\n      swap1\n      swap2\n      mstore\n        /* \"#utility.yul\":1073:1091   */\n      add\n        /* \"contracts/3_Ballot.sol\":791:818  Proposal[] public proposals */\n    tag_19:\n      mload(0x40)\n      dup1\n      swap2\n      sub\n      swap1\n      return\n        /* \"contracts/3_Ballot.sol\":712:738  address public chairperson */\n    tag_5:\n      sload(0x00)\n      tag_21\n      swap1\n      sub(exp(0x02, 0xa0), 0x01)\n      and\n      dup2\n      jump\n    tag_21:\n      mload(0x40)\n      sub(exp(0x02, 0xa0), 0x01)\n        /* \"#utility.yul\":677:732   */\n      swap1\n      swap2\n      and\n        /* \"#utility.yul\":659:733   */\n      dup2\n      mstore\n        /* \"#utility.yul\":647:649   */\n      0x20\n        /* \"#utility.yul\":632:650   */\n      add\n        /* \"contracts/3_Ballot.sol\":712:738  address public chairperson */\n      tag_19\n        /* \"#utility.yul\":513:739   */\n      jump\n        /* \"contracts/3_Ballot.sol\":2071:2978  function delegate(address to) public {... */\n    tag_6:\n      tag_12\n      tag_26\n      calldatasize\n      0x04\n      tag_27\n      jump\t// in\n    tag_26:\n      tag_28\n      jump\t// in\n        /* \"contracts/3_Ballot.sol\":3810:4175  function winningProposal() public view... */\n    tag_7:\n      tag_29\n      tag_30\n      jump\t// in\n    tag_29:\n      mload(0x40)\n        /* \"#utility.yul\":890:915   */\n      swap1\n      dup2\n      mstore\n        /* \"#utility.yul\":878:880   */\n      0x20\n        /* \"#utility.yul\":863:881   */\n      add\n        /* \"contracts/3_Ballot.sol\":3810:4175  function winningProposal() public view... */\n      tag_19\n        /* \"#utility.yul\":744:921   */\n      jump\n        /* \"contracts/3_Ballot.sol\":1592:1947  function giveRightToVote(address voter) public {... */\n    tag_8:\n      tag_12\n      tag_34\n      calldatasize\n      0x04\n      tag_27\n      jump\t// in\n    tag_34:\n      tag_35\n      jump\t// in\n        /* \"contracts/3_Ballot.sol\":745:784  mapping(address => Voter) public voters */\n    tag_9:\n      tag_36\n      tag_37\n      calldatasize\n      0x04\n      tag_27\n      jump\t// in\n    tag_37:\n      0x01\n      0x20\n      dup2\n      swap1\n      mstore\n      0x00\n      swap2\n      dup3\n      mstore\n      0x40\n      swap1\n      swap2\n      keccak256\n      dup1\n      sload\n      swap2\n      dup2\n      add\n      sload\n      0x02\n      swap1\n      swap2\n      add\n      sload\n      0xff\n      dup3\n      and\n      swap2\n      0x0100\n      swap1\n      div\n      sub(exp(0x02, 0xa0), 0x01)\n      and\n      swap1\n      dup5\n      jump\n    tag_36:\n      mload(0x40)\n      tag_19\n      swap5\n      swap4\n      swap3\n      swap2\n      swap1\n        /* \"#utility.yul\":4100:4125   */\n      swap4\n      dup5\n      mstore\n        /* \"#utility.yul\":4168:4182   */\n      swap2\n      iszero\n        /* \"#utility.yul\":4161:4183   */\n      iszero\n        /* \"#utility.yul\":4156:4158   */\n      0x20\n        /* \"#utility.yul\":4141:4159   */\n      dup5\n      add\n        /* \"#utility.yul\":4134:4184   */\n      mstore\n      sub(exp(0x02, 0xa0), 0x01)\n        /* \"#utility.yul\":4220:4275   */\n      and\n        /* \"#utility.yul\":4215:4217   */\n      0x40\n        /* \"#utility.yul\":4200:4218   */\n      dup4\n      add\n        /* \"#utility.yul\":4193:4276   */\n      mstore\n        /* \"#utility.yul\":4307:4309   */\n      0x60\n        /* \"#utility.yul\":4292:4310   */\n      dup3\n      add\n        /* \"#utility.yul\":4285:4319   */\n      mstore\n        /* \"#utility.yul\":4087:4090   */\n      0x80\n        /* \"#utility.yul\":4072:4091   */\n      add\n      swap1\n        /* \"#utility.yul\":3875:4325   */\n      jump\n        /* \"contracts/3_Ballot.sol\":4366:4510  function winnerName() public view... */\n    tag_10:\n      tag_29\n      tag_42\n      jump\t// in\n        /* \"contracts/3_Ballot.sol\":3166:3624  function vote(uint proposal) public {... */\n    tag_15:\n        /* \"contracts/3_Ballot.sol\":3242:3252  msg.sender */\n      caller\n        /* \"contracts/3_Ballot.sol\":3212:3232  Voter storage sender */\n      0x00\n        /* \"contracts/3_Ballot.sol\":3235:3253  voters[msg.sender] */\n      swap1\n      dup2\n      mstore\n        /* \"contracts/3_Ballot.sol\":3235:3241  voters */\n      0x01\n        /* \"contracts/3_Ballot.sol\":3235:3253  voters[msg.sender] */\n      0x20\n      mstore\n      0x40\n      swap1\n      keccak256\n        /* \"contracts/3_Ballot.sol\":3271:3284  sender.weight */\n      dup1\n      sload\n        /* \"contracts/3_Ballot.sol\":3263:3314  require(sender.weight != 0, \"Has no right to vote\") */\n      tag_46\n      jumpi\n      mload(0x40)\n      mul(0x461bcd, exp(0x02, 0xe5))\n      dup2\n      mstore\n        /* \"#utility.yul\":1381:1383   */\n      0x20\n        /* \"contracts/3_Ballot.sol\":3263:3314  require(sender.weight != 0, \"Has no right to vote\") */\n      0x04\n      dup3\n      add\n        /* \"#utility.yul\":1363:1384   */\n      mstore\n        /* \"#utility.yul\":1420:1422   */\n      0x14\n        /* \"#utility.yul\":1400:1418   */\n      0x24\n      dup3\n      add\n        /* \"#utility.yul\":1393:1423   */\n      mstore\n        /* \"#utility.yul\":1459:1481   */\n      0x486173206e6f20726967687420746f20766f7465000000000000000000000000\n        /* \"#utility.yul\":1439:1457   */\n      0x44\n      dup3\n      add\n        /* \"#utility.yul\":1432:1482   */\n      mstore\n        /* \"#utility.yul\":1499:1517   */\n      0x64\n      add\n        /* \"contracts/3_Ballot.sol\":3263:3314  require(sender.weight != 0, \"Has no right to vote\") */\n    tag_47:\n      mload(0x40)\n      dup1\n      swap2\n      sub\n      swap1\n      revert\n    tag_46:\n        /* \"contracts/3_Ballot.sol\":3333:3345  sender.voted */\n      0x01\n      dup2\n      add\n      sload\n      0xff\n      and\n        /* \"contracts/3_Ballot.sol\":3332:3345  !sender.voted */\n      iszero\n        /* \"contracts/3_Ballot.sol\":3324:3364  require(!sender.voted, \"Already voted.\") */\n      tag_49\n      jumpi\n      mload(0x40)\n      mul(0x461bcd, exp(0x02, 0xe5))\n      dup2\n      mstore\n        /* \"#utility.yul\":1730:1732   */\n      0x20\n        /* \"contracts/3_Ballot.sol\":3324:3364  require(!sender.voted, \"Already voted.\") */\n      0x04\n      dup3\n      add\n        /* \"#utility.yul\":1712:1733   */\n      mstore\n        /* \"#utility.yul\":1769:1771   */\n      0x0e\n        /* \"#utility.yul\":1749:1767   */\n      0x24\n      dup3\n      add\n        /* \"#utility.yul\":1742:1772   */\n      mstore\n        /* \"#utility.yul\":1808:1824   */\n      0x416c726561647920766f7465642e000000000000000000000000000000000000\n        /* \"#utility.yul\":1788:1806   */\n      0x44\n      dup3\n      add\n        /* \"#utility.yul\":1781:1825   */\n      mstore\n        /* \"#utility.yul\":1842:1860   */\n      0x64\n      add\n        /* \"contracts/3_Ballot.sol\":3324:3364  require(!sender.voted, \"Already voted.\") */\n      tag_47\n        /* \"#utility.yul\":1528:1866   */\n      jump\n        /* \"contracts/3_Ballot.sol\":3324:3364  require(!sender.voted, \"Already voted.\") */\n    tag_49:\n        /* \"contracts/3_Ballot.sol\":3389:3393  true */\n      0x01\n        /* \"contracts/3_Ballot.sol\":3374:3386  sender.voted */\n      dup2\n      dup2\n      add\n        /* \"contracts/3_Ballot.sol\":3374:3393  sender.voted = true */\n      dup1\n      sload\n      not(0xff)\n      and\n      swap1\n      swap2\n      or\n      swap1\n      sstore\n        /* \"contracts/3_Ballot.sol\":3403:3414  sender.vote */\n      0x02\n      dup1\n      dup3\n      add\n        /* \"contracts/3_Ballot.sol\":3403:3425  sender.vote = proposal */\n      dup4\n      swap1\n      sstore\n        /* \"contracts/3_Ballot.sol\":3604:3617  sender.weight */\n      dup2\n      sload\n        /* \"contracts/3_Ballot.sol\":3571:3590  proposals[proposal] */\n      dup2\n      sload\n        /* \"contracts/3_Ballot.sol\":3604:3617  sender.weight */\n      swap1\n      swap2\n        /* \"contracts/3_Ballot.sol\":3403:3414  sender.vote */\n      swap1\n        /* \"contracts/3_Ballot.sol\":3417:3425  proposal */\n      dup5\n      swap1\n        /* \"contracts/3_Ballot.sol\":3571:3590  proposals[proposal] */\n      dup2\n      lt\n      tag_53\n      jumpi\n      tag_53\n      tag_54\n      jump\t// in\n    tag_53:\n      swap1\n      0x00\n      mstore\n      keccak256(0x00, 0x20)\n      swap1\n      0x02\n      mul\n      add\n        /* \"contracts/3_Ballot.sol\":3571:3600  proposals[proposal].voteCount */\n      0x01\n      add\n      0x00\n        /* \"contracts/3_Ballot.sol\":3571:3617  proposals[proposal].voteCount += sender.weight */\n      dup3\n      dup3\n      sload\n      tag_56\n      swap2\n      swap1\n      tag_57\n      jump\t// in\n    tag_56:\n      swap1\n      swap2\n      sstore\n      pop\n      pop\n      pop\n      pop\n        /* \"contracts/3_Ballot.sol\":3166:3624  function vote(uint proposal) public {... */\n      jump\t// out\n        /* \"contracts/3_Ballot.sol\":791:818  Proposal[] public proposals */\n    tag_18:\n      0x02\n      dup2\n      dup2\n      sload\n      dup2\n      lt\n      tag_58\n      jumpi\n      0x00\n      dup1\n      revert\n    tag_58:\n      0x00\n      swap2\n      dup3\n      mstore\n      0x20\n      swap1\n      swap2\n      keccak256\n      0x02\n      swap1\n      swap2\n      mul\n      add\n      dup1\n      sload\n      0x01\n      swap1\n      swap2\n      add\n      sload\n      swap1\n      swap2\n      pop\n      dup3\n      jump\t// out\n        /* \"contracts/3_Ballot.sol\":2071:2978  function delegate(address to) public {... */\n    tag_28:\n        /* \"contracts/3_Ballot.sol\":2148:2158  msg.sender */\n      caller\n        /* \"contracts/3_Ballot.sol\":2118:2138  Voter storage sender */\n      0x00\n        /* \"contracts/3_Ballot.sol\":2141:2159  voters[msg.sender] */\n      swap1\n      dup2\n      mstore\n        /* \"contracts/3_Ballot.sol\":2141:2147  voters */\n      0x01\n        /* \"contracts/3_Ballot.sol\":2141:2159  voters[msg.sender] */\n      0x20\n      dup2\n      swap1\n      mstore\n      0x40\n      swap1\n      swap2\n      keccak256\n        /* \"contracts/3_Ballot.sol\":2178:2190  sender.voted */\n      swap1\n      dup2\n      add\n      sload\n      0xff\n      and\n        /* \"contracts/3_Ballot.sol\":2177:2190  !sender.voted */\n      iszero\n        /* \"contracts/3_Ballot.sol\":2169:2213  require(!sender.voted, \"You already voted.\") */\n      tag_61\n      jumpi\n      mload(0x40)\n      mul(0x461bcd, exp(0x02, 0xe5))\n      dup2\n      mstore\n        /* \"#utility.yul\":2073:2075   */\n      0x20\n        /* \"contracts/3_Ballot.sol\":2169:2213  require(!sender.voted, \"You already voted.\") */\n      0x04\n      dup3\n      add\n        /* \"#utility.yul\":2055:2076   */\n      mstore\n        /* \"#utility.yul\":2112:2114   */\n      0x12\n        /* \"#utility.yul\":2092:2110   */\n      0x24\n      dup3\n      add\n        /* \"#utility.yul\":2085:2115   */\n      mstore\n        /* \"#utility.yul\":2151:2171   */\n      0x596f7520616c726561647920766f7465642e0000000000000000000000000000\n        /* \"#utility.yul\":2131:2149   */\n      0x44\n      dup3\n      add\n        /* \"#utility.yul\":2124:2172   */\n      mstore\n        /* \"#utility.yul\":2189:2207   */\n      0x64\n      add\n        /* \"contracts/3_Ballot.sol\":2169:2213  require(!sender.voted, \"You already voted.\") */\n      tag_47\n        /* \"#utility.yul\":1871:2213   */\n      jump\n        /* \"contracts/3_Ballot.sol\":2169:2213  require(!sender.voted, \"You already voted.\") */\n    tag_61:\n      sub(exp(0x02, 0xa0), 0x01)\n        /* \"contracts/3_Ballot.sol\":2231:2247  to != msg.sender */\n      dup3\n      and\n        /* \"contracts/3_Ballot.sol\":2237:2247  msg.sender */\n      caller\n        /* \"contracts/3_Ballot.sol\":2231:2247  to != msg.sender */\n      eq\n      iszero\n        /* \"contracts/3_Ballot.sol\":2223:2282  require(to != msg.sender, \"Self-delegation is disallowed.\") */\n      tag_64\n      jumpi\n      mload(0x40)\n      mul(0x461bcd, exp(0x02, 0xe5))\n      dup2\n      mstore\n        /* \"#utility.yul\":3536:3538   */\n      0x20\n        /* \"contracts/3_Ballot.sol\":2223:2282  require(to != msg.sender, \"Self-delegation is disallowed.\") */\n      0x04\n      dup3\n      add\n        /* \"#utility.yul\":3518:3539   */\n      mstore\n        /* \"#utility.yul\":3575:3577   */\n      0x1e\n        /* \"#utility.yul\":3555:3573   */\n      0x24\n      dup3\n      add\n        /* \"#utility.yul\":3548:3578   */\n      mstore\n        /* \"#utility.yul\":3614:3646   */\n      0x53656c662d64656c65676174696f6e20697320646973616c6c6f7765642e0000\n        /* \"#utility.yul\":3594:3612   */\n      0x44\n      dup3\n      add\n        /* \"#utility.yul\":3587:3647   */\n      mstore\n        /* \"#utility.yul\":3664:3682   */\n      0x64\n      add\n        /* \"contracts/3_Ballot.sol\":2223:2282  require(to != msg.sender, \"Self-delegation is disallowed.\") */\n      tag_47\n        /* \"#utility.yul\":3334:3688   */\n      jump\n        /* \"contracts/3_Ballot.sol\":2223:2282  require(to != msg.sender, \"Self-delegation is disallowed.\") */\n    tag_64:\n      sub(exp(0x02, 0xa0), 0x01)\n        /* \"contracts/3_Ballot.sol\":2300:2310  voters[to] */\n      dup3\n      dup2\n      and\n        /* \"contracts/3_Ballot.sol\":2331:2332  0 */\n      0x00\n        /* \"contracts/3_Ballot.sol\":2300:2310  voters[to] */\n      swap1\n      dup2\n      mstore\n        /* \"contracts/3_Ballot.sol\":2300:2306  voters */\n      0x01\n        /* \"contracts/3_Ballot.sol\":2300:2310  voters[to] */\n      0x20\n      dup2\n      swap1\n      mstore\n      0x40\n      swap1\n      swap2\n      keccak256\n        /* \"contracts/3_Ballot.sol\":2300:2319  voters[to].delegate */\n      add\n      sload\n      0x0100\n      swap1\n      div\n      and\n        /* \"contracts/3_Ballot.sol\":2300:2333  voters[to].delegate != address(0) */\n      iszero\n        /* \"contracts/3_Ballot.sol\":2293:2516  while (voters[to].delegate != address(0)) {... */\n      tag_68\n      jumpi\n      sub(exp(0x02, 0xa0), 0x01)\n        /* \"contracts/3_Ballot.sol\":2354:2364  voters[to] */\n      swap2\n      dup3\n      and\n      0x00\n      swap1\n      dup2\n      mstore\n        /* \"contracts/3_Ballot.sol\":2354:2360  voters */\n      0x01\n        /* \"contracts/3_Ballot.sol\":2354:2364  voters[to] */\n      0x20\n      dup2\n      swap1\n      mstore\n      0x40\n      swap1\n      swap2\n      keccak256\n        /* \"contracts/3_Ballot.sol\":2354:2373  voters[to].delegate */\n      add\n      sload\n      0x0100\n      swap1\n      div\n      swap1\n      swap2\n      and\n      swap1\n        /* \"contracts/3_Ballot.sol\":2465:2475  msg.sender */\n      caller\n        /* \"contracts/3_Ballot.sol\":2459:2475  to != msg.sender */\n      dup3\n      eq\n      iszero\n        /* \"contracts/3_Ballot.sol\":2451:2505  require(to != msg.sender, \"Found loop in delegation.\") */\n      tag_69\n      jumpi\n      mload(0x40)\n      mul(0x461bcd, exp(0x02, 0xe5))\n      dup2\n      mstore\n        /* \"#utility.yul\":2829:2831   */\n      0x20\n        /* \"contracts/3_Ballot.sol\":2451:2505  require(to != msg.sender, \"Found loop in delegation.\") */\n      0x04\n      dup3\n      add\n        /* \"#utility.yul\":2811:2832   */\n      mstore\n        /* \"#utility.yul\":2868:2870   */\n      0x19\n        /* \"#utility.yul\":2848:2866   */\n      0x24\n      dup3\n      add\n        /* \"#utility.yul\":2841:2871   */\n      mstore\n        /* \"#utility.yul\":2907:2934   */\n      0x466f756e64206c6f6f7020696e2064656c65676174696f6e2e00000000000000\n        /* \"#utility.yul\":2887:2905   */\n      0x44\n      dup3\n      add\n        /* \"#utility.yul\":2880:2935   */\n      mstore\n        /* \"#utility.yul\":2952:2970   */\n      0x64\n      add\n        /* \"contracts/3_Ballot.sol\":2451:2505  require(to != msg.sender, \"Found loop in delegation.\") */\n      tag_47\n        /* \"#utility.yul\":2627:2976   */\n      jump\n        /* \"contracts/3_Ballot.sol\":2451:2505  require(to != msg.sender, \"Found loop in delegation.\") */\n    tag_69:\n        /* \"contracts/3_Ballot.sol\":2293:2516  while (voters[to].delegate != address(0)) {... */\n      jump(tag_64)\n    tag_68:\n        /* \"contracts/3_Ballot.sol\":2540:2544  true */\n      0x01\n        /* \"contracts/3_Ballot.sol\":2525:2537  sender.voted */\n      dup2\n      dup2\n      add\n        /* \"contracts/3_Ballot.sol\":2525:2544  sender.voted = true */\n      dup1\n      sload\n      not(0xffffffffffffffffffffffffffffffffffffffffff)\n        /* \"contracts/3_Ballot.sol\":2554:2574  sender.delegate = to */\n      and\n        /* \"contracts/3_Ballot.sol\":2525:2544  sender.voted = true */\n      0x0100\n      sub(exp(0x02, 0xa0), 0x01)\n        /* \"contracts/3_Ballot.sol\":2554:2574  sender.delegate = to */\n      dup7\n      and\n      swap1\n      dup2\n      mul\n      swap2\n      swap1\n      swap2\n      or\n      dup4\n      or\n      swap1\n      swap2\n      sstore\n      0x00\n        /* \"contracts/3_Ballot.sol\":2610:2620  voters[to] */\n      swap1\n      dup2\n      mstore\n      0x20\n      dup3\n      swap1\n      mstore\n      0x40\n      swap1\n      keccak256\n        /* \"contracts/3_Ballot.sol\":2634:2649  delegate_.voted */\n      swap1\n      dup2\n      add\n      sload\n        /* \"contracts/3_Ballot.sol\":2525:2544  sender.voted = true */\n      0xff\n        /* \"contracts/3_Ballot.sol\":2634:2649  delegate_.voted */\n      and\n        /* \"contracts/3_Ballot.sol\":2630:2972  if (delegate_.voted) {... */\n      iszero\n      tag_72\n      jumpi\n        /* \"contracts/3_Ballot.sol\":2801:2814  sender.weight */\n      dup2\n      sload\n        /* \"contracts/3_Ballot.sol\":2762:2771  proposals */\n      0x02\n        /* \"contracts/3_Ballot.sol\":2772:2786  delegate_.vote */\n      dup3\n      dup2\n      add\n      sload\n        /* \"contracts/3_Ballot.sol\":2762:2787  proposals[delegate_.vote] */\n      dup2\n      sload\n      dup2\n      lt\n      tag_74\n      jumpi\n      tag_74\n      tag_54\n      jump\t// in\n    tag_74:\n      swap1\n      0x00\n      mstore\n      keccak256(0x00, 0x20)\n      swap1\n      0x02\n      mul\n      add\n        /* \"contracts/3_Ballot.sol\":2762:2797  proposals[delegate_.vote].voteCount */\n      0x01\n      add\n      0x00\n        /* \"contracts/3_Ballot.sol\":2762:2814  proposals[delegate_.vote].voteCount += sender.weight */\n      dup3\n      dup3\n      sload\n      tag_76\n      swap2\n      swap1\n      tag_57\n      jump\t// in\n    tag_76:\n      swap1\n      swap2\n      sstore\n      pop\n        /* \"contracts/3_Ballot.sol\":2630:2972  if (delegate_.voted) {... */\n      tag_77\n      swap1\n      pop\n      jump\n    tag_72:\n        /* \"contracts/3_Ballot.sol\":2948:2961  sender.weight */\n      dup2\n      sload\n        /* \"contracts/3_Ballot.sol\":2928:2961  delegate_.weight += sender.weight */\n      dup2\n      sload\n        /* \"contracts/3_Ballot.sol\":2928:2937  delegate_ */\n      dup3\n      swap1\n        /* \"contracts/3_Ballot.sol\":2948:2961  sender.weight */\n      0x00\n      swap1\n        /* \"contracts/3_Ballot.sol\":2928:2961  delegate_.weight += sender.weight */\n      tag_78\n      swap1\n        /* \"contracts/3_Ballot.sol\":2948:2961  sender.weight */\n      dup5\n      swap1\n        /* \"contracts/3_Ballot.sol\":2928:2961  delegate_.weight += sender.weight */\n      tag_57\n      jump\t// in\n    tag_78:\n      swap1\n      swap2\n      sstore\n      pop\n      pop\n        /* \"contracts/3_Ballot.sol\":2630:2972  if (delegate_.voted) {... */\n    tag_77:\n        /* \"contracts/3_Ballot.sol\":2108:2978  {... */\n      pop\n      pop\n        /* \"contracts/3_Ballot.sol\":2071:2978  function delegate(address to) public {... */\n      pop\n      jump\t// out\n        /* \"contracts/3_Ballot.sol\":3810:4175  function winningProposal() public view... */\n    tag_30:\n        /* \"contracts/3_Ballot.sol\":3870:3891  uint winningProposal_ */\n      0x00\n      dup1\n      dup1\n        /* \"contracts/3_Ballot.sol\":3942:4169  for (uint p = 0; p < proposals.length; p++) {... */\n    tag_80:\n        /* \"contracts/3_Ballot.sol\":3963:3972  proposals */\n      0x02\n        /* \"contracts/3_Ballot.sol\":3963:3979  proposals.length */\n      sload\n        /* \"contracts/3_Ballot.sol\":3959:3979  p < proposals.length */\n      dup2\n      lt\n        /* \"contracts/3_Ballot.sol\":3942:4169  for (uint p = 0; p < proposals.length; p++) {... */\n      iszero\n      tag_81\n      jumpi\n        /* \"contracts/3_Ballot.sol\":4029:4045  winningVoteCount */\n      dup2\n        /* \"contracts/3_Ballot.sol\":4004:4013  proposals */\n      0x02\n        /* \"contracts/3_Ballot.sol\":4014:4015  p */\n      dup3\n        /* \"contracts/3_Ballot.sol\":4004:4016  proposals[p] */\n      dup2\n      sload\n      dup2\n      lt\n      tag_84\n      jumpi\n      tag_84\n      tag_54\n      jump\t// in\n    tag_84:\n      swap1\n      0x00\n      mstore\n      keccak256(0x00, 0x20)\n      swap1\n      0x02\n      mul\n      add\n        /* \"contracts/3_Ballot.sol\":4004:4026  proposals[p].voteCount */\n      0x01\n      add\n      sload\n        /* \"contracts/3_Ballot.sol\":4004:4045  proposals[p].voteCount > winningVoteCount */\n      gt\n        /* \"contracts/3_Ballot.sol\":4000:4159  if (proposals[p].voteCount > winningVoteCount) {... */\n      iszero\n      tag_86\n      jumpi\n        /* \"contracts/3_Ballot.sol\":4084:4093  proposals */\n      0x02\n        /* \"contracts/3_Ballot.sol\":4094:4095  p */\n      dup2\n        /* \"contracts/3_Ballot.sol\":4084:4096  proposals[p] */\n      dup2\n      sload\n      dup2\n      lt\n      tag_88\n      jumpi\n      tag_88\n      tag_54\n      jump\t// in\n    tag_88:\n      swap1\n      0x00\n      mstore\n      keccak256(0x00, 0x20)\n      swap1\n      0x02\n      mul\n      add\n        /* \"contracts/3_Ballot.sol\":4084:4106  proposals[p].voteCount */\n      0x01\n      add\n      sload\n        /* \"contracts/3_Ballot.sol\":4065:4106  winningVoteCount = proposals[p].voteCount */\n      swap2\n      pop\n        /* \"contracts/3_Ballot.sol\":4143:4144  p */\n      dup1\n        /* \"contracts/3_Ballot.sol\":4124:4144  winningProposal_ = p */\n      swap3\n      pop\n        /* \"contracts/3_Ballot.sol\":4000:4159  if (proposals[p].voteCount > winningVoteCount) {... */\n    tag_86:\n        /* \"contracts/3_Ballot.sol\":3981:3984  p++ */\n      dup1\n      tag_90\n      dup2\n      tag_91\n      jump\t// in\n    tag_90:\n      swap2\n      pop\n      pop\n        /* \"contracts/3_Ballot.sol\":3942:4169  for (uint p = 0; p < proposals.length; p++) {... */\n      jump(tag_80)\n    tag_81:\n      pop\n        /* \"contracts/3_Ballot.sol\":3897:4175  {... */\n      pop\n        /* \"contracts/3_Ballot.sol\":3810:4175  function winningProposal() public view... */\n      swap1\n      jump\t// out\n        /* \"contracts/3_Ballot.sol\":1592:1947  function giveRightToVote(address voter) public {... */\n    tag_35:\n        /* \"contracts/3_Ballot.sol\":1684:1695  chairperson */\n      and(sub(exp(0x02, 0xa0), 0x01), sload(0x00))\n        /* \"contracts/3_Ballot.sol\":1670:1680  msg.sender */\n      caller\n        /* \"contracts/3_Ballot.sol\":1670:1695  msg.sender == chairperson */\n      eq\n        /* \"contracts/3_Ballot.sol\":1649:1761  require(... */\n      tag_93\n      jumpi\n      mload(0x40)\n      mul(0x461bcd, exp(0x02, 0xe5))\n      dup2\n      mstore\n        /* \"#utility.yul\":2420:2422   */\n      0x20\n        /* \"contracts/3_Ballot.sol\":1649:1761  require(... */\n      0x04\n      dup3\n      add\n        /* \"#utility.yul\":2402:2423   */\n      mstore\n        /* \"#utility.yul\":2459:2461   */\n      0x28\n        /* \"#utility.yul\":2439:2457   */\n      0x24\n      dup3\n      add\n        /* \"#utility.yul\":2432:2462   */\n      mstore\n        /* \"#utility.yul\":2498:2532   */\n      0x4f6e6c79206368616972706572736f6e2063616e206769766520726967687420\n        /* \"#utility.yul\":2478:2496   */\n      0x44\n      dup3\n      add\n        /* \"#utility.yul\":2471:2533   */\n      mstore\n        /* \"#utility.yul\":2569:2579   */\n      0x746f20766f74652e000000000000000000000000000000000000000000000000\n        /* \"#utility.yul\":2549:2567   */\n      0x64\n      dup3\n      add\n        /* \"#utility.yul\":2542:2580   */\n      mstore\n        /* \"#utility.yul\":2597:2616   */\n      0x84\n      add\n        /* \"contracts/3_Ballot.sol\":1649:1761  require(... */\n      tag_47\n        /* \"#utility.yul\":2218:2622   */\n      jump\n        /* \"contracts/3_Ballot.sol\":1649:1761  require(... */\n    tag_93:\n      sub(exp(0x02, 0xa0), 0x01)\n        /* \"contracts/3_Ballot.sol\":1793:1806  voters[voter] */\n      dup2\n      and\n      0x00\n      swap1\n      dup2\n      mstore\n        /* \"contracts/3_Ballot.sol\":1793:1799  voters */\n      0x01\n        /* \"contracts/3_Ballot.sol\":1793:1806  voters[voter] */\n      0x20\n      dup2\n      swap1\n      mstore\n      0x40\n      swap1\n      swap2\n      keccak256\n        /* \"contracts/3_Ballot.sol\":1793:1812  voters[voter].voted */\n      add\n      sload\n      0xff\n      and\n        /* \"contracts/3_Ballot.sol\":1792:1812  !voters[voter].voted */\n      iszero\n        /* \"contracts/3_Ballot.sol\":1771:1862  require(... */\n      tag_96\n      jumpi\n      mload(0x40)\n      mul(0x461bcd, exp(0x02, 0xe5))\n      dup2\n      mstore\n        /* \"#utility.yul\":3183:3185   */\n      0x20\n        /* \"contracts/3_Ballot.sol\":1771:1862  require(... */\n      0x04\n      dup3\n      add\n        /* \"#utility.yul\":3165:3186   */\n      mstore\n        /* \"#utility.yul\":3222:3224   */\n      0x18\n        /* \"#utility.yul\":3202:3220   */\n      0x24\n      dup3\n      add\n        /* \"#utility.yul\":3195:3225   */\n      mstore\n        /* \"#utility.yul\":3261:3287   */\n      0x54686520766f74657220616c726561647920766f7465642e0000000000000000\n        /* \"#utility.yul\":3241:3259   */\n      0x44\n      dup3\n      add\n        /* \"#utility.yul\":3234:3288   */\n      mstore\n        /* \"#utility.yul\":3305:3323   */\n      0x64\n      add\n        /* \"contracts/3_Ballot.sol\":1771:1862  require(... */\n      tag_47\n        /* \"#utility.yul\":2981:3329   */\n      jump\n        /* \"contracts/3_Ballot.sol\":1771:1862  require(... */\n    tag_96:\n      sub(exp(0x02, 0xa0), 0x01)\n        /* \"contracts/3_Ballot.sol\":1880:1893  voters[voter] */\n      dup2\n      and\n      0x00\n      swap1\n      dup2\n      mstore\n        /* \"contracts/3_Ballot.sol\":1880:1886  voters */\n      0x01\n        /* \"contracts/3_Ballot.sol\":1880:1893  voters[voter] */\n      0x20\n      mstore\n      0x40\n      swap1\n      keccak256\n        /* \"contracts/3_Ballot.sol\":1880:1900  voters[voter].weight */\n      sload\n        /* \"contracts/3_Ballot.sol\":1880:1905  voters[voter].weight == 0 */\n      iszero\n        /* \"contracts/3_Ballot.sol\":1872:1906  require(voters[voter].weight == 0) */\n      tag_99\n      jumpi\n      0x00\n      dup1\n      revert\n    tag_99:\n      sub(exp(0x02, 0xa0), 0x01)\n        /* \"contracts/3_Ballot.sol\":1916:1929  voters[voter] */\n      and\n      0x00\n      swap1\n      dup2\n      mstore\n        /* \"contracts/3_Ballot.sol\":1939:1940  1 */\n      0x01\n        /* \"contracts/3_Ballot.sol\":1916:1929  voters[voter] */\n      0x20\n      dup2\n      swap1\n      mstore\n      0x40\n      swap1\n      swap2\n      keccak256\n        /* \"contracts/3_Ballot.sol\":1916:1940  voters[voter].weight = 1 */\n      sstore\n        /* \"contracts/3_Ballot.sol\":1592:1947  function giveRightToVote(address voter) public {... */\n      jump\t// out\n        /* \"contracts/3_Ballot.sol\":4366:4510  function winnerName() public view... */\n    tag_42:\n        /* \"contracts/3_Ballot.sol\":4421:4440  bytes32 winnerName_ */\n      0x00\n        /* \"contracts/3_Ballot.sol\":4470:4479  proposals */\n      0x02\n        /* \"contracts/3_Ballot.sol\":4480:4497  winningProposal() */\n      tag_101\n        /* \"contracts/3_Ballot.sol\":4480:4495  winningProposal */\n      tag_30\n        /* \"contracts/3_Ballot.sol\":4480:4497  winningProposal() */\n      jump\t// in\n    tag_101:\n        /* \"contracts/3_Ballot.sol\":4470:4498  proposals[winningProposal()] */\n      dup2\n      sload\n      dup2\n      lt\n      tag_103\n      jumpi\n      tag_103\n      tag_54\n      jump\t// in\n    tag_103:\n      swap1\n      0x00\n      mstore\n      keccak256(0x00, 0x20)\n      swap1\n      0x02\n      mul\n      add\n        /* \"contracts/3_Ballot.sol\":4470:4503  proposals[winningProposal()].name */\n      0x00\n      add\n      sload\n        /* \"contracts/3_Ballot.sol\":4456:4503  winnerName_ = proposals[winningProposal()].name */\n      swap1\n      pop\n        /* \"contracts/3_Ballot.sol\":4366:4510  function winnerName() public view... */\n      swap1\n      jump\t// out\n        /* \"#utility.yul\":14:323   */\n    tag_27:\n        /* \"#utility.yul\":73:79   */\n      0x00\n        /* \"#utility.yul\":126:128   */\n      0x20\n        /* \"#utility.yul\":114:123   */\n      dup3\n        /* \"#utility.yul\":105:112   */\n      dup5\n        /* \"#utility.yul\":101:124   */\n      sub\n        /* \"#utility.yul\":97:129   */\n      slt\n        /* \"#utility.yul\":94:146   */\n      iszero\n      tag_107\n      jumpi\n        /* \"#utility.yul\":142:143   */\n      0x00\n        /* \"#utility.yul\":139:140   */\n      dup1\n        /* \"#utility.yul\":132:144   */\n      revert\n        /* \"#utility.yul\":94:146   */\n    tag_107:\n        /* \"#utility.yul\":181:190   */\n      dup2\n        /* \"#utility.yul\":168:191   */\n      calldataload\n      sub(exp(0x02, 0xa0), 0x01)\n        /* \"#utility.yul\":224:229   */\n      dup2\n        /* \"#utility.yul\":220:274   */\n      and\n        /* \"#utility.yul\":213:218   */\n      dup2\n        /* \"#utility.yul\":210:275   */\n      eq\n        /* \"#utility.yul\":200:293   */\n      tag_108\n      jumpi\n        /* \"#utility.yul\":289:290   */\n      0x00\n        /* \"#utility.yul\":286:287   */\n      dup1\n        /* \"#utility.yul\":279:291   */\n      revert\n        /* \"#utility.yul\":200:293   */\n    tag_108:\n        /* \"#utility.yul\":312:317   */\n      swap4\n        /* \"#utility.yul\":14:323   */\n      swap3\n      pop\n      pop\n      pop\n      jump\t// out\n        /* \"#utility.yul\":328:508   */\n    tag_14:\n        /* \"#utility.yul\":387:393   */\n      0x00\n        /* \"#utility.yul\":440:442   */\n      0x20\n        /* \"#utility.yul\":428:437   */\n      dup3\n        /* \"#utility.yul\":419:426   */\n      dup5\n        /* \"#utility.yul\":415:438   */\n      sub\n        /* \"#utility.yul\":411:443   */\n      slt\n        /* \"#utility.yul\":408:460   */\n      iszero\n      tag_110\n      jumpi\n        /* \"#utility.yul\":456:457   */\n      0x00\n        /* \"#utility.yul\":453:454   */\n      dup1\n        /* \"#utility.yul\":446:458   */\n      revert\n        /* \"#utility.yul\":408:460   */\n    tag_110:\n      pop\n        /* \"#utility.yul\":479:502   */\n      calldataload\n      swap2\n        /* \"#utility.yul\":328:508   */\n      swap1\n      pop\n      jump\t// out\n        /* \"#utility.yul\":4330:4458   */\n    tag_57:\n        /* \"#utility.yul\":4370:4373   */\n      0x00\n        /* \"#utility.yul\":4401:4402   */\n      dup3\n        /* \"#utility.yul\":4397:4403   */\n      not\n        /* \"#utility.yul\":4394:4395   */\n      dup3\n        /* \"#utility.yul\":4391:4404   */\n      gt\n        /* \"#utility.yul\":4388:4427   */\n      iszero\n      tag_125\n      jumpi\n        /* \"#utility.yul\":4407:4425   */\n      tag_125\n      tag_126\n      jump\t// in\n    tag_125:\n      pop\n        /* \"#utility.yul\":4443:4452   */\n      add\n      swap1\n        /* \"#utility.yul\":4330:4458   */\n      jump\t// out\n        /* \"#utility.yul\":4463:4598   */\n    tag_91:\n        /* \"#utility.yul\":4502:4505   */\n      0x00\n      not(0x00)\n        /* \"#utility.yul\":4523:4540   */\n      dup3\n      eq\n        /* \"#utility.yul\":4520:4563   */\n      iszero\n      tag_129\n      jumpi\n        /* \"#utility.yul\":4543:4561   */\n      tag_129\n      tag_126\n      jump\t// in\n    tag_129:\n      pop\n        /* \"#utility.yul\":4590:4591   */\n      0x01\n        /* \"#utility.yul\":4579:4592   */\n      add\n      swap1\n        /* \"#utility.yul\":4463:4598   */\n      jump\t// out\n        /* \"#utility.yul\":4603:4787   */\n    tag_126:\n        /* \"#utility.yul\":4655:4732   */\n      0x4e487b7100000000000000000000000000000000000000000000000000000000\n        /* \"#utility.yul\":4652:4653   */\n      0x00\n        /* \"#utility.yul\":4645:4733   */\n      mstore\n        /* \"#utility.yul\":4752:4756   */\n      0x11\n        /* \"#utility.yul\":4749:4750   */\n      0x04\n        /* \"#utility.yul\":4742:4757   */\n      mstore\n        /* \"#utility.yul\":4776:4780   */\n      0x24\n        /* \"#utility.yul\":4773:4774   */\n      0x00\n        /* \"#utility.yul\":4766:4781   */\n      revert\n        /* \"#utility.yul\":4792:4976   */\n    tag_54:\n        /* \"#utility.yul\":4844:4921   */\n      0x4e487b7100000000000000000000000000000000000000000000000000000000\n        /* \"#utility.yul\":4841:4842   */\n      0x00\n        /* \"#utility.yul\":4834:4922   */\n      mstore\n        /* \"#utility.yul\":4941:4945   */\n      0x32\n        /* \"#utility.yul\":4938:4939   */\n      0x04\n        /* \"#utility.yul\":4931:4946   */\n      mstore\n        /* \"#utility.yul\":4965:4969   */\n      0x24\n        /* \"#utility.yul\":4962:4963   */\n      0x00\n        /* \"#utility.yul\":4955:4970   */\n      revert\n\n    auxdata: 0xa26469706673582212205ab13ac14009a63047c0adc52725bb73b1a757400aff0507cc6644e984412ca164736f6c63430008070033\n}\n",
				"bytecode": {
					"linkReferences": {},
					"object": "608060405234801561001057600080fd5b50604051610a62380380610a6283398101604081905261002f916100cc565b60008054600160a060020a03191633908117825581526001602081905260408220555b81518110156100c5576002604051806040016040528084848151811061007a5761007a6101d2565b602090810291909101810151825260009181018290528354600181810186559483529181902083516002909302019182559190910151910155806100bd81610190565b915050610052565b5050610230565b600060208083850312156100df57600080fd5b825167ffffffffffffffff808211156100f757600080fd5b818501915085601f83011261010b57600080fd5b81518181111561011d5761011d610201565b838102604051601f19603f8301168101818110858211171561014157610141610201565b604052828152858101935084860182860187018a101561016057600080fd5b600095505b83861015610183578051855260019590950194938601938601610165565b5098975050505050505050565b60006000198214156101cb577f4e487b7100000000000000000000000000000000000000000000000000000000600052601160045260246000fd5b5060010190565b7f4e487b7100000000000000000000000000000000000000000000000000000000600052603260045260246000fd5b7f4e487b7100000000000000000000000000000000000000000000000000000000600052604160045260246000fd5b6108238061023f6000396000f3fe608060405234801561001057600080fd5b50600436106100a5576000357c010000000000000000000000000000000000000000000000000000000090048063609ff1bd11610078578063609ff1bd1461012a5780639e7b8d6114610140578063a3ec138d14610153578063e2ba53f0146101c457600080fd5b80630121b93f146100aa578063013cf08b146100bf5780632e4176cf146100ec5780635c19a95c14610117575b600080fd5b6100bd6100b8366004610743565b6101cc565b005b6100d26100cd366004610743565b6102e1565b604080519283526020830191909152015b60405180910390f35b6000546100ff90600160a060020a031681565b604051600160a060020a0390911681526020016100e3565b6100bd610125366004610713565b61030f565b610132610530565b6040519081526020016100e3565b6100bd61014e366004610713565b6105ad565b610195610161366004610713565b600160208190526000918252604090912080549181015460029091015460ff8216916101009004600160a060020a03169084565b6040516100e394939291909384529115156020840152600160a060020a03166040830152606082015260800190565b6101326106e0565b33600090815260016020526040902080546102315760405160e560020a62461bcd02815260206004820152601460248201527f486173206e6f20726967687420746f20766f746500000000000000000000000060448201526064015b60405180910390fd5b600181015460ff16156102895760405160e560020a62461bcd02815260206004820152600e60248201527f416c726561647920766f7465642e0000000000000000000000000000000000006044820152606401610228565b6001818101805460ff19169091179055600280820183905581548154909190849081106102b8576102b86107be565b906000526020600020906002020160010160008282546102d8919061075c565b90915550505050565b600281815481106102f157600080fd5b60009182526020909120600290910201805460019091015490915082565b3360009081526001602081905260409091209081015460ff16156103785760405160e560020a62461bcd02815260206004820152601260248201527f596f7520616c726561647920766f7465642e00000000000000000000000000006044820152606401610228565b600160a060020a0382163314156103d45760405160e560020a62461bcd02815260206004820152601e60248201527f53656c662d64656c65676174696f6e20697320646973616c6c6f7765642e00006044820152606401610228565b600160a060020a03828116600090815260016020819052604090912001546101009004161561047c57600160a060020a0391821660009081526001602081905260409091200154610100900490911690338214156104775760405160e560020a62461bcd02815260206004820152601960248201527f466f756e64206c6f6f7020696e2064656c65676174696f6e2e000000000000006044820152606401610228565b6103d4565b6001818101805474ffffffffffffffffffffffffffffffffffffffffff1916610100600160a060020a03861690810291909117831790915560009081526020829052604090209081015460ff1615610511578154600282810154815481106104e6576104e66107be565b90600052602060002090600202016001016000828254610506919061075c565b9091555061052b9050565b81548154829060009061052590849061075c565b90915550505b505050565b600080805b6002548110156105a8578160028281548110610553576105536107be565b9060005260206000209060020201600101541115610596576002818154811061057e5761057e6107be565b90600052602060002090600202016001015491508092505b806105a081610774565b915050610535565b505090565b600054600160a060020a031633146106305760405160e560020a62461bcd02815260206004820152602860248201527f4f6e6c79206368616972706572736f6e2063616e20676976652072696768742060448201527f746f20766f74652e0000000000000000000000000000000000000000000000006064820152608401610228565b600160a060020a0381166000908152600160208190526040909120015460ff16156106a05760405160e560020a62461bcd02815260206004820152601860248201527f54686520766f74657220616c726561647920766f7465642e00000000000000006044820152606401610228565b600160a060020a038116600090815260016020526040902054156106c357600080fd5b600160a060020a0316600090815260016020819052604090912055565b600060026106ec610530565b815481106106fc576106fc6107be565b906000526020600020906002020160000154905090565b60006020828403121561072557600080fd5b8135600160a060020a038116811461073c57600080fd5b9392505050565b60006020828403121561075557600080fd5b5035919050565b6000821982111561076f5761076f61078f565b500190565b60006000198214156107885761078861078f565b5060010190565b7f4e487b7100000000000000000000000000000000000000000000000000000000600052601160045260246000fd5b7f4e487b7100000000000000000000000000000000000000000000000000000000600052603260045260246000fdfea26469706673582212205ab13ac14009a63047c0adc52725bb73b1a757400aff0507cc6644e984412ca164736f6c63430008070033",
					"opcodes": "PUSH1 0x80 PUSH1 0x40 MSTORE CALLVALUE DUP1 ISZERO PUSH2 0x10 JUMPI PUSH1 0x0 DUP1 REVERT JUMPDEST POP PUSH1 0x40 MLOAD PUSH2 0xA62 CODESIZE SUB DUP1 PUSH2 0xA62 DUP4 CODECOPY DUP2 ADD PUSH1 0x40 DUP2 SWAP1 MSTORE PUSH2 0x2F SWAP2 PUSH2 0xCC JUMP JUMPDEST PUSH1 0x0 DUP1 SLOAD PUSH1 0x1 PUSH1 0xA0 PUSH1 0x2 EXP SUB NOT AND CALLER SWAP1 DUP2 OR DUP3 SSTORE DUP2 MSTORE PUSH1 0x1 PUSH1 0x20 DUP2 SWAP1 MSTORE PUSH1 0x40 DUP3 KECCAK256 SSTORE JUMPDEST DUP2 MLOAD DUP2 LT ISZERO PUSH2 0xC5 JUMPI PUSH1 0x2 PUSH1 0x40 MLOAD DUP1 PUSH1 0x40 ADD PUSH1 0x40 MSTORE DUP1 DUP5 DUP5 DUP2 MLOAD DUP2 LT PUSH2 0x7A JUMPI PUSH2 0x7A PUSH2 0x1D2 JUMP JUMPDEST PUSH1 0x20 SWAP1 DUP2 MUL SWAP2 SWAP1 SWAP2 ADD DUP2 ADD MLOAD DUP3 MSTORE PUSH1 0x0 SWAP2 DUP2 ADD DUP3 SWAP1 MSTORE DUP4 SLOAD PUSH1 0x1 DUP2 DUP2 ADD DUP7 SSTORE SWAP5 DUP4 MSTORE SWAP2 DUP2 SWAP1 KECCAK256 DUP4 MLOAD PUSH1 0x2 SWAP1 SWAP4 MUL ADD SWAP2 DUP3 SSTORE SWAP2 SWAP1 SWAP2 ADD MLOAD SWAP2 ADD SSTORE DUP1 PUSH2 0xBD DUP2 PUSH2 0x190 JUMP JUMPDEST SWAP2 POP POP PUSH2 0x52 JUMP JUMPDEST POP POP PUSH2 0x230 JUMP JUMPDEST PUSH1 0x0 PUSH1 0x20 DUP1 DUP4 DUP6 SUB SLT ISZERO PUSH2 0xDF JUMPI PUSH1 0x0 DUP1 REVERT JUMPDEST DUP3 MLOAD PUSH8 0xFFFFFFFFFFFFFFFF DUP1 DUP3 GT ISZERO PUSH2 0xF7 JUMPI PUSH1 0x0 DUP1 REVERT JUMPDEST DUP2 DUP6 ADD SWAP2 POP DUP6 PUSH1 0x1F DUP4 ADD SLT PUSH2 0x10B JUMPI PUSH1 0x0 DUP1 REVERT JUMPDEST DUP2 MLOAD DUP2 DUP2 GT ISZERO PUSH2 0x11D JUMPI PUSH2 0x11D PUSH2 0x201 JUMP JUMPDEST DUP4 DUP2 MUL PUSH1 0x40 MLOAD PUSH1 0x1F NOT PUSH1 0x3F DUP4 ADD AND DUP2 ADD DUP2 DUP2 LT DUP6 DUP3 GT OR ISZERO PUSH2 0x141 JUMPI PUSH2 0x141 PUSH2 0x201 JUMP JUMPDEST PUSH1 0x40 MSTORE DUP3 DUP2 MSTORE DUP6 DUP2 ADD SWAP4 POP DUP5 DUP7 ADD DUP3 DUP7 ADD DUP8 ADD DUP11 LT ISZERO PUSH2 0x160 JUMPI PUSH1 0x0 DUP1 REVERT JUMPDEST PUSH1 0x0 SWAP6 POP JUMPDEST DUP4 DUP7 LT ISZERO PUSH2 0x183 JUMPI DUP1 MLOAD DUP6 MSTORE PUSH1 0x1 SWAP6 SWAP1 SWAP6 ADD SWAP5 SWAP4 DUP7 ADD SWAP4 DUP7 ADD PUSH2 0x165 JUMP JUMPDEST POP SWAP9 SWAP8 POP POP POP POP POP POP POP POP JUMP JUMPDEST PUSH1 0x0 PUSH1 0x0 NOT DUP3 EQ ISZERO PUSH2 0x1CB JUMPI PUSH32 0x4E487B7100000000000000000000000000000000000000000000000000000000 PUSH1 0x0 MSTORE PUSH1 0x11 PUSH1 0x4 MSTORE PUSH1 0x24 PUSH1 0x0 REVERT JUMPDEST POP PUSH1 0x1 ADD SWAP1 JUMP JUMPDEST PUSH32 0x4E487B7100000000000000000000000000000000000000000000000000000000 PUSH1 0x0 MSTORE PUSH1 0x32 PUSH1 0x4 MSTORE PUSH1 0x24 PUSH1 0x0 REVERT JUMPDEST PUSH32 0x4E487B7100000000000000000000000000000000000000000000000000000000 PUSH1 0x0 MSTORE PUSH1 0x41 PUSH1 0x4 MSTORE PUSH1 0x24 PUSH1 0x0 REVERT JUMPDEST PUSH2 0x823 DUP1 PUSH2 0x23F PUSH1 0x0 CODECOPY PUSH1 0x0 RETURN INVALID PUSH1 0x80 PUSH1 0x40 MSTORE CALLVALUE DUP1 ISZERO PUSH2 0x10 JUMPI PUSH1 0x0 DUP1 REVERT JUMPDEST POP PUSH1 0x4 CALLDATASIZE LT PUSH2 0xA5 JUMPI PUSH1 0x0 CALLDATALOAD PUSH29 0x100000000000000000000000000000000000000000000000000000000 SWAP1 DIV DUP1 PUSH4 0x609FF1BD GT PUSH2 0x78 JUMPI DUP1 PUSH4 0x609FF1BD EQ PUSH2 0x12A JUMPI DUP1 PUSH4 0x9E7B8D61 EQ PUSH2 0x140 JUMPI DUP1 PUSH4 0xA3EC138D EQ PUSH2 0x153 JUMPI DUP1 PUSH4 0xE2BA53F0 EQ PUSH2 0x1C4 JUMPI PUSH1 0x0 DUP1 REVERT JUMPDEST DUP1 PUSH4 0x121B93F EQ PUSH2 0xAA JUMPI DUP1 PUSH4 0x13CF08B EQ PUSH2 0xBF JUMPI DUP1 PUSH4 0x2E4176CF EQ PUSH2 0xEC JUMPI DUP1 PUSH4 0x5C19A95C EQ PUSH2 0x117 JUMPI JUMPDEST PUSH1 0x0 DUP1 REVERT JUMPDEST PUSH2 0xBD PUSH2 0xB8 CALLDATASIZE PUSH1 0x4 PUSH2 0x743 JUMP JUMPDEST PUSH2 0x1CC JUMP JUMPDEST STOP JUMPDEST PUSH2 0xD2 PUSH2 0xCD CALLDATASIZE PUSH1 0x4 PUSH2 0x743 JUMP JUMPDEST PUSH2 0x2E1 JUMP JUMPDEST PUSH1 0x40 DUP1 MLOAD SWAP3 DUP4 MSTORE PUSH1 0x20 DUP4 ADD SWAP2 SWAP1 SWAP2 MSTORE ADD JUMPDEST PUSH1 0x40 MLOAD DUP1 SWAP2 SUB SWAP1 RETURN JUMPDEST PUSH1 0x0 SLOAD PUSH2 0xFF SWAP1 PUSH1 0x1 PUSH1 0xA0 PUSH1 0x2 EXP SUB AND DUP2 JUMP JUMPDEST PUSH1 0x40 MLOAD PUSH1 0x1 PUSH1 0xA0 PUSH1 0x2 EXP SUB SWAP1 SWAP2 AND DUP2 MSTORE PUSH1 0x20 ADD PUSH2 0xE3 JUMP JUMPDEST PUSH2 0xBD PUSH2 0x125 CALLDATASIZE PUSH1 0x4 PUSH2 0x713 JUMP JUMPDEST PUSH2 0x30F JUMP JUMPDEST PUSH2 0x132 PUSH2 0x530 JUMP JUMPDEST PUSH1 0x40 MLOAD SWAP1 DUP2 MSTORE PUSH1 0x20 ADD PUSH2 0xE3 JUMP JUMPDEST PUSH2 0xBD PUSH2 0x14E CALLDATASIZE PUSH1 0x4 PUSH2 0x713 JUMP JUMPDEST PUSH2 0x5AD JUMP JUMPDEST PUSH2 0x195 PUSH2 0x161 CALLDATASIZE PUSH1 0x4 PUSH2 0x713 JUMP JUMPDEST PUSH1 0x1 PUSH1 0x20 DUP2 SWAP1 MSTORE PUSH1 0x0 SWAP2 DUP3 MSTORE PUSH1 0x40 SWAP1 SWAP2 KECCAK256 DUP1 SLOAD SWAP2 DUP2 ADD SLOAD PUSH1 0x2 SWAP1 SWAP2 ADD SLOAD PUSH1 0xFF DUP3 AND SWAP2 PUSH2 0x100 SWAP1 DIV PUSH1 0x1 PUSH1 0xA0 PUSH1 0x2 EXP SUB AND SWAP1 DUP5 JUMP JUMPDEST PUSH1 0x40 MLOAD PUSH2 0xE3 SWAP5 SWAP4 SWAP3 SWAP2 SWAP1 SWAP4 DUP5 MSTORE SWAP2 ISZERO ISZERO PUSH1 0x20 DUP5 ADD MSTORE PUSH1 0x1 PUSH1 0xA0 PUSH1 0x2 EXP SUB AND PUSH1 0x40 DUP4 ADD MSTORE PUSH1 0x60 DUP3 ADD MSTORE PUSH1 0x80 ADD SWAP1 JUMP JUMPDEST PUSH2 0x132 PUSH2 0x6E0 JUMP JUMPDEST CALLER PUSH1 0x0 SWAP1 DUP2 MSTORE PUSH1 0x1 PUSH1 0x20 MSTORE PUSH1 0x40 SWAP1 KECCAK256 DUP1 SLOAD PUSH2 0x231 JUMPI PUSH1 0x40 MLOAD PUSH1 0xE5 PUSH1 0x2 EXP PUSH3 0x461BCD MUL DUP2 MSTORE PUSH1 0x20 PUSH1 0x4 DUP3 ADD MSTORE PUSH1 0x14 PUSH1 0x24 DUP3 ADD MSTORE PUSH32 0x486173206E6F20726967687420746F20766F7465000000000000000000000000 PUSH1 0x44 DUP3 ADD MSTORE PUSH1 0x64 ADD JUMPDEST PUSH1 0x40 MLOAD DUP1 SWAP2 SUB SWAP1 REVERT JUMPDEST PUSH1 0x1 DUP2 ADD SLOAD PUSH1 0xFF AND ISZERO PUSH2 0x289 JUMPI PUSH1 0x40 MLOAD PUSH1 0xE5 PUSH1 0x2 EXP PUSH3 0x461BCD MUL DUP2 MSTORE PUSH1 0x20 PUSH1 0x4 DUP3 ADD MSTORE PUSH1 0xE PUSH1 0x24 DUP3 ADD MSTORE PUSH32 0x416C726561647920766F7465642E000000000000000000000000000000000000 PUSH1 0x44 DUP3 ADD MSTORE PUSH1 0x64 ADD PUSH2 0x228 JUMP JUMPDEST PUSH1 0x1 DUP2 DUP2 ADD DUP1 SLOAD PUSH1 0xFF NOT AND SWAP1 SWAP2 OR SWAP1 SSTORE PUSH1 0x2 DUP1 DUP3 ADD DUP4 SWAP1 SSTORE DUP2 SLOAD DUP2 SLOAD SWAP1 SWAP2 SWAP1 DUP5 SWAP1 DUP2 LT PUSH2 0x2B8 JUMPI PUSH2 0x2B8 PUSH2 0x7BE JUMP JUMPDEST SWAP1 PUSH1 0x0 MSTORE PUSH1 0x20 PUSH1 0x0 KECCAK256 SWAP1 PUSH1 0x2 MUL ADD PUSH1 0x1 ADD PUSH1 0x0 DUP3 DUP3 SLOAD PUSH2 0x2D8 SWAP2 SWAP1 PUSH2 0x75C JUMP JUMPDEST SWAP1 SWAP2 SSTORE POP POP POP POP JUMP JUMPDEST PUSH1 0x2 DUP2 DUP2 SLOAD DUP2 LT PUSH2 0x2F1 JUMPI PUSH1 0x0 DUP1 REVERT JUMPDEST PUSH1 0x0 SWAP2 DUP3 MSTORE PUSH1 0x20 SWAP1 SWAP2 KECCAK256 PUSH1 0x2 SWAP1 SWAP2 MUL ADD DUP1 SLOAD PUSH1 0x1 SWAP1 SWAP2 ADD SLOAD SWAP1 SWAP2 POP DUP3 JUMP JUMPDEST CALLER PUSH1 0x0 SWAP1 DUP2 MSTORE PUSH1 0x1 PUSH1 0x20 DUP2 SWAP1 MSTORE PUSH1 0x40 SWAP1 SWAP2 KECCAK256 SWAP1 DUP2 ADD SLOAD PUSH1 0xFF AND ISZERO PUSH2 0x378 JUMPI PUSH1 0x40 MLOAD PUSH1 0xE5 PUSH1 0x2 EXP PUSH3 0x461BCD MUL DUP2 MSTORE PUSH1 0x20 PUSH1 0x4 DUP3 ADD MSTORE PUSH1 0x12 PUSH1 0x24 DUP3 ADD MSTORE PUSH32 0x596F7520616C726561647920766F7465642E0000000000000000000000000000 PUSH1 0x44 DUP3 ADD MSTORE PUSH1 0x64 ADD PUSH2 0x228 JUMP JUMPDEST PUSH1 0x1 PUSH1 0xA0 PUSH1 0x2 EXP SUB DUP3 AND CALLER EQ ISZERO PUSH2 0x3D4 JUMPI PUSH1 0x40 MLOAD PUSH1 0xE5 PUSH1 0x2 EXP PUSH3 0x461BCD MUL DUP2 MSTORE PUSH1 0x20 PUSH1 0x4 DUP3 ADD MSTORE PUSH1 0x1E PUSH1 0x24 DUP3 ADD MSTORE PUSH32 0x53656C662D64656C65676174696F6E20697320646973616C6C6F7765642E0000 PUSH1 0x44 DUP3 ADD MSTORE PUSH1 0x64 ADD PUSH2 0x228 JUMP JUMPDEST PUSH1 0x1 PUSH1 0xA0 PUSH1 0x2 EXP SUB DUP3 DUP2 AND PUSH1 0x0 SWAP1 DUP2 MSTORE PUSH1 0x1 PUSH1 0x20 DUP2 SWAP1 MSTORE PUSH1 0x40 SWAP1 SWAP2 KECCAK256 ADD SLOAD PUSH2 0x100 SWAP1 DIV AND ISZERO PUSH2 0x47C JUMPI PUSH1 0x1 PUSH1 0xA0 PUSH1 0x2 EXP SUB SWAP2 DUP3 AND PUSH1 0x0 SWAP1 DUP2 MSTORE PUSH1 0x1 PUSH1 0x20 DUP2 SWAP1 MSTORE PUSH1 0x40 SWAP1 SWAP2 KECCAK256 ADD SLOAD PUSH2 0x100 SWAP1 DIV SWAP1 SWAP2 AND SWAP1 CALLER DUP3 EQ ISZERO PUSH2 0x477 JUMPI PUSH1 0x40 MLOAD PUSH1 0xE5 PUSH1 0x2 EXP PUSH3 0x461BCD MUL DUP2 MSTORE PUSH1 0x20 PUSH1 0x4 DUP3 ADD MSTORE PUSH1 0x19 PUSH1 0x24 DUP3 ADD MSTORE PUSH32 0x466F756E64206C6F6F7020696E2064656C65676174696F6E2E00000000000000 PUSH1 0x44 DUP3 ADD MSTORE PUSH1 0x64 ADD PUSH2 0x228 JUMP JUMPDEST PUSH2 0x3D4 JUMP JUMPDEST PUSH1 0x1 DUP2 DUP2 ADD DUP1 SLOAD PUSH21 0xFFFFFFFFFFFFFFFFFFFFFFFFFFFFFFFFFFFFFFFFFF NOT AND PUSH2 0x100 PUSH1 0x1 PUSH1 0xA0 PUSH1 0x2 EXP SUB DUP7 AND SWAP1 DUP2 MUL SWAP2 SWAP1 SWAP2 OR DUP4 OR SWAP1 SWAP2 SSTORE PUSH1 0x0 SWAP1 DUP2 MSTORE PUSH1 0x20 DUP3 SWAP1 MSTORE PUSH1 0x40 SWAP1 KECCAK256 SWAP1 DUP2 ADD SLOAD PUSH1 0xFF AND ISZERO PUSH2 0x511 JUMPI DUP2 SLOAD PUSH1 0x2 DUP3 DUP2 ADD SLOAD DUP2 SLOAD DUP2 LT PUSH2 0x4E6 JUMPI PUSH2 0x4E6 PUSH2 0x7BE JUMP JUMPDEST SWAP1 PUSH1 0x0 MSTORE PUSH1 0x20 PUSH1 0x0 KECCAK256 SWAP1 PUSH1 0x2 MUL ADD PUSH1 0x1 ADD PUSH1 0x0 DUP3 DUP3 SLOAD PUSH2 0x506 SWAP2 SWAP1 PUSH2 0x75C JUMP JUMPDEST SWAP1 SWAP2 SSTORE POP PUSH2 0x52B SWAP1 POP JUMP JUMPDEST DUP2 SLOAD DUP2 SLOAD DUP3 SWAP1 PUSH1 0x0 SWAP1 PUSH2 0x525 SWAP1 DUP5 SWAP1 PUSH2 0x75C JUMP JUMPDEST SWAP1 SWAP2 SSTORE POP POP JUMPDEST POP POP POP JUMP JUMPDEST PUSH1 0x0 DUP1 DUP1 JUMPDEST PUSH1 0x2 SLOAD DUP2 LT ISZERO PUSH2 0x5A8 JUMPI DUP2 PUSH1 0x2 DUP3 DUP2 SLOAD DUP2 LT PUSH2 0x553 JUMPI PUSH2 0x553 PUSH2 0x7BE JUMP JUMPDEST SWAP1 PUSH1 0x0 MSTORE PUSH1 0x20 PUSH1 0x0 KECCAK256 SWAP1 PUSH1 0x2 MUL ADD PUSH1 0x1 ADD SLOAD GT ISZERO PUSH2 0x596 JUMPI PUSH1 0x2 DUP2 DUP2 SLOAD DUP2 LT PUSH2 0x57E JUMPI PUSH2 0x57E PUSH2 0x7BE JUMP JUMPDEST SWAP1 PUSH1 0x0 MSTORE PUSH1 0x20 PUSH1 0x0 KECCAK256 SWAP1 PUSH1 0x2 MUL ADD PUSH1 0x1 ADD SLOAD SWAP2 POP DUP1 SWAP3 POP JUMPDEST DUP1 PUSH2 0x5A0 DUP2 PUSH2 0x774 JUMP JUMPDEST SWAP2 POP POP PUSH2 0x535 JUMP JUMPDEST POP POP SWAP1 JUMP JUMPDEST PUSH1 0x0 SLOAD PUSH1 0x1 PUSH1 0xA0 PUSH1 0x2 EXP SUB AND CALLER EQ PUSH2 0x630 JUMPI PUSH1 0x40 MLOAD PUSH1 0xE5 PUSH1 0x2 EXP PUSH3 0x461BCD MUL DUP2 MSTORE PUSH1 0x20 PUSH1 0x4 DUP3 ADD MSTORE PUSH1 0x28 PUSH1 0x24 DUP3 ADD MSTORE PUSH32 0x4F6E6C79206368616972706572736F6E2063616E206769766520726967687420 PUSH1 0x44 DUP3 ADD MSTORE PUSH32 0x746F20766F74652E000000000000000000000000000000000000000000000000 PUSH1 0x64 DUP3 ADD MSTORE PUSH1 0x84 ADD PUSH2 0x228 JUMP JUMPDEST PUSH1 0x1 PUSH1 0xA0 PUSH1 0x2 EXP SUB DUP2 AND PUSH1 0x0 SWAP1 DUP2 MSTORE PUSH1 0x1 PUSH1 0x20 DUP2 SWAP1 MSTORE PUSH1 0x40 SWAP1 SWAP2 KECCAK256 ADD SLOAD PUSH1 0xFF AND ISZERO PUSH2 0x6A0 JUMPI PUSH1 0x40 MLOAD PUSH1 0xE5 PUSH1 0x2 EXP PUSH3 0x461BCD MUL DUP2 MSTORE PUSH1 0x20 PUSH1 0x4 DUP3 ADD MSTORE PUSH1 0x18 PUSH1 0x24 DUP3 ADD MSTORE PUSH32 0x54686520766F74657220616C726561647920766F7465642E0000000000000000 PUSH1 0x44 DUP3 ADD MSTORE PUSH1 0x64 ADD PUSH2 0x228 JUMP JUMPDEST PUSH1 0x1 PUSH1 0xA0 PUSH1 0x2 EXP SUB DUP2 AND PUSH1 0x0 SWAP1 DUP2 MSTORE PUSH1 0x1 PUSH1 0x20 MSTORE PUSH1 0x40 SWAP1 KECCAK256 SLOAD ISZERO PUSH2 0x6C3 JUMPI PUSH1 0x0 DUP1 REVERT JUMPDEST PUSH1 0x1 PUSH1 0xA0 PUSH1 0x2 EXP SUB AND PUSH1 0x0 SWAP1 DUP2 MSTORE PUSH1 0x1 PUSH1 0x20 DUP2 SWAP1 MSTORE PUSH1 0x40 SWAP1 SWAP2 KECCAK256 SSTORE JUMP JUMPDEST PUSH1 0x0 PUSH1 0x2 PUSH2 0x6EC PUSH2 0x530 JUMP JUMPDEST DUP2 SLOAD DUP2 LT PUSH2 0x6FC JUMPI PUSH2 0x6FC PUSH2 0x7BE JUMP JUMPDEST SWAP1 PUSH1 0x0 MSTORE PUSH1 0x20 PUSH1 0x0 KECCAK256 SWAP1 PUSH1 0x2 MUL ADD PUSH1 0x0 ADD SLOAD SWAP1 POP SWAP1 JUMP JUMPDEST PUSH1 0x0 PUSH1 0x20 DUP3 DUP5 SUB SLT ISZERO PUSH2 0x725 JUMPI PUSH1 0x0 DUP1 REVERT JUMPDEST DUP2 CALLDATALOAD PUSH1 0x1 PUSH1 0xA0 PUSH1 0x2 EXP SUB DUP2 AND DUP2 EQ PUSH2 0x73C JUMPI PUSH1 0x0 DUP1 REVERT JUMPDEST SWAP4 SWAP3 POP POP POP JUMP JUMPDEST PUSH1 0x0 PUSH1 0x20 DUP3 DUP5 SUB SLT ISZERO PUSH2 0x755 JUMPI PUSH1 0x0 DUP1 REVERT JUMPDEST POP CALLDATALOAD SWAP2 SWAP1 POP JUMP JUMPDEST PUSH1 0x0 DUP3 NOT DUP3 GT ISZERO PUSH2 0x76F JUMPI PUSH2 0x76F PUSH2 0x78F JUMP JUMPDEST POP ADD SWAP1 JUMP JUMPDEST PUSH1 0x0 PUSH1 0x0 NOT DUP3 EQ ISZERO PUSH2 0x788 JUMPI PUSH2 0x788 PUSH2 0x78F JUMP JUMPDEST POP PUSH1 0x1 ADD SWAP1 JUMP JUMPDEST PUSH32 0x4E487B7100000000000000000000000000000000000000000000000000000000 PUSH1 0x0 MSTORE PUSH1 0x11 PUSH1 0x4 MSTORE PUSH1 0x24 PUSH1 0x0 REVERT JUMPDEST PUSH32 0x4E487B7100000000000000000000000000000000000000000000000000000000 PUSH1 0x0 MSTORE PUSH1 0x32 PUSH1 0x4 MSTORE PUSH1 0x24 PUSH1 0x0 REVERT INVALID LOG2 PUSH5 0x6970667358 0x22 SLT KECCAK256 GAS 0xB1 GASPRICE 0xC1 BLOCKHASH MULMOD 0xA6 ADDRESS SELFBALANCE 0xC0 0xAD 0xC5 0x27 0x25 0xBB PUSH20 0xB1A757400AFF0507CC6644E984412CA164736F6C PUSH4 0x43000807 STOP CALLER "
				},
				"gasEstimates": {
					"creation": {
						"codeDepositCost": "416600",
						"executionCost": "infinite",
						"totalCost": "infinite"
					},
					"external": {
						"chairperson()": "601",
						"delegate(address)": "infinite",
						"giveRightToVote(address)": "21547",
						"proposals(uint256)": "1048",
						"vote(uint256)": "61806",
						"voters(address)": "1371",
						"winnerName()": "infinite",
						"winningProposal()": "infinite"
					}
				},
				"methodIdentifiers": {
					"chairperson()": "2e4176cf",
					"delegate(address)": "5c19a95c",
					"giveRightToVote(address)": "9e7b8d61",
					"proposals(uint256)": "013cf08b",
					"vote(uint256)": "0121b93f",
					"voters(address)": "a3ec138d",
					"winnerName()": "e2ba53f0",
					"winningProposal()": "609ff1bd"
				}
			},
			"storageLayout": {
				"storage": [
					{
						"astId": 18,
						"contract": "contracts/3_Ballot.sol:Ballot",
						"label": "chairperson",
						"offset": 0,
						"slot": "0",
						"type": "t_address"
					},
					{
						"astId": 23,
						"contract": "contracts/3_Ballot.sol:Ballot",
						"label": "voters",
						"offset": 0,
						"slot": "1",
						"type": "t_mapping(t_address,t_struct(Voter)11_storage)"
					},
					{
						"astId": 27,
						"contract": "contracts/3_Ballot.sol:Ballot",
						"label": "proposals",
						"offset": 0,
						"slot": "2",
						"type": "t_array(t_struct(Proposal)16_storage)dyn_storage"
					}
				],
				"types": {
					"t_address": {
						"encoding": "inplace",
						"label": "address",
						"numberOfBytes": "20"
					},
					"t_array(t_struct(Proposal)16_storage)dyn_storage": {
						"base": "t_struct(Proposal)16_storage",
						"encoding": "dynamic_array",
						"label": "struct Ballot.Proposal[]",
						"numberOfBytes": "32"
					},
					"t_bool": {
						"encoding": "inplace",
						"label": "bool",
						"numberOfBytes": "1"
					},
					"t_bytes32": {
						"encoding": "inplace",
						"label": "bytes32",
						"numberOfBytes": "32"
					},
					"t_mapping(t_address,t_struct(Voter)11_storage)": {
						"encoding": "mapping",
						"key": "t_address",
						"label": "mapping(address => struct Ballot.Voter)",
						"numberOfBytes": "32",
						"value": "t_struct(Voter)11_storage"
					},
					"t_struct(Proposal)16_storage": {
						"encoding": "inplace",
						"label": "struct Ballot.Proposal",
						"members": [
							{
								"astId": 13,
								"contract": "contracts/3_Ballot.sol:Ballot",
								"label": "name",
								"offset": 0,
								"slot": "0",
								"type": "t_bytes32"
							},
							{
								"astId": 15,
								"contract": "contracts/3_Ballot.sol:Ballot",
								"label": "voteCount",
								"offset": 0,
								"slot": "1",
								"type": "t_uint256"
							}
						],
						"numberOfBytes": "64"
					},
					"t_struct(Voter)11_storage": {
						"encoding": "inplace",
						"label": "struct Ballot.Voter",
						"members": [
							{
								"astId": 4,
								"contract": "contracts/3_Ballot.sol:Ballot",
								"label": "weight",
								"offset": 0,
								"slot": "0",
								"type": "t_uint256"
							},
							{
								"astId": 6,
								"contract": "contracts/3_Ballot.sol:Ballot",
								"label": "voted",
								"offset": 0,
								"slot": "1",
								"type": "t_bool"
							},
							{
								"astId": 8,
								"contract": "contracts/3_Ballot.sol:Ballot",
								"label": "delegate",
								"offset": 1,
								"slot": "1",
								"type": "t_address"
							},
							{
								"astId": 10,
								"contract": "contracts/3_Ballot.sol:Ballot",
								"label": "vote",
								"offset": 0,
								"slot": "2",
								"type": "t_uint256"
							}
						],
						"numberOfBytes": "96"
					},
					"t_uint256": {
						"encoding": "inplace",
						"label": "uint256",
						"numberOfBytes": "32"
					}
				}
			},
			"userdoc": {
				"kind": "user",
				"methods": {},
				"version": 1
			}
		}
	}
}