{
	"contracts/token.sol": {
		"Token": {
			"abi": [
				{
					"inputs": [
						{
							"internalType": "address",
							"name": "",
							"type": "address"
						}
					],
					"name": "money",
					"outputs": [
						{
							"internalType": "uint256",
							"name": "",
							"type": "uint256"
						}
					],
					"stateMutability": "view",
					"type": "function"
				},
				{
					"inputs": [
						{
							"internalType": "address",
							"name": "_from",
							"type": "address"
						},
						{
							"internalType": "address",
							"name": "_to",
							"type": "address"
						},
						{
							"internalType": "uint256",
							"name": "_amount",
							"type": "uint256"
						}
					],
					"name": "sentToken",
					"outputs": [],
					"stateMutability": "nonpayable",
					"type": "function"
				},
				{
					"inputs": [
						{
							"internalType": "address",
							"name": "_adress",
							"type": "address"
						},
						{
							"internalType": "uint256",
							"name": "_amount",
							"type": "uint256"
						}
					],
					"name": "setToken",
					"outputs": [],
					"stateMutability": "nonpayable",
					"type": "function"
				}
			],
			"devdoc": {
				"kind": "dev",
				"methods": {},
				"version": 1
			},
			"evm": {
				"assembly": "    /* \"contracts/token.sol\":60:382  contract Token {\r... */\n  mstore(0x40, 0x80)\n  callvalue\n  dup1\n  iszero\n  tag_1\n  jumpi\n  0x00\n  dup1\n  revert\ntag_1:\n  pop\n  dataSize(sub_0)\n  dup1\n  dataOffset(sub_0)\n  0x00\n  codecopy\n  0x00\n  return\nstop\n\nsub_0: assembly {\n        /* \"contracts/token.sol\":60:382  contract Token {\r... */\n      mstore(0x40, 0x80)\n      callvalue\n      dup1\n      iszero\n      tag_1\n      jumpi\n      0x00\n      dup1\n      revert\n    tag_1:\n      pop\n      jumpi(tag_2, lt(calldatasize, 0x04))\n      div(calldataload(0x00), 0x0100000000000000000000000000000000000000000000000000000000)\n      0x15e1f7cd\n      dup2\n      eq\n      tag_3\n      jumpi\n      dup1\n      0x78bf2b53\n      eq\n      tag_4\n      jumpi\n      dup1\n      0xebbcccd7\n      eq\n      tag_5\n      jumpi\n    tag_2:\n      0x00\n      dup1\n      revert\n        /* \"contracts/token.sol\":82:120  mapping (address => uint) public money */\n    tag_3:\n      tag_6\n      tag_7\n      calldatasize\n      0x04\n      tag_8\n      jump\t// in\n    tag_7:\n      0x00\n      0x20\n      dup2\n      swap1\n      mstore\n      swap1\n      dup2\n      mstore\n      0x40\n      swap1\n      keccak256\n      sload\n      dup2\n      jump\n    tag_6:\n      mload(0x40)\n        /* \"#utility.yul\":1144:1169   */\n      swap1\n      dup2\n      mstore\n        /* \"#utility.yul\":1132:1134   */\n      0x20\n        /* \"#utility.yul\":1117:1135   */\n      add\n        /* \"contracts/token.sol\":82:120  mapping (address => uint) public money */\n      mload(0x40)\n      dup1\n      swap2\n      sub\n      swap1\n      return\n        /* \"contracts/token.sol\":129:229  function setToken (address _adress, uint _amount) public {\r... */\n    tag_4:\n      tag_12\n      tag_13\n      calldatasize\n      0x04\n      tag_14\n      jump\t// in\n    tag_13:\n        /* \"contracts/token.sol\":197:211  money[_adress] */\n      0xffffffffffffffffffffffffffffffffffffffff\n      swap1\n      swap2\n      and\n        /* \"contracts/token.sol\":197:202  money */\n      0x00\n        /* \"contracts/token.sol\":197:211  money[_adress] */\n      swap1\n      dup2\n      mstore\n      0x20\n      dup2\n      swap1\n      mstore\n      0x40\n      swap1\n      keccak256\n        /* \"contracts/token.sol\":197:221  money[_adress] = _amount */\n      sstore\n        /* \"contracts/token.sol\":129:229  function setToken (address _adress, uint _amount) public {\r... */\n      jump\n    tag_12:\n      stop\n        /* \"contracts/token.sol\":235:374  function sentToken(address _from,address _to,uint _amount) public{\r... */\n    tag_5:\n      tag_12\n      tag_17\n      calldatasize\n      0x04\n      tag_18\n      jump\t// in\n    tag_17:\n        /* \"contracts/token.sol\":311:323  money[_from] */\n      0xffffffffffffffffffffffffffffffffffffffff\n      dup4\n      and\n        /* \"contracts/token.sol\":311:316  money */\n      0x00\n        /* \"contracts/token.sol\":311:323  money[_from] */\n      swap1\n      dup2\n      mstore\n      0x20\n      dup2\n      swap1\n      mstore\n      0x40\n      dup2\n      keccak256\n        /* \"contracts/token.sol\":311:334  money[_from] -= _amount */\n      dup1\n      sload\n        /* \"contracts/token.sol\":327:334  _amount */\n      dup4\n      swap3\n        /* \"contracts/token.sol\":311:316  money */\n      swap1\n        /* \"contracts/token.sol\":311:334  money[_from] -= _amount */\n      tag_22\n      swap1\n        /* \"contracts/token.sol\":327:334  _amount */\n      dup5\n      swap1\n        /* \"contracts/token.sol\":311:334  money[_from] -= _amount */\n      tag_23\n      jump\t// in\n    tag_22:\n      swap1\n      swap2\n      sstore\n      pop\n      pop\n        /* \"contracts/token.sol\":345:355  money[_to] */\n      0xffffffffffffffffffffffffffffffffffffffff\n      dup3\n      and\n        /* \"contracts/token.sol\":345:350  money */\n      0x00\n        /* \"contracts/token.sol\":345:355  money[_to] */\n      swap1\n      dup2\n      mstore\n      0x20\n      dup2\n      swap1\n      mstore\n      0x40\n      dup2\n      keccak256\n        /* \"contracts/token.sol\":345:366  money[_to] += _amount */\n      dup1\n      sload\n        /* \"contracts/token.sol\":359:366  _amount */\n      dup4\n      swap3\n        /* \"contracts/token.sol\":345:350  money */\n      swap1\n        /* \"contracts/token.sol\":345:366  money[_to] += _amount */\n      tag_24\n      swap1\n        /* \"contracts/token.sol\":359:366  _amount */\n      dup5\n      swap1\n        /* \"contracts/token.sol\":345:366  money[_to] += _amount */\n      tag_25\n      jump\t// in\n    tag_24:\n      swap1\n      swap2\n      sstore\n      pop\n      pop\n      pop\n      pop\n      pop\n        /* \"contracts/token.sol\":235:374  function sentToken(address _from,address _to,uint _amount) public{\r... */\n      jump\t// out\n        /* \"#utility.yul\":14:210   */\n    tag_27:\n        /* \"#utility.yul\":82:102   */\n      dup1\n      calldataload\n        /* \"#utility.yul\":142:184   */\n      0xffffffffffffffffffffffffffffffffffffffff\n        /* \"#utility.yul\":131:185   */\n      dup2\n      and\n        /* \"#utility.yul\":121:186   */\n      dup2\n      eq\n        /* \"#utility.yul\":111:204   */\n      tag_29\n      jumpi\n        /* \"#utility.yul\":200:201   */\n      0x00\n        /* \"#utility.yul\":197:198   */\n      dup1\n        /* \"#utility.yul\":190:202   */\n      revert\n        /* \"#utility.yul\":111:204   */\n    tag_29:\n        /* \"#utility.yul\":14:210   */\n      swap2\n      swap1\n      pop\n      jump\t// out\n        /* \"#utility.yul\":215:401   */\n    tag_8:\n        /* \"#utility.yul\":274:280   */\n      0x00\n        /* \"#utility.yul\":327:329   */\n      0x20\n        /* \"#utility.yul\":315:324   */\n      dup3\n        /* \"#utility.yul\":306:313   */\n      dup5\n        /* \"#utility.yul\":302:325   */\n      sub\n        /* \"#utility.yul\":298:330   */\n      slt\n        /* \"#utility.yul\":295:347   */\n      iszero\n      tag_31\n      jumpi\n        /* \"#utility.yul\":343:344   */\n      0x00\n        /* \"#utility.yul\":340:341   */\n      dup1\n        /* \"#utility.yul\":333:345   */\n      revert\n        /* \"#utility.yul\":295:347   */\n    tag_31:\n        /* \"#utility.yul\":366:395   */\n      tag_32\n        /* \"#utility.yul\":385:394   */\n      dup3\n        /* \"#utility.yul\":366:395   */\n      tag_27\n      jump\t// in\n    tag_32:\n        /* \"#utility.yul\":356:395   */\n      swap4\n        /* \"#utility.yul\":215:401   */\n      swap3\n      pop\n      pop\n      pop\n      jump\t// out\n        /* \"#utility.yul\":406:734   */\n    tag_18:\n        /* \"#utility.yul\":483:489   */\n      0x00\n        /* \"#utility.yul\":491:497   */\n      dup1\n        /* \"#utility.yul\":499:505   */\n      0x00\n        /* \"#utility.yul\":552:554   */\n      0x60\n        /* \"#utility.yul\":540:549   */\n      dup5\n        /* \"#utility.yul\":531:538   */\n      dup7\n        /* \"#utility.yul\":527:550   */\n      sub\n        /* \"#utility.yul\":523:555   */\n      slt\n        /* \"#utility.yul\":520:572   */\n      iszero\n      tag_34\n      jumpi\n        /* \"#utility.yul\":568:569   */\n      0x00\n        /* \"#utility.yul\":565:566   */\n      dup1\n        /* \"#utility.yul\":558:570   */\n      revert\n        /* \"#utility.yul\":520:572   */\n    tag_34:\n        /* \"#utility.yul\":591:620   */\n      tag_35\n        /* \"#utility.yul\":610:619   */\n      dup5\n        /* \"#utility.yul\":591:620   */\n      tag_27\n      jump\t// in\n    tag_35:\n        /* \"#utility.yul\":581:620   */\n      swap3\n      pop\n        /* \"#utility.yul\":639:677   */\n      tag_36\n        /* \"#utility.yul\":673:675   */\n      0x20\n        /* \"#utility.yul\":662:671   */\n      dup6\n        /* \"#utility.yul\":658:676   */\n      add\n        /* \"#utility.yul\":639:677   */\n      tag_27\n      jump\t// in\n    tag_36:\n        /* \"#utility.yul\":629:677   */\n      swap2\n      pop\n        /* \"#utility.yul\":724:726   */\n      0x40\n        /* \"#utility.yul\":713:722   */\n      dup5\n        /* \"#utility.yul\":709:727   */\n      add\n        /* \"#utility.yul\":696:728   */\n      calldataload\n        /* \"#utility.yul\":686:728   */\n      swap1\n      pop\n        /* \"#utility.yul\":406:734   */\n      swap3\n      pop\n      swap3\n      pop\n      swap3\n      jump\t// out\n        /* \"#utility.yul\":739:993   */\n    tag_14:\n        /* \"#utility.yul\":807:813   */\n      0x00\n        /* \"#utility.yul\":815:821   */\n      dup1\n        /* \"#utility.yul\":868:870   */\n      0x40\n        /* \"#utility.yul\":856:865   */\n      dup4\n        /* \"#utility.yul\":847:854   */\n      dup6\n        /* \"#utility.yul\":843:866   */\n      sub\n        /* \"#utility.yul\":839:871   */\n      slt\n        /* \"#utility.yul\":836:888   */\n      iszero\n      tag_38\n      jumpi\n        /* \"#utility.yul\":884:885   */\n      0x00\n        /* \"#utility.yul\":881:882   */\n      dup1\n        /* \"#utility.yul\":874:886   */\n      revert\n        /* \"#utility.yul\":836:888   */\n    tag_38:\n        /* \"#utility.yul\":907:936   */\n      tag_39\n        /* \"#utility.yul\":926:935   */\n      dup4\n        /* \"#utility.yul\":907:936   */\n      tag_27\n      jump\t// in\n    tag_39:\n        /* \"#utility.yul\":897:936   */\n      swap5\n        /* \"#utility.yul\":983:985   */\n      0x20\n        /* \"#utility.yul\":968:986   */\n      swap4\n      swap1\n      swap4\n      add\n        /* \"#utility.yul\":955:987   */\n      calldataload\n      swap4\n      pop\n      pop\n      pop\n        /* \"#utility.yul\":739:993   */\n      jump\t// out\n        /* \"#utility.yul\":1180:1308   */\n    tag_25:\n        /* \"#utility.yul\":1220:1223   */\n      0x00\n        /* \"#utility.yul\":1251:1252   */\n      dup3\n        /* \"#utility.yul\":1247:1253   */\n      not\n        /* \"#utility.yul\":1244:1245   */\n      dup3\n        /* \"#utility.yul\":1241:1254   */\n      gt\n        /* \"#utility.yul\":1238:1277   */\n      iszero\n      tag_43\n      jumpi\n        /* \"#utility.yul\":1257:1275   */\n      tag_43\n      tag_44\n      jump\t// in\n    tag_43:\n      pop\n        /* \"#utility.yul\":1293:1302   */\n      add\n      swap1\n        /* \"#utility.yul\":1180:1308   */\n      jump\t// out\n        /* \"#utility.yul\":1313:1438   */\n    tag_23:\n        /* \"#utility.yul\":1353:1357   */\n      0x00\n        /* \"#utility.yul\":1381:1382   */\n      dup3\n        /* \"#utility.yul\":1378:1379   */\n      dup3\n        /* \"#utility.yul\":1375:1383   */\n      lt\n        /* \"#utility.yul\":1372:1406   */\n      iszero\n      tag_47\n      jumpi\n        /* \"#utility.yul\":1386:1404   */\n      tag_47\n      tag_44\n      jump\t// in\n    tag_47:\n      pop\n        /* \"#utility.yul\":1423:1432   */\n      sub\n      swap1\n        /* \"#utility.yul\":1313:1438   */\n      jump\t// out\n        /* \"#utility.yul\":1443:1627   */\n    tag_44:\n        /* \"#utility.yul\":1495:1572   */\n      0x4e487b7100000000000000000000000000000000000000000000000000000000\n        /* \"#utility.yul\":1492:1493   */\n      0x00\n        /* \"#utility.yul\":1485:1573   */\n      mstore\n        /* \"#utility.yul\":1592:1596   */\n      0x11\n        /* \"#utility.yul\":1589:1590   */\n      0x04\n        /* \"#utility.yul\":1582:1597   */\n      mstore\n        /* \"#utility.yul\":1616:1620   */\n      0x24\n        /* \"#utility.yul\":1613:1614   */\n      0x00\n        /* \"#utility.yul\":1606:1621   */\n      revert\n\n    auxdata: 0xa264697066735822122025394a6d5be0bed1f7751afd8047ef813c74cf9e1fa1c5fb7e1b9e816e65771964736f6c63430008070033\n}\n",
				"bytecode": {
					"linkReferences": {},
					"object": "608060405234801561001057600080fd5b50610299806100206000396000f3fe608060405234801561001057600080fd5b506004361061005d577c0100000000000000000000000000000000000000000000000000000000600035046315e1f7cd811461006257806378bf2b5314610094578063ebbcccd7146100cd575b600080fd5b61008261007036600461017d565b60006020819052908152604090205481565b60405190815260200160405180910390f35b6100cb6100a23660046101db565b73ffffffffffffffffffffffffffffffffffffffff909116600090815260208190526040902055565b005b6100cb6100db36600461019f565b73ffffffffffffffffffffffffffffffffffffffff83166000908152602081905260408120805483929061011090849061021d565b909155505073ffffffffffffffffffffffffffffffffffffffff82166000908152602081905260408120805483929061014a908490610205565b9091555050505050565b803573ffffffffffffffffffffffffffffffffffffffff8116811461017857600080fd5b919050565b60006020828403121561018f57600080fd5b61019882610154565b9392505050565b6000806000606084860312156101b457600080fd5b6101bd84610154565b92506101cb60208501610154565b9150604084013590509250925092565b600080604083850312156101ee57600080fd5b6101f783610154565b946020939093013593505050565b6000821982111561021857610218610234565b500190565b60008282101561022f5761022f610234565b500390565b7f4e487b7100000000000000000000000000000000000000000000000000000000600052601160045260246000fdfea264697066735822122025394a6d5be0bed1f7751afd8047ef813c74cf9e1fa1c5fb7e1b9e816e65771964736f6c63430008070033",
					"opcodes": "PUSH1 0x80 PUSH1 0x40 MSTORE CALLVALUE DUP1 ISZERO PUSH2 0x10 JUMPI PUSH1 0x0 DUP1 REVERT JUMPDEST POP PUSH2 0x299 DUP1 PUSH2 0x20 PUSH1 0x0 CODECOPY PUSH1 0x0 RETURN INVALID PUSH1 0x80 PUSH1 0x40 MSTORE CALLVALUE DUP1 ISZERO PUSH2 0x10 JUMPI PUSH1 0x0 DUP1 REVERT JUMPDEST POP PUSH1 0x4 CALLDATASIZE LT PUSH2 0x5D JUMPI PUSH29 0x100000000000000000000000000000000000000000000000000000000 PUSH1 0x0 CALLDATALOAD DIV PUSH4 0x15E1F7CD DUP2 EQ PUSH2 0x62 JUMPI DUP1 PUSH4 0x78BF2B53 EQ PUSH2 0x94 JUMPI DUP1 PUSH4 0xEBBCCCD7 EQ PUSH2 0xCD JUMPI JUMPDEST PUSH1 0x0 DUP1 REVERT JUMPDEST PUSH2 0x82 PUSH2 0x70 CALLDATASIZE PUSH1 0x4 PUSH2 0x17D JUMP JUMPDEST PUSH1 0x0 PUSH1 0x20 DUP2 SWAP1 MSTORE SWAP1 DUP2 MSTORE PUSH1 0x40 SWAP1 KECCAK256 SLOAD DUP2 JUMP JUMPDEST PUSH1 0x40 MLOAD SWAP1 DUP2 MSTORE PUSH1 0x20 ADD PUSH1 0x40 MLOAD DUP1 SWAP2 SUB SWAP1 RETURN JUMPDEST PUSH2 0xCB PUSH2 0xA2 CALLDATASIZE PUSH1 0x4 PUSH2 0x1DB JUMP JUMPDEST PUSH20 0xFFFFFFFFFFFFFFFFFFFFFFFFFFFFFFFFFFFFFFFF SWAP1 SWAP2 AND PUSH1 0x0 SWAP1 DUP2 MSTORE PUSH1 0x20 DUP2 SWAP1 MSTORE PUSH1 0x40 SWAP1 KECCAK256 SSTORE JUMP JUMPDEST STOP JUMPDEST PUSH2 0xCB PUSH2 0xDB CALLDATASIZE PUSH1 0x4 PUSH2 0x19F JUMP JUMPDEST PUSH20 0xFFFFFFFFFFFFFFFFFFFFFFFFFFFFFFFFFFFFFFFF DUP4 AND PUSH1 0x0 SWAP1 DUP2 MSTORE PUSH1 0x20 DUP2 SWAP1 MSTORE PUSH1 0x40 DUP2 KECCAK256 DUP1 SLOAD DUP4 SWAP3 SWAP1 PUSH2 0x110 SWAP1 DUP5 SWAP1 PUSH2 0x21D JUMP JUMPDEST SWAP1 SWAP2 SSTORE POP POP PUSH20 0xFFFFFFFFFFFFFFFFFFFFFFFFFFFFFFFFFFFFFFFF DUP3 AND PUSH1 0x0 SWAP1 DUP2 MSTORE PUSH1 0x20 DUP2 SWAP1 MSTORE PUSH1 0x40 DUP2 KECCAK256 DUP1 SLOAD DUP4 SWAP3 SWAP1 PUSH2 0x14A SWAP1 DUP5 SWAP1 PUSH2 0x205 JUMP JUMPDEST SWAP1 SWAP2 SSTORE POP POP POP POP POP JUMP JUMPDEST DUP1 CALLDATALOAD PUSH20 0xFFFFFFFFFFFFFFFFFFFFFFFFFFFFFFFFFFFFFFFF DUP2 AND DUP2 EQ PUSH2 0x178 JUMPI PUSH1 0x0 DUP1 REVERT JUMPDEST SWAP2 SWAP1 POP JUMP JUMPDEST PUSH1 0x0 PUSH1 0x20 DUP3 DUP5 SUB SLT ISZERO PUSH2 0x18F JUMPI PUSH1 0x0 DUP1 REVERT JUMPDEST PUSH2 0x198 DUP3 PUSH2 0x154 JUMP JUMPDEST SWAP4 SWAP3 POP POP POP JUMP JUMPDEST PUSH1 0x0 DUP1 PUSH1 0x0 PUSH1 0x60 DUP5 DUP7 SUB SLT ISZERO PUSH2 0x1B4 JUMPI PUSH1 0x0 DUP1 REVERT JUMPDEST PUSH2 0x1BD DUP5 PUSH2 0x154 JUMP JUMPDEST SWAP3 POP PUSH2 0x1CB PUSH1 0x20 DUP6 ADD PUSH2 0x154 JUMP JUMPDEST SWAP2 POP PUSH1 0x40 DUP5 ADD CALLDATALOAD SWAP1 POP SWAP3 POP SWAP3 POP SWAP3 JUMP JUMPDEST PUSH1 0x0 DUP1 PUSH1 0x40 DUP4 DUP6 SUB SLT ISZERO PUSH2 0x1EE JUMPI PUSH1 0x0 DUP1 REVERT JUMPDEST PUSH2 0x1F7 DUP4 PUSH2 0x154 JUMP JUMPDEST SWAP5 PUSH1 0x20 SWAP4 SWAP1 SWAP4 ADD CALLDATALOAD SWAP4 POP POP POP JUMP JUMPDEST PUSH1 0x0 DUP3 NOT DUP3 GT ISZERO PUSH2 0x218 JUMPI PUSH2 0x218 PUSH2 0x234 JUMP JUMPDEST POP ADD SWAP1 JUMP JUMPDEST PUSH1 0x0 DUP3 DUP3 LT ISZERO PUSH2 0x22F JUMPI PUSH2 0x22F PUSH2 0x234 JUMP JUMPDEST POP SUB SWAP1 JUMP JUMPDEST PUSH32 0x4E487B7100000000000000000000000000000000000000000000000000000000 PUSH1 0x0 MSTORE PUSH1 0x11 PUSH1 0x4 MSTORE PUSH1 0x24 PUSH1 0x0 REVERT INVALID LOG2 PUSH5 0x6970667358 0x22 SLT KECCAK256 0x25 CODECOPY 0x4A PUSH14 0x5BE0BED1F7751AFD8047EF813C74 0xCF SWAP15 0x1F LOG1 0xC5 0xFB PUSH31 0x1B9E816E65771964736F6C6343000807003300000000000000000000000000 "
				},
				"gasEstimates": {
					"creation": {
						"codeDepositCost": "133000",
						"executionCost": "177",
						"totalCost": "133177"
					},
					"external": {
						"money(address)": "578",
						"sentToken(address,address,uint256)": "infinite",
						"setToken(address,uint256)": "20385"
					}
				},
				"methodIdentifiers": {
					"money(address)": "15e1f7cd",
					"sentToken(address,address,uint256)": "ebbcccd7",
					"setToken(address,uint256)": "78bf2b53"
				}
			},
			"storageLayout": {
				"storage": [
					{
						"astId": 5,
						"contract": "contracts/token.sol:Token",
						"label": "money",
						"offset": 0,
						"slot": "0",
						"type": "t_mapping(t_address,t_uint256)"
					}
				],
				"types": {
					"t_address": {
						"encoding": "inplace",
						"label": "address",
						"numberOfBytes": "20"
					},
					"t_mapping(t_address,t_uint256)": {
						"encoding": "mapping",
						"key": "t_address",
						"label": "mapping(address => uint256)",
						"numberOfBytes": "32",
						"value": "t_uint256"
					},
					"t_uint256": {
						"encoding": "inplace",
						"label": "uint256",
						"numberOfBytes": "32"
					}
				}
			},
			"userdoc": {
				"kind": "user",
				"methods": {},
				"version": 1
			}
		}
	}
}