{
	"contracts/Events.sol": {
		"Events": {
			"abi": [
				{
					"anonymous": false,
					"inputs": [
						{
							"indexed": false,
							"internalType": "uint256",
							"name": "orderNumber",
							"type": "uint256"
						},
						{
							"indexed": false,
							"internalType": "address",
							"name": "costumer",
							"type": "address"
						}
					],
					"name": "addingOrder",
					"type": "event"
				},
				{
					"anonymous": false,
					"inputs": [
						{
							"indexed": false,
							"internalType": "uint256",
							"name": "orderNumber",
							"type": "uint256"
						},
						{
							"indexed": false,
							"internalType": "address",
							"name": "customer",
							"type": "address"
						},
						{
							"indexed": false,
							"internalType": "uint256",
							"name": "completingTime",
							"type": "uint256"
						}
					],
					"name": "switchingOrder",
					"type": "event"
				},
				{
					"inputs": [
						{
							"internalType": "string",
							"name": "customerName",
							"type": "string"
						}
					],
					"name": "addOrder",
					"outputs": [],
					"stateMutability": "nonpayable",
					"type": "function"
				},
				{
					"inputs": [
						{
							"internalType": "uint256",
							"name": "",
							"type": "uint256"
						}
					],
					"name": "array",
					"outputs": [
						{
							"internalType": "address",
							"name": "customerAddress",
							"type": "address"
						},
						{
							"internalType": "string",
							"name": "customerName",
							"type": "string"
						},
						{
							"internalType": "uint256",
							"name": "creatingTime",
							"type": "uint256"
						},
						{
							"internalType": "bool",
							"name": "orderStatus",
							"type": "bool"
						}
					],
					"stateMutability": "view",
					"type": "function"
				},
				{
					"inputs": [
						{
							"internalType": "uint256",
							"name": "indexOfArray",
							"type": "uint256"
						}
					],
					"name": "switchStatus",
					"outputs": [],
					"stateMutability": "nonpayable",
					"type": "function"
				}
			],
			"devdoc": {
				"kind": "dev",
				"methods": {},
				"version": 1
			},
			"evm": {
				"assembly": "    /* \"contracts/Events.sol\":64:995  contract Events {\r... */\n  mstore(0x40, 0x80)\n  callvalue\n  dup1\n  iszero\n  tag_1\n  jumpi\n  0x00\n  dup1\n  revert\ntag_1:\n  pop\n  dataSize(sub_0)\n  dup1\n  dataOffset(sub_0)\n  0x00\n  codecopy\n  0x00\n  return\nstop\n\nsub_0: assembly {\n        /* \"contracts/Events.sol\":64:995  contract Events {\r... */\n      mstore(0x40, 0x80)\n      callvalue\n      dup1\n      iszero\n      tag_1\n      jumpi\n      0x00\n      dup1\n      revert\n    tag_1:\n      pop\n      jumpi(tag_2, lt(calldatasize, 0x04))\n      shr(0xe0, calldataload(0x00))\n      dup1\n      0x2cca04df\n      eq\n      tag_3\n      jumpi\n      dup1\n      0x38d94193\n      eq\n      tag_4\n      jumpi\n      dup1\n      0xffe30359\n      eq\n      tag_5\n      jumpi\n    tag_2:\n      0x00\n      dup1\n      revert\n        /* \"contracts/Events.sol\":477:720  function addOrder(string memory customerName) public {        \r... */\n    tag_3:\n      tag_6\n      0x04\n      dup1\n      calldatasize\n      sub\n      dup2\n      add\n      swap1\n      tag_7\n      swap2\n      swap1\n      tag_8\n      jump\t// in\n    tag_7:\n      tag_9\n      jump\t// in\n    tag_6:\n      stop\n        /* \"contracts/Events.sol\":444:464  Order[] public array */\n    tag_4:\n      tag_10\n      0x04\n      dup1\n      calldatasize\n      sub\n      dup2\n      add\n      swap1\n      tag_11\n      swap2\n      swap1\n      tag_12\n      jump\t// in\n    tag_11:\n      tag_13\n      jump\t// in\n    tag_10:\n      mload(0x40)\n      tag_14\n      swap5\n      swap4\n      swap3\n      swap2\n      swap1\n      tag_15\n      jump\t// in\n    tag_14:\n      mload(0x40)\n      dup1\n      swap2\n      sub\n      swap1\n      return\n        /* \"contracts/Events.sol\":728:992  function switchStatus(uint indexOfArray) public{\r... */\n    tag_5:\n      tag_16\n      0x04\n      dup1\n      calldatasize\n      sub\n      dup2\n      add\n      swap1\n      tag_17\n      swap2\n      swap1\n      tag_12\n      jump\t// in\n    tag_17:\n      tag_18\n      jump\t// in\n    tag_16:\n      stop\n        /* \"contracts/Events.sol\":477:720  function addOrder(string memory customerName) public {        \r... */\n    tag_9:\n        /* \"contracts/Events.sol\":557:609  Order(msg.sender,customerName,block.timestamp,false) */\n      mload(0x40)\n      dup1\n      0x80\n      add\n      0x40\n      mstore\n      dup1\n        /* \"contracts/Events.sol\":563:573  msg.sender */\n      caller\n        /* \"contracts/Events.sol\":557:609  Order(msg.sender,customerName,block.timestamp,false) */\n      0xffffffffffffffffffffffffffffffffffffffff\n      and\n      dup2\n      mstore\n      0x20\n      add\n        /* \"contracts/Events.sol\":574:586  customerName */\n      dup3\n        /* \"contracts/Events.sol\":557:609  Order(msg.sender,customerName,block.timestamp,false) */\n      dup2\n      mstore\n      0x20\n      add\n        /* \"contracts/Events.sol\":587:602  block.timestamp */\n      timestamp\n        /* \"contracts/Events.sol\":557:609  Order(msg.sender,customerName,block.timestamp,false) */\n      dup2\n      mstore\n      0x20\n      add\n        /* \"contracts/Events.sol\":603:608  false */\n      0x00\n        /* \"contracts/Events.sol\":557:609  Order(msg.sender,customerName,block.timestamp,false) */\n      iszero\n      iszero\n      dup2\n      mstore\n      pop\n        /* \"contracts/Events.sol\":549:554  order */\n      0x02\n        /* \"contracts/Events.sol\":549:609  order = Order(msg.sender,customerName,block.timestamp,false) */\n      0x00\n      dup3\n      add\n      mload\n      dup2\n      0x00\n      add\n      exp(0x0100, 0x00)\n      dup2\n      sload\n      dup2\n      0xffffffffffffffffffffffffffffffffffffffff\n      mul\n      not\n      and\n      swap1\n      dup4\n      0xffffffffffffffffffffffffffffffffffffffff\n      and\n      mul\n      or\n      swap1\n      sstore\n      pop\n      0x20\n      dup3\n      add\n      mload\n      dup2\n      0x01\n      add\n      swap1\n      dup1\n      mload\n      swap1\n      0x20\n      add\n      swap1\n      tag_20\n      swap3\n      swap2\n      swap1\n      tag_21\n      jump\t// in\n    tag_20:\n      pop\n      0x40\n      dup3\n      add\n      mload\n      dup2\n      0x02\n      add\n      sstore\n      0x60\n      dup3\n      add\n      mload\n      dup2\n      0x03\n      add\n      exp(0x0100, 0x00)\n      dup2\n      sload\n      dup2\n      0xff\n      mul\n      not\n      and\n      swap1\n      dup4\n      iszero\n      iszero\n      mul\n      or\n      swap1\n      sstore\n      pop\n      swap1\n      pop\n      pop\n        /* \"contracts/Events.sol\":620:625  array */\n      0x06\n        /* \"contracts/Events.sol\":631:636  order */\n      0x02\n        /* \"contracts/Events.sol\":620:637  array.push(order) */\n      swap1\n      dup1\n      0x01\n      dup2\n      sload\n      add\n      dup1\n      dup3\n      sstore\n      dup1\n      swap2\n      pop\n      pop\n      0x01\n      swap1\n      sub\n      swap1\n      0x00\n      mstore\n      keccak256(0x00, 0x20)\n      swap1\n      0x04\n      mul\n      add\n      0x00\n      swap1\n      swap2\n      swap1\n      swap2\n      swap1\n      swap2\n      pop\n      0x00\n      dup3\n      add\n      0x00\n      swap1\n      sload\n      swap1\n      0x0100\n      exp\n      swap1\n      div\n      0xffffffffffffffffffffffffffffffffffffffff\n      and\n      dup2\n      0x00\n      add\n      exp(0x0100, 0x00)\n      dup2\n      sload\n      dup2\n      0xffffffffffffffffffffffffffffffffffffffff\n      mul\n      not\n      and\n      swap1\n      dup4\n      0xffffffffffffffffffffffffffffffffffffffff\n      and\n      mul\n      or\n      swap1\n      sstore\n      pop\n      0x01\n      dup3\n      add\n      dup2\n      0x01\n      add\n      swap1\n      dup1\n      sload\n      tag_23\n      swap1\n      tag_24\n      jump\t// in\n    tag_23:\n      tag_25\n      swap3\n      swap2\n      swap1\n      tag_26\n      jump\t// in\n    tag_25:\n      pop\n      0x02\n      dup3\n      add\n      sload\n      dup2\n      0x02\n      add\n      sstore\n      0x03\n      dup3\n      add\n      0x00\n      swap1\n      sload\n      swap1\n      0x0100\n      exp\n      swap1\n      div\n      0xff\n      and\n      dup2\n      0x03\n      add\n      exp(0x0100, 0x00)\n      dup2\n      sload\n      dup2\n      0xff\n      mul\n      not\n      and\n      swap1\n      dup4\n      iszero\n      iszero\n      mul\n      or\n      swap1\n      sstore\n      pop\n      pop\n      pop\n        /* \"contracts/Events.sol\":648:659  orderNumber */\n      0x01\n      0x00\n        /* \"contracts/Events.sol\":648:661  orderNumber++ */\n      dup2\n      sload\n      dup1\n      swap3\n      swap2\n      swap1\n      tag_27\n      swap1\n      tag_28\n      jump\t// in\n    tag_27:\n      swap2\n      swap1\n      pop\n      sstore\n      pop\n        /* \"contracts/Events.sol\":677:712  addingOrder(orderNumber,msg.sender) */\n      0xb4d3f0ab211e9f869e41905addd6760c2c83c6acddb957c6997256cb927e3058\n        /* \"contracts/Events.sol\":689:700  orderNumber */\n      sload(0x01)\n        /* \"contracts/Events.sol\":701:711  msg.sender */\n      caller\n        /* \"contracts/Events.sol\":677:712  addingOrder(orderNumber,msg.sender) */\n      mload(0x40)\n      tag_29\n      swap3\n      swap2\n      swap1\n      tag_30\n      jump\t// in\n    tag_29:\n      mload(0x40)\n      dup1\n      swap2\n      sub\n      swap1\n      log1\n        /* \"contracts/Events.sol\":477:720  function addOrder(string memory customerName) public {        \r... */\n      pop\n      jump\t// out\n        /* \"contracts/Events.sol\":444:464  Order[] public array */\n    tag_13:\n      0x06\n      dup2\n      dup2\n      sload\n      dup2\n      lt\n      tag_31\n      jumpi\n      0x00\n      dup1\n      revert\n    tag_31:\n      swap1\n      0x00\n      mstore\n      keccak256(0x00, 0x20)\n      swap1\n      0x04\n      mul\n      add\n      0x00\n      swap2\n      pop\n      swap1\n      pop\n      dup1\n      0x00\n      add\n      0x00\n      swap1\n      sload\n      swap1\n      0x0100\n      exp\n      swap1\n      div\n      0xffffffffffffffffffffffffffffffffffffffff\n      and\n      swap1\n      dup1\n      0x01\n      add\n      dup1\n      sload\n      tag_33\n      swap1\n      tag_24\n      jump\t// in\n    tag_33:\n      dup1\n      0x1f\n      add\n      0x20\n      dup1\n      swap2\n      div\n      mul\n      0x20\n      add\n      mload(0x40)\n      swap1\n      dup2\n      add\n      0x40\n      mstore\n      dup1\n      swap3\n      swap2\n      swap1\n      dup2\n      dup2\n      mstore\n      0x20\n      add\n      dup3\n      dup1\n      sload\n      tag_34\n      swap1\n      tag_24\n      jump\t// in\n    tag_34:\n      dup1\n      iszero\n      tag_35\n      jumpi\n      dup1\n      0x1f\n      lt\n      tag_36\n      jumpi\n      0x0100\n      dup1\n      dup4\n      sload\n      div\n      mul\n      dup4\n      mstore\n      swap2\n      0x20\n      add\n      swap2\n      jump(tag_35)\n    tag_36:\n      dup3\n      add\n      swap2\n      swap1\n      0x00\n      mstore\n      keccak256(0x00, 0x20)\n      swap1\n    tag_37:\n      dup2\n      sload\n      dup2\n      mstore\n      swap1\n      0x01\n      add\n      swap1\n      0x20\n      add\n      dup1\n      dup4\n      gt\n      tag_37\n      jumpi\n      dup3\n      swap1\n      sub\n      0x1f\n      and\n      dup3\n      add\n      swap2\n    tag_35:\n      pop\n      pop\n      pop\n      pop\n      pop\n      swap1\n      dup1\n      0x02\n      add\n      sload\n      swap1\n      dup1\n      0x03\n      add\n      0x00\n      swap1\n      sload\n      swap1\n      0x0100\n      exp\n      swap1\n      div\n      0xff\n      and\n      swap1\n      pop\n      dup5\n      jump\t// out\n        /* \"contracts/Events.sol\":728:992  function switchStatus(uint indexOfArray) public{\r... */\n    tag_18:\n        /* \"contracts/Events.sol\":789:794  array */\n      0x06\n        /* \"contracts/Events.sol\":795:807  indexOfArray */\n      dup2\n        /* \"contracts/Events.sol\":789:808  array[indexOfArray] */\n      dup2\n      sload\n      dup2\n      lt\n      tag_39\n      jumpi\n      tag_40\n      tag_41\n      jump\t// in\n    tag_40:\n    tag_39:\n      swap1\n      0x00\n      mstore\n      keccak256(0x00, 0x20)\n      swap1\n      0x04\n      mul\n      add\n        /* \"contracts/Events.sol\":789:820  array[indexOfArray].orderStatus */\n      0x03\n      add\n      0x00\n      swap1\n      sload\n      swap1\n      0x0100\n      exp\n      swap1\n      div\n      0xff\n      and\n        /* \"contracts/Events.sol\":786:865  if(array[indexOfArray].orderStatus) revert('Order status is already completed') */\n      iszero\n      tag_43\n      jumpi\n        /* \"contracts/Events.sol\":822:865  revert('Order status is already completed') */\n      mload(0x40)\n      0x08c379a000000000000000000000000000000000000000000000000000000000\n      dup2\n      mstore\n      0x04\n      add\n      tag_44\n      swap1\n      tag_45\n      jump\t// in\n    tag_44:\n      mload(0x40)\n      dup1\n      swap2\n      sub\n      swap1\n      revert\n        /* \"contracts/Events.sol\":786:865  if(array[indexOfArray].orderStatus) revert('Order status is already completed') */\n    tag_43:\n        /* \"contracts/Events.sol\":910:914  true */\n      0x01\n        /* \"contracts/Events.sol\":876:881  array */\n      0x06\n        /* \"contracts/Events.sol\":882:894  indexOfArray */\n      dup3\n        /* \"contracts/Events.sol\":876:895  array[indexOfArray] */\n      dup2\n      sload\n      dup2\n      lt\n      tag_46\n      jumpi\n      tag_47\n      tag_41\n      jump\t// in\n    tag_47:\n    tag_46:\n      swap1\n      0x00\n      mstore\n      keccak256(0x00, 0x20)\n      swap1\n      0x04\n      mul\n      add\n        /* \"contracts/Events.sol\":876:907  array[indexOfArray].orderStatus */\n      0x03\n      add\n      0x00\n        /* \"contracts/Events.sol\":876:914  array[indexOfArray].orderStatus = true */\n      0x0100\n      exp\n      dup2\n      sload\n      dup2\n      0xff\n      mul\n      not\n      and\n      swap1\n      dup4\n      iszero\n      iszero\n      mul\n      or\n      swap1\n      sstore\n      pop\n        /* \"contracts/Events.sol\":930:984  switchingOrder(orderNumber,msg.sender,block.timestamp) */\n      0x25a6dc4e7b36c92a59729842dda87265d48148269cbc53f0afa0261eceea2780\n        /* \"contracts/Events.sol\":945:956  orderNumber */\n      sload(0x01)\n        /* \"contracts/Events.sol\":957:967  msg.sender */\n      caller\n        /* \"contracts/Events.sol\":968:983  block.timestamp */\n      timestamp\n        /* \"contracts/Events.sol\":930:984  switchingOrder(orderNumber,msg.sender,block.timestamp) */\n      mload(0x40)\n      tag_49\n      swap4\n      swap3\n      swap2\n      swap1\n      tag_50\n      jump\t// in\n    tag_49:\n      mload(0x40)\n      dup1\n      swap2\n      sub\n      swap1\n      log1\n        /* \"contracts/Events.sol\":728:992  function switchStatus(uint indexOfArray) public{\r... */\n      pop\n      jump\t// out\n    tag_21:\n      dup3\n      dup1\n      sload\n      tag_51\n      swap1\n      tag_24\n      jump\t// in\n    tag_51:\n      swap1\n      0x00\n      mstore\n      keccak256(0x00, 0x20)\n      swap1\n      0x1f\n      add\n      0x20\n      swap1\n      div\n      dup2\n      add\n      swap3\n      dup3\n      tag_53\n      jumpi\n      0x00\n      dup6\n      sstore\n      jump(tag_52)\n    tag_53:\n      dup3\n      0x1f\n      lt\n      tag_54\n      jumpi\n      dup1\n      mload\n      not(0xff)\n      and\n      dup4\n      dup1\n      add\n      or\n      dup6\n      sstore\n      jump(tag_52)\n    tag_54:\n      dup3\n      dup1\n      add\n      0x01\n      add\n      dup6\n      sstore\n      dup3\n      iszero\n      tag_52\n      jumpi\n      swap2\n      dup3\n      add\n    tag_55:\n      dup3\n      dup2\n      gt\n      iszero\n      tag_56\n      jumpi\n      dup3\n      mload\n      dup3\n      sstore\n      swap2\n      0x20\n      add\n      swap2\n      swap1\n      0x01\n      add\n      swap1\n      jump(tag_55)\n    tag_56:\n    tag_52:\n      pop\n      swap1\n      pop\n      tag_57\n      swap2\n      swap1\n      tag_58\n      jump\t// in\n    tag_57:\n      pop\n      swap1\n      jump\t// out\n    tag_26:\n      dup3\n      dup1\n      sload\n      tag_59\n      swap1\n      tag_24\n      jump\t// in\n    tag_59:\n      swap1\n      0x00\n      mstore\n      keccak256(0x00, 0x20)\n      swap1\n      0x1f\n      add\n      0x20\n      swap1\n      div\n      dup2\n      add\n      swap3\n      dup3\n      tag_61\n      jumpi\n      0x00\n      dup6\n      sstore\n      jump(tag_60)\n    tag_61:\n      dup3\n      0x1f\n      lt\n      tag_62\n      jumpi\n      dup1\n      sload\n      dup6\n      sstore\n      jump(tag_60)\n    tag_62:\n      dup3\n      dup1\n      add\n      0x01\n      add\n      dup6\n      sstore\n      dup3\n      iszero\n      tag_60\n      jumpi\n      0x00\n      mstore\n      keccak256(0x00, 0x20)\n      swap2\n      0x1f\n      add\n      0x20\n      swap1\n      div\n      dup3\n      add\n    tag_63:\n      dup3\n      dup2\n      gt\n      iszero\n      tag_64\n      jumpi\n      dup3\n      sload\n      dup3\n      sstore\n      swap2\n      0x01\n      add\n      swap2\n      swap1\n      0x01\n      add\n      swap1\n      jump(tag_63)\n    tag_64:\n    tag_60:\n      pop\n      swap1\n      pop\n      tag_65\n      swap2\n      swap1\n      tag_58\n      jump\t// in\n    tag_65:\n      pop\n      swap1\n      jump\t// out\n    tag_58:\n    tag_66:\n      dup1\n      dup3\n      gt\n      iszero\n      tag_67\n      jumpi\n      0x00\n      dup2\n      0x00\n      swap1\n      sstore\n      pop\n      0x01\n      add\n      jump(tag_66)\n    tag_67:\n      pop\n      swap1\n      jump\t// out\n        /* \"#utility.yul\":7:419   */\n    tag_69:\n        /* \"#utility.yul\":85:90   */\n      0x00\n        /* \"#utility.yul\":110:176   */\n      tag_71\n        /* \"#utility.yul\":126:175   */\n      tag_72\n        /* \"#utility.yul\":168:174   */\n      dup5\n        /* \"#utility.yul\":126:175   */\n      tag_73\n      jump\t// in\n    tag_72:\n        /* \"#utility.yul\":110:176   */\n      tag_74\n      jump\t// in\n    tag_71:\n        /* \"#utility.yul\":101:176   */\n      swap1\n      pop\n        /* \"#utility.yul\":199:205   */\n      dup3\n        /* \"#utility.yul\":192:197   */\n      dup2\n        /* \"#utility.yul\":185:206   */\n      mstore\n        /* \"#utility.yul\":237:241   */\n      0x20\n        /* \"#utility.yul\":230:235   */\n      dup2\n        /* \"#utility.yul\":226:242   */\n      add\n        /* \"#utility.yul\":275:278   */\n      dup5\n        /* \"#utility.yul\":266:272   */\n      dup5\n        /* \"#utility.yul\":261:264   */\n      dup5\n        /* \"#utility.yul\":257:273   */\n      add\n        /* \"#utility.yul\":254:279   */\n      gt\n        /* \"#utility.yul\":251:363   */\n      iszero\n      tag_75\n      jumpi\n        /* \"#utility.yul\":282:361   */\n      tag_76\n      tag_77\n      jump\t// in\n    tag_76:\n        /* \"#utility.yul\":251:363   */\n    tag_75:\n        /* \"#utility.yul\":372:413   */\n      tag_78\n        /* \"#utility.yul\":406:412   */\n      dup5\n        /* \"#utility.yul\":401:404   */\n      dup3\n        /* \"#utility.yul\":396:399   */\n      dup6\n        /* \"#utility.yul\":372:413   */\n      tag_79\n      jump\t// in\n    tag_78:\n        /* \"#utility.yul\":91:419   */\n      pop\n        /* \"#utility.yul\":7:419   */\n      swap4\n      swap3\n      pop\n      pop\n      pop\n      jump\t// out\n        /* \"#utility.yul\":439:779   */\n    tag_80:\n        /* \"#utility.yul\":495:500   */\n      0x00\n        /* \"#utility.yul\":544:547   */\n      dup3\n        /* \"#utility.yul\":537:541   */\n      0x1f\n        /* \"#utility.yul\":529:535   */\n      dup4\n        /* \"#utility.yul\":525:542   */\n      add\n        /* \"#utility.yul\":521:548   */\n      slt\n        /* \"#utility.yul\":511:633   */\n      tag_82\n      jumpi\n        /* \"#utility.yul\":552:631   */\n      tag_83\n      tag_84\n      jump\t// in\n    tag_83:\n        /* \"#utility.yul\":511:633   */\n    tag_82:\n        /* \"#utility.yul\":669:675   */\n      dup2\n        /* \"#utility.yul\":656:676   */\n      calldataload\n        /* \"#utility.yul\":694:773   */\n      tag_85\n        /* \"#utility.yul\":769:772   */\n      dup5\n        /* \"#utility.yul\":761:767   */\n      dup3\n        /* \"#utility.yul\":754:758   */\n      0x20\n        /* \"#utility.yul\":746:752   */\n      dup7\n        /* \"#utility.yul\":742:759   */\n      add\n        /* \"#utility.yul\":694:773   */\n      tag_69\n      jump\t// in\n    tag_85:\n        /* \"#utility.yul\":685:773   */\n      swap2\n      pop\n        /* \"#utility.yul\":501:779   */\n      pop\n        /* \"#utility.yul\":439:779   */\n      swap3\n      swap2\n      pop\n      pop\n      jump\t// out\n        /* \"#utility.yul\":785:924   */\n    tag_86:\n        /* \"#utility.yul\":831:836   */\n      0x00\n        /* \"#utility.yul\":869:875   */\n      dup2\n        /* \"#utility.yul\":856:876   */\n      calldataload\n        /* \"#utility.yul\":847:876   */\n      swap1\n      pop\n        /* \"#utility.yul\":885:918   */\n      tag_88\n        /* \"#utility.yul\":912:917   */\n      dup2\n        /* \"#utility.yul\":885:918   */\n      tag_89\n      jump\t// in\n    tag_88:\n        /* \"#utility.yul\":785:924   */\n      swap3\n      swap2\n      pop\n      pop\n      jump\t// out\n        /* \"#utility.yul\":930:1439   */\n    tag_8:\n        /* \"#utility.yul\":999:1005   */\n      0x00\n        /* \"#utility.yul\":1048:1050   */\n      0x20\n        /* \"#utility.yul\":1036:1045   */\n      dup3\n        /* \"#utility.yul\":1027:1034   */\n      dup5\n        /* \"#utility.yul\":1023:1046   */\n      sub\n        /* \"#utility.yul\":1019:1051   */\n      slt\n        /* \"#utility.yul\":1016:1135   */\n      iszero\n      tag_91\n      jumpi\n        /* \"#utility.yul\":1054:1133   */\n      tag_92\n      tag_93\n      jump\t// in\n    tag_92:\n        /* \"#utility.yul\":1016:1135   */\n    tag_91:\n        /* \"#utility.yul\":1202:1203   */\n      0x00\n        /* \"#utility.yul\":1191:1200   */\n      dup3\n        /* \"#utility.yul\":1187:1204   */\n      add\n        /* \"#utility.yul\":1174:1205   */\n      calldataload\n        /* \"#utility.yul\":1232:1250   */\n      0xffffffffffffffff\n        /* \"#utility.yul\":1224:1230   */\n      dup2\n        /* \"#utility.yul\":1221:1251   */\n      gt\n        /* \"#utility.yul\":1218:1335   */\n      iszero\n      tag_94\n      jumpi\n        /* \"#utility.yul\":1254:1333   */\n      tag_95\n      tag_96\n      jump\t// in\n    tag_95:\n        /* \"#utility.yul\":1218:1335   */\n    tag_94:\n        /* \"#utility.yul\":1359:1422   */\n      tag_97\n        /* \"#utility.yul\":1414:1421   */\n      dup5\n        /* \"#utility.yul\":1405:1411   */\n      dup3\n        /* \"#utility.yul\":1394:1403   */\n      dup6\n        /* \"#utility.yul\":1390:1412   */\n      add\n        /* \"#utility.yul\":1359:1422   */\n      tag_80\n      jump\t// in\n    tag_97:\n        /* \"#utility.yul\":1349:1422   */\n      swap2\n      pop\n        /* \"#utility.yul\":1145:1432   */\n      pop\n        /* \"#utility.yul\":930:1439   */\n      swap3\n      swap2\n      pop\n      pop\n      jump\t// out\n        /* \"#utility.yul\":1445:1774   */\n    tag_12:\n        /* \"#utility.yul\":1504:1510   */\n      0x00\n        /* \"#utility.yul\":1553:1555   */\n      0x20\n        /* \"#utility.yul\":1541:1550   */\n      dup3\n        /* \"#utility.yul\":1532:1539   */\n      dup5\n        /* \"#utility.yul\":1528:1551   */\n      sub\n        /* \"#utility.yul\":1524:1556   */\n      slt\n        /* \"#utility.yul\":1521:1640   */\n      iszero\n      tag_99\n      jumpi\n        /* \"#utility.yul\":1559:1638   */\n      tag_100\n      tag_93\n      jump\t// in\n    tag_100:\n        /* \"#utility.yul\":1521:1640   */\n    tag_99:\n        /* \"#utility.yul\":1679:1680   */\n      0x00\n        /* \"#utility.yul\":1704:1757   */\n      tag_101\n        /* \"#utility.yul\":1749:1756   */\n      dup5\n        /* \"#utility.yul\":1740:1746   */\n      dup3\n        /* \"#utility.yul\":1729:1738   */\n      dup6\n        /* \"#utility.yul\":1725:1747   */\n      add\n        /* \"#utility.yul\":1704:1757   */\n      tag_86\n      jump\t// in\n    tag_101:\n        /* \"#utility.yul\":1694:1757   */\n      swap2\n      pop\n        /* \"#utility.yul\":1650:1767   */\n      pop\n        /* \"#utility.yul\":1445:1774   */\n      swap3\n      swap2\n      pop\n      pop\n      jump\t// out\n        /* \"#utility.yul\":1780:1898   */\n    tag_102:\n        /* \"#utility.yul\":1867:1891   */\n      tag_104\n        /* \"#utility.yul\":1885:1890   */\n      dup2\n        /* \"#utility.yul\":1867:1891   */\n      tag_105\n      jump\t// in\n    tag_104:\n        /* \"#utility.yul\":1862:1865   */\n      dup3\n        /* \"#utility.yul\":1855:1892   */\n      mstore\n        /* \"#utility.yul\":1780:1898   */\n      pop\n      pop\n      jump\t// out\n        /* \"#utility.yul\":1904:2013   */\n    tag_106:\n        /* \"#utility.yul\":1985:2006   */\n      tag_108\n        /* \"#utility.yul\":2000:2005   */\n      dup2\n        /* \"#utility.yul\":1985:2006   */\n      tag_109\n      jump\t// in\n    tag_108:\n        /* \"#utility.yul\":1980:1983   */\n      dup3\n        /* \"#utility.yul\":1973:2007   */\n      mstore\n        /* \"#utility.yul\":1904:2013   */\n      pop\n      pop\n      jump\t// out\n        /* \"#utility.yul\":2019:2383   */\n    tag_110:\n        /* \"#utility.yul\":2107:2110   */\n      0x00\n        /* \"#utility.yul\":2135:2174   */\n      tag_112\n        /* \"#utility.yul\":2168:2173   */\n      dup3\n        /* \"#utility.yul\":2135:2174   */\n      tag_113\n      jump\t// in\n    tag_112:\n        /* \"#utility.yul\":2190:2261   */\n      tag_114\n        /* \"#utility.yul\":2254:2260   */\n      dup2\n        /* \"#utility.yul\":2249:2252   */\n      dup6\n        /* \"#utility.yul\":2190:2261   */\n      tag_115\n      jump\t// in\n    tag_114:\n        /* \"#utility.yul\":2183:2261   */\n      swap4\n      pop\n        /* \"#utility.yul\":2270:2322   */\n      tag_116\n        /* \"#utility.yul\":2315:2321   */\n      dup2\n        /* \"#utility.yul\":2310:2313   */\n      dup6\n        /* \"#utility.yul\":2303:2307   */\n      0x20\n        /* \"#utility.yul\":2296:2301   */\n      dup7\n        /* \"#utility.yul\":2292:2308   */\n      add\n        /* \"#utility.yul\":2270:2322   */\n      tag_117\n      jump\t// in\n    tag_116:\n        /* \"#utility.yul\":2347:2376   */\n      tag_118\n        /* \"#utility.yul\":2369:2375   */\n      dup2\n        /* \"#utility.yul\":2347:2376   */\n      tag_119\n      jump\t// in\n    tag_118:\n        /* \"#utility.yul\":2342:2345   */\n      dup5\n        /* \"#utility.yul\":2338:2377   */\n      add\n        /* \"#utility.yul\":2331:2377   */\n      swap2\n      pop\n        /* \"#utility.yul\":2111:2383   */\n      pop\n        /* \"#utility.yul\":2019:2383   */\n      swap3\n      swap2\n      pop\n      pop\n      jump\t// out\n        /* \"#utility.yul\":2389:2755   */\n    tag_120:\n        /* \"#utility.yul\":2531:2534   */\n      0x00\n        /* \"#utility.yul\":2552:2619   */\n      tag_122\n        /* \"#utility.yul\":2616:2618   */\n      0x21\n        /* \"#utility.yul\":2611:2614   */\n      dup4\n        /* \"#utility.yul\":2552:2619   */\n      tag_115\n      jump\t// in\n    tag_122:\n        /* \"#utility.yul\":2545:2619   */\n      swap2\n      pop\n        /* \"#utility.yul\":2628:2721   */\n      tag_123\n        /* \"#utility.yul\":2717:2720   */\n      dup3\n        /* \"#utility.yul\":2628:2721   */\n      tag_124\n      jump\t// in\n    tag_123:\n        /* \"#utility.yul\":2746:2748   */\n      0x40\n        /* \"#utility.yul\":2741:2744   */\n      dup3\n        /* \"#utility.yul\":2737:2749   */\n      add\n        /* \"#utility.yul\":2730:2749   */\n      swap1\n      pop\n        /* \"#utility.yul\":2389:2755   */\n      swap2\n      swap1\n      pop\n      jump\t// out\n        /* \"#utility.yul\":2761:2879   */\n    tag_125:\n        /* \"#utility.yul\":2848:2872   */\n      tag_127\n        /* \"#utility.yul\":2866:2871   */\n      dup2\n        /* \"#utility.yul\":2848:2872   */\n      tag_128\n      jump\t// in\n    tag_127:\n        /* \"#utility.yul\":2843:2846   */\n      dup3\n        /* \"#utility.yul\":2836:2873   */\n      mstore\n        /* \"#utility.yul\":2761:2879   */\n      pop\n      pop\n      jump\t// out\n        /* \"#utility.yul\":2885:3517   */\n    tag_15:\n        /* \"#utility.yul\":3076:3080   */\n      0x00\n        /* \"#utility.yul\":3114:3117   */\n      0x80\n        /* \"#utility.yul\":3103:3112   */\n      dup3\n        /* \"#utility.yul\":3099:3118   */\n      add\n        /* \"#utility.yul\":3091:3118   */\n      swap1\n      pop\n        /* \"#utility.yul\":3128:3199   */\n      tag_130\n        /* \"#utility.yul\":3196:3197   */\n      0x00\n        /* \"#utility.yul\":3185:3194   */\n      dup4\n        /* \"#utility.yul\":3181:3198   */\n      add\n        /* \"#utility.yul\":3172:3178   */\n      dup8\n        /* \"#utility.yul\":3128:3199   */\n      tag_102\n      jump\t// in\n    tag_130:\n        /* \"#utility.yul\":3246:3255   */\n      dup2\n        /* \"#utility.yul\":3240:3244   */\n      dup2\n        /* \"#utility.yul\":3236:3256   */\n      sub\n        /* \"#utility.yul\":3231:3233   */\n      0x20\n        /* \"#utility.yul\":3220:3229   */\n      dup4\n        /* \"#utility.yul\":3216:3234   */\n      add\n        /* \"#utility.yul\":3209:3257   */\n      mstore\n        /* \"#utility.yul\":3274:3352   */\n      tag_131\n        /* \"#utility.yul\":3347:3351   */\n      dup2\n        /* \"#utility.yul\":3338:3344   */\n      dup7\n        /* \"#utility.yul\":3274:3352   */\n      tag_110\n      jump\t// in\n    tag_131:\n        /* \"#utility.yul\":3266:3352   */\n      swap1\n      pop\n        /* \"#utility.yul\":3362:3434   */\n      tag_132\n        /* \"#utility.yul\":3430:3432   */\n      0x40\n        /* \"#utility.yul\":3419:3428   */\n      dup4\n        /* \"#utility.yul\":3415:3433   */\n      add\n        /* \"#utility.yul\":3406:3412   */\n      dup6\n        /* \"#utility.yul\":3362:3434   */\n      tag_125\n      jump\t// in\n    tag_132:\n        /* \"#utility.yul\":3444:3510   */\n      tag_133\n        /* \"#utility.yul\":3506:3508   */\n      0x60\n        /* \"#utility.yul\":3495:3504   */\n      dup4\n        /* \"#utility.yul\":3491:3509   */\n      add\n        /* \"#utility.yul\":3482:3488   */\n      dup5\n        /* \"#utility.yul\":3444:3510   */\n      tag_106\n      jump\t// in\n    tag_133:\n        /* \"#utility.yul\":2885:3517   */\n      swap6\n      swap5\n      pop\n      pop\n      pop\n      pop\n      pop\n      jump\t// out\n        /* \"#utility.yul\":3523:3942   */\n    tag_45:\n        /* \"#utility.yul\":3689:3693   */\n      0x00\n        /* \"#utility.yul\":3727:3729   */\n      0x20\n        /* \"#utility.yul\":3716:3725   */\n      dup3\n        /* \"#utility.yul\":3712:3730   */\n      add\n        /* \"#utility.yul\":3704:3730   */\n      swap1\n      pop\n        /* \"#utility.yul\":3776:3785   */\n      dup2\n        /* \"#utility.yul\":3770:3774   */\n      dup2\n        /* \"#utility.yul\":3766:3786   */\n      sub\n        /* \"#utility.yul\":3762:3763   */\n      0x00\n        /* \"#utility.yul\":3751:3760   */\n      dup4\n        /* \"#utility.yul\":3747:3764   */\n      add\n        /* \"#utility.yul\":3740:3787   */\n      mstore\n        /* \"#utility.yul\":3804:3935   */\n      tag_135\n        /* \"#utility.yul\":3930:3934   */\n      dup2\n        /* \"#utility.yul\":3804:3935   */\n      tag_120\n      jump\t// in\n    tag_135:\n        /* \"#utility.yul\":3796:3935   */\n      swap1\n      pop\n        /* \"#utility.yul\":3523:3942   */\n      swap2\n      swap1\n      pop\n      jump\t// out\n        /* \"#utility.yul\":3948:4280   */\n    tag_30:\n        /* \"#utility.yul\":4069:4073   */\n      0x00\n        /* \"#utility.yul\":4107:4109   */\n      0x40\n        /* \"#utility.yul\":4096:4105   */\n      dup3\n        /* \"#utility.yul\":4092:4110   */\n      add\n        /* \"#utility.yul\":4084:4110   */\n      swap1\n      pop\n        /* \"#utility.yul\":4120:4191   */\n      tag_137\n        /* \"#utility.yul\":4188:4189   */\n      0x00\n        /* \"#utility.yul\":4177:4186   */\n      dup4\n        /* \"#utility.yul\":4173:4190   */\n      add\n        /* \"#utility.yul\":4164:4170   */\n      dup6\n        /* \"#utility.yul\":4120:4191   */\n      tag_125\n      jump\t// in\n    tag_137:\n        /* \"#utility.yul\":4201:4273   */\n      tag_138\n        /* \"#utility.yul\":4269:4271   */\n      0x20\n        /* \"#utility.yul\":4258:4267   */\n      dup4\n        /* \"#utility.yul\":4254:4272   */\n      add\n        /* \"#utility.yul\":4245:4251   */\n      dup5\n        /* \"#utility.yul\":4201:4273   */\n      tag_102\n      jump\t// in\n    tag_138:\n        /* \"#utility.yul\":3948:4280   */\n      swap4\n      swap3\n      pop\n      pop\n      pop\n      jump\t// out\n        /* \"#utility.yul\":4286:4728   */\n    tag_50:\n        /* \"#utility.yul\":4435:4439   */\n      0x00\n        /* \"#utility.yul\":4473:4475   */\n      0x60\n        /* \"#utility.yul\":4462:4471   */\n      dup3\n        /* \"#utility.yul\":4458:4476   */\n      add\n        /* \"#utility.yul\":4450:4476   */\n      swap1\n      pop\n        /* \"#utility.yul\":4486:4557   */\n      tag_140\n        /* \"#utility.yul\":4554:4555   */\n      0x00\n        /* \"#utility.yul\":4543:4552   */\n      dup4\n        /* \"#utility.yul\":4539:4556   */\n      add\n        /* \"#utility.yul\":4530:4536   */\n      dup7\n        /* \"#utility.yul\":4486:4557   */\n      tag_125\n      jump\t// in\n    tag_140:\n        /* \"#utility.yul\":4567:4639   */\n      tag_141\n        /* \"#utility.yul\":4635:4637   */\n      0x20\n        /* \"#utility.yul\":4624:4633   */\n      dup4\n        /* \"#utility.yul\":4620:4638   */\n      add\n        /* \"#utility.yul\":4611:4617   */\n      dup6\n        /* \"#utility.yul\":4567:4639   */\n      tag_102\n      jump\t// in\n    tag_141:\n        /* \"#utility.yul\":4649:4721   */\n      tag_142\n        /* \"#utility.yul\":4717:4719   */\n      0x40\n        /* \"#utility.yul\":4706:4715   */\n      dup4\n        /* \"#utility.yul\":4702:4720   */\n      add\n        /* \"#utility.yul\":4693:4699   */\n      dup5\n        /* \"#utility.yul\":4649:4721   */\n      tag_125\n      jump\t// in\n    tag_142:\n        /* \"#utility.yul\":4286:4728   */\n      swap5\n      swap4\n      pop\n      pop\n      pop\n      pop\n      jump\t// out\n        /* \"#utility.yul\":4734:4863   */\n    tag_74:\n        /* \"#utility.yul\":4768:4774   */\n      0x00\n        /* \"#utility.yul\":4795:4815   */\n      tag_144\n      tag_145\n      jump\t// in\n    tag_144:\n        /* \"#utility.yul\":4785:4815   */\n      swap1\n      pop\n        /* \"#utility.yul\":4824:4857   */\n      tag_146\n        /* \"#utility.yul\":4852:4856   */\n      dup3\n        /* \"#utility.yul\":4844:4850   */\n      dup3\n        /* \"#utility.yul\":4824:4857   */\n      tag_147\n      jump\t// in\n    tag_146:\n        /* \"#utility.yul\":4734:4863   */\n      swap2\n      swap1\n      pop\n      jump\t// out\n        /* \"#utility.yul\":4869:4944   */\n    tag_145:\n        /* \"#utility.yul\":4902:4908   */\n      0x00\n        /* \"#utility.yul\":4935:4937   */\n      0x40\n        /* \"#utility.yul\":4929:4938   */\n      mload\n        /* \"#utility.yul\":4919:4938   */\n      swap1\n      pop\n        /* \"#utility.yul\":4869:4944   */\n      swap1\n      jump\t// out\n        /* \"#utility.yul\":4950:5258   */\n    tag_73:\n        /* \"#utility.yul\":5012:5016   */\n      0x00\n        /* \"#utility.yul\":5102:5120   */\n      0xffffffffffffffff\n        /* \"#utility.yul\":5094:5100   */\n      dup3\n        /* \"#utility.yul\":5091:5121   */\n      gt\n        /* \"#utility.yul\":5088:5144   */\n      iszero\n      tag_150\n      jumpi\n        /* \"#utility.yul\":5124:5142   */\n      tag_151\n      tag_152\n      jump\t// in\n    tag_151:\n        /* \"#utility.yul\":5088:5144   */\n    tag_150:\n        /* \"#utility.yul\":5162:5191   */\n      tag_153\n        /* \"#utility.yul\":5184:5190   */\n      dup3\n        /* \"#utility.yul\":5162:5191   */\n      tag_119\n      jump\t// in\n    tag_153:\n        /* \"#utility.yul\":5154:5191   */\n      swap1\n      pop\n        /* \"#utility.yul\":5246:5250   */\n      0x20\n        /* \"#utility.yul\":5240:5244   */\n      dup2\n        /* \"#utility.yul\":5236:5251   */\n      add\n        /* \"#utility.yul\":5228:5251   */\n      swap1\n      pop\n        /* \"#utility.yul\":4950:5258   */\n      swap2\n      swap1\n      pop\n      jump\t// out\n        /* \"#utility.yul\":5264:5363   */\n    tag_113:\n        /* \"#utility.yul\":5316:5322   */\n      0x00\n        /* \"#utility.yul\":5350:5355   */\n      dup2\n        /* \"#utility.yul\":5344:5356   */\n      mload\n        /* \"#utility.yul\":5334:5356   */\n      swap1\n      pop\n        /* \"#utility.yul\":5264:5363   */\n      swap2\n      swap1\n      pop\n      jump\t// out\n        /* \"#utility.yul\":5369:5538   */\n    tag_115:\n        /* \"#utility.yul\":5453:5464   */\n      0x00\n        /* \"#utility.yul\":5487:5493   */\n      dup3\n        /* \"#utility.yul\":5482:5485   */\n      dup3\n        /* \"#utility.yul\":5475:5494   */\n      mstore\n        /* \"#utility.yul\":5527:5531   */\n      0x20\n        /* \"#utility.yul\":5522:5525   */\n      dup3\n        /* \"#utility.yul\":5518:5532   */\n      add\n        /* \"#utility.yul\":5503:5532   */\n      swap1\n      pop\n        /* \"#utility.yul\":5369:5538   */\n      swap3\n      swap2\n      pop\n      pop\n      jump\t// out\n        /* \"#utility.yul\":5544:5640   */\n    tag_105:\n        /* \"#utility.yul\":5581:5588   */\n      0x00\n        /* \"#utility.yul\":5610:5634   */\n      tag_157\n        /* \"#utility.yul\":5628:5633   */\n      dup3\n        /* \"#utility.yul\":5610:5634   */\n      tag_158\n      jump\t// in\n    tag_157:\n        /* \"#utility.yul\":5599:5634   */\n      swap1\n      pop\n        /* \"#utility.yul\":5544:5640   */\n      swap2\n      swap1\n      pop\n      jump\t// out\n        /* \"#utility.yul\":5646:5736   */\n    tag_109:\n        /* \"#utility.yul\":5680:5687   */\n      0x00\n        /* \"#utility.yul\":5723:5728   */\n      dup2\n        /* \"#utility.yul\":5716:5729   */\n      iszero\n        /* \"#utility.yul\":5709:5730   */\n      iszero\n        /* \"#utility.yul\":5698:5730   */\n      swap1\n      pop\n        /* \"#utility.yul\":5646:5736   */\n      swap2\n      swap1\n      pop\n      jump\t// out\n        /* \"#utility.yul\":5742:5868   */\n    tag_158:\n        /* \"#utility.yul\":5779:5786   */\n      0x00\n        /* \"#utility.yul\":5819:5861   */\n      0xffffffffffffffffffffffffffffffffffffffff\n        /* \"#utility.yul\":5812:5817   */\n      dup3\n        /* \"#utility.yul\":5808:5862   */\n      and\n        /* \"#utility.yul\":5797:5862   */\n      swap1\n      pop\n        /* \"#utility.yul\":5742:5868   */\n      swap2\n      swap1\n      pop\n      jump\t// out\n        /* \"#utility.yul\":5874:5951   */\n    tag_128:\n        /* \"#utility.yul\":5911:5918   */\n      0x00\n        /* \"#utility.yul\":5940:5945   */\n      dup2\n        /* \"#utility.yul\":5929:5945   */\n      swap1\n      pop\n        /* \"#utility.yul\":5874:5951   */\n      swap2\n      swap1\n      pop\n      jump\t// out\n        /* \"#utility.yul\":5957:6111   */\n    tag_79:\n        /* \"#utility.yul\":6041:6047   */\n      dup3\n        /* \"#utility.yul\":6036:6039   */\n      dup2\n        /* \"#utility.yul\":6031:6034   */\n      dup4\n        /* \"#utility.yul\":6018:6048   */\n      calldatacopy\n        /* \"#utility.yul\":6103:6104   */\n      0x00\n        /* \"#utility.yul\":6094:6100   */\n      dup4\n        /* \"#utility.yul\":6089:6092   */\n      dup4\n        /* \"#utility.yul\":6085:6101   */\n      add\n        /* \"#utility.yul\":6078:6105   */\n      mstore\n        /* \"#utility.yul\":5957:6111   */\n      pop\n      pop\n      pop\n      jump\t// out\n        /* \"#utility.yul\":6117:6424   */\n    tag_117:\n        /* \"#utility.yul\":6185:6186   */\n      0x00\n        /* \"#utility.yul\":6195:6308   */\n    tag_164:\n        /* \"#utility.yul\":6209:6215   */\n      dup4\n        /* \"#utility.yul\":6206:6207   */\n      dup2\n        /* \"#utility.yul\":6203:6216   */\n      lt\n        /* \"#utility.yul\":6195:6308   */\n      iszero\n      tag_166\n      jumpi\n        /* \"#utility.yul\":6294:6295   */\n      dup1\n        /* \"#utility.yul\":6289:6292   */\n      dup3\n        /* \"#utility.yul\":6285:6296   */\n      add\n        /* \"#utility.yul\":6279:6297   */\n      mload\n        /* \"#utility.yul\":6275:6276   */\n      dup2\n        /* \"#utility.yul\":6270:6273   */\n      dup5\n        /* \"#utility.yul\":6266:6277   */\n      add\n        /* \"#utility.yul\":6259:6298   */\n      mstore\n        /* \"#utility.yul\":6231:6233   */\n      0x20\n        /* \"#utility.yul\":6228:6229   */\n      dup2\n        /* \"#utility.yul\":6224:6234   */\n      add\n        /* \"#utility.yul\":6219:6234   */\n      swap1\n      pop\n        /* \"#utility.yul\":6195:6308   */\n      jump(tag_164)\n    tag_166:\n        /* \"#utility.yul\":6326:6332   */\n      dup4\n        /* \"#utility.yul\":6323:6324   */\n      dup2\n        /* \"#utility.yul\":6320:6333   */\n      gt\n        /* \"#utility.yul\":6317:6418   */\n      iszero\n      tag_167\n      jumpi\n        /* \"#utility.yul\":6406:6407   */\n      0x00\n        /* \"#utility.yul\":6397:6403   */\n      dup5\n        /* \"#utility.yul\":6392:6395   */\n      dup5\n        /* \"#utility.yul\":6388:6404   */\n      add\n        /* \"#utility.yul\":6381:6408   */\n      mstore\n        /* \"#utility.yul\":6317:6418   */\n    tag_167:\n        /* \"#utility.yul\":6166:6424   */\n      pop\n        /* \"#utility.yul\":6117:6424   */\n      pop\n      pop\n      pop\n      jump\t// out\n        /* \"#utility.yul\":6430:6750   */\n    tag_24:\n        /* \"#utility.yul\":6474:6480   */\n      0x00\n        /* \"#utility.yul\":6511:6512   */\n      0x02\n        /* \"#utility.yul\":6505:6509   */\n      dup3\n        /* \"#utility.yul\":6501:6513   */\n      div\n        /* \"#utility.yul\":6491:6513   */\n      swap1\n      pop\n        /* \"#utility.yul\":6558:6559   */\n      0x01\n        /* \"#utility.yul\":6552:6556   */\n      dup3\n        /* \"#utility.yul\":6548:6560   */\n      and\n        /* \"#utility.yul\":6579:6597   */\n      dup1\n        /* \"#utility.yul\":6569:6650   */\n      tag_169\n      jumpi\n        /* \"#utility.yul\":6635:6639   */\n      0x7f\n        /* \"#utility.yul\":6627:6633   */\n      dup3\n        /* \"#utility.yul\":6623:6640   */\n      and\n        /* \"#utility.yul\":6613:6640   */\n      swap2\n      pop\n        /* \"#utility.yul\":6569:6650   */\n    tag_169:\n        /* \"#utility.yul\":6697:6699   */\n      0x20\n        /* \"#utility.yul\":6689:6695   */\n      dup3\n        /* \"#utility.yul\":6686:6700   */\n      lt\n        /* \"#utility.yul\":6666:6684   */\n      dup2\n        /* \"#utility.yul\":6663:6701   */\n      eq\n        /* \"#utility.yul\":6660:6744   */\n      iszero\n      tag_170\n      jumpi\n        /* \"#utility.yul\":6716:6734   */\n      tag_171\n      tag_172\n      jump\t// in\n    tag_171:\n        /* \"#utility.yul\":6660:6744   */\n    tag_170:\n        /* \"#utility.yul\":6481:6750   */\n      pop\n        /* \"#utility.yul\":6430:6750   */\n      swap2\n      swap1\n      pop\n      jump\t// out\n        /* \"#utility.yul\":6756:7037   */\n    tag_147:\n        /* \"#utility.yul\":6839:6866   */\n      tag_174\n        /* \"#utility.yul\":6861:6865   */\n      dup3\n        /* \"#utility.yul\":6839:6866   */\n      tag_119\n      jump\t// in\n    tag_174:\n        /* \"#utility.yul\":6831:6837   */\n      dup2\n        /* \"#utility.yul\":6827:6867   */\n      add\n        /* \"#utility.yul\":6969:6975   */\n      dup2\n        /* \"#utility.yul\":6957:6967   */\n      dup2\n        /* \"#utility.yul\":6954:6976   */\n      lt\n        /* \"#utility.yul\":6933:6951   */\n      0xffffffffffffffff\n        /* \"#utility.yul\":6921:6931   */\n      dup3\n        /* \"#utility.yul\":6918:6952   */\n      gt\n        /* \"#utility.yul\":6915:6977   */\n      or\n        /* \"#utility.yul\":6912:7000   */\n      iszero\n      tag_175\n      jumpi\n        /* \"#utility.yul\":6980:6998   */\n      tag_176\n      tag_152\n      jump\t// in\n    tag_176:\n        /* \"#utility.yul\":6912:7000   */\n    tag_175:\n        /* \"#utility.yul\":7020:7030   */\n      dup1\n        /* \"#utility.yul\":7016:7018   */\n      0x40\n        /* \"#utility.yul\":7009:7031   */\n      mstore\n        /* \"#utility.yul\":6799:7037   */\n      pop\n        /* \"#utility.yul\":6756:7037   */\n      pop\n      pop\n      jump\t// out\n        /* \"#utility.yul\":7043:7276   */\n    tag_28:\n        /* \"#utility.yul\":7082:7085   */\n      0x00\n        /* \"#utility.yul\":7105:7129   */\n      tag_178\n        /* \"#utility.yul\":7123:7128   */\n      dup3\n        /* \"#utility.yul\":7105:7129   */\n      tag_128\n      jump\t// in\n    tag_178:\n        /* \"#utility.yul\":7096:7129   */\n      swap2\n      pop\n        /* \"#utility.yul\":7151:7217   */\n      0xffffffffffffffffffffffffffffffffffffffffffffffffffffffffffffffff\n        /* \"#utility.yul\":7144:7149   */\n      dup3\n        /* \"#utility.yul\":7141:7218   */\n      eq\n        /* \"#utility.yul\":7138:7241   */\n      iszero\n      tag_179\n      jumpi\n        /* \"#utility.yul\":7221:7239   */\n      tag_180\n      tag_181\n      jump\t// in\n    tag_180:\n        /* \"#utility.yul\":7138:7241   */\n    tag_179:\n        /* \"#utility.yul\":7268:7269   */\n      0x01\n        /* \"#utility.yul\":7261:7266   */\n      dup3\n        /* \"#utility.yul\":7257:7270   */\n      add\n        /* \"#utility.yul\":7250:7270   */\n      swap1\n      pop\n        /* \"#utility.yul\":7043:7276   */\n      swap2\n      swap1\n      pop\n      jump\t// out\n        /* \"#utility.yul\":7282:7462   */\n    tag_181:\n        /* \"#utility.yul\":7330:7407   */\n      0x4e487b7100000000000000000000000000000000000000000000000000000000\n        /* \"#utility.yul\":7327:7328   */\n      0x00\n        /* \"#utility.yul\":7320:7408   */\n      mstore\n        /* \"#utility.yul\":7427:7431   */\n      0x11\n        /* \"#utility.yul\":7424:7425   */\n      0x04\n        /* \"#utility.yul\":7417:7432   */\n      mstore\n        /* \"#utility.yul\":7451:7455   */\n      0x24\n        /* \"#utility.yul\":7448:7449   */\n      0x00\n        /* \"#utility.yul\":7441:7456   */\n      revert\n        /* \"#utility.yul\":7468:7648   */\n    tag_172:\n        /* \"#utility.yul\":7516:7593   */\n      0x4e487b7100000000000000000000000000000000000000000000000000000000\n        /* \"#utility.yul\":7513:7514   */\n      0x00\n        /* \"#utility.yul\":7506:7594   */\n      mstore\n        /* \"#utility.yul\":7613:7617   */\n      0x22\n        /* \"#utility.yul\":7610:7611   */\n      0x04\n        /* \"#utility.yul\":7603:7618   */\n      mstore\n        /* \"#utility.yul\":7637:7641   */\n      0x24\n        /* \"#utility.yul\":7634:7635   */\n      0x00\n        /* \"#utility.yul\":7627:7642   */\n      revert\n        /* \"#utility.yul\":7654:7834   */\n    tag_41:\n        /* \"#utility.yul\":7702:7779   */\n      0x4e487b7100000000000000000000000000000000000000000000000000000000\n        /* \"#utility.yul\":7699:7700   */\n      0x00\n        /* \"#utility.yul\":7692:7780   */\n      mstore\n        /* \"#utility.yul\":7799:7803   */\n      0x32\n        /* \"#utility.yul\":7796:7797   */\n      0x04\n        /* \"#utility.yul\":7789:7804   */\n      mstore\n        /* \"#utility.yul\":7823:7827   */\n      0x24\n        /* \"#utility.yul\":7820:7821   */\n      0x00\n        /* \"#utility.yul\":7813:7828   */\n      revert\n        /* \"#utility.yul\":7840:8020   */\n    tag_152:\n        /* \"#utility.yul\":7888:7965   */\n      0x4e487b7100000000000000000000000000000000000000000000000000000000\n        /* \"#utility.yul\":7885:7886   */\n      0x00\n        /* \"#utility.yul\":7878:7966   */\n      mstore\n        /* \"#utility.yul\":7985:7989   */\n      0x41\n        /* \"#utility.yul\":7982:7983   */\n      0x04\n        /* \"#utility.yul\":7975:7990   */\n      mstore\n        /* \"#utility.yul\":8009:8013   */\n      0x24\n        /* \"#utility.yul\":8006:8007   */\n      0x00\n        /* \"#utility.yul\":7999:8014   */\n      revert\n        /* \"#utility.yul\":8026:8143   */\n    tag_84:\n        /* \"#utility.yul\":8135:8136   */\n      0x00\n        /* \"#utility.yul\":8132:8133   */\n      dup1\n        /* \"#utility.yul\":8125:8137   */\n      revert\n        /* \"#utility.yul\":8149:8266   */\n    tag_77:\n        /* \"#utility.yul\":8258:8259   */\n      0x00\n        /* \"#utility.yul\":8255:8256   */\n      dup1\n        /* \"#utility.yul\":8248:8260   */\n      revert\n        /* \"#utility.yul\":8272:8389   */\n    tag_96:\n        /* \"#utility.yul\":8381:8382   */\n      0x00\n        /* \"#utility.yul\":8378:8379   */\n      dup1\n        /* \"#utility.yul\":8371:8383   */\n      revert\n        /* \"#utility.yul\":8395:8512   */\n    tag_93:\n        /* \"#utility.yul\":8504:8505   */\n      0x00\n        /* \"#utility.yul\":8501:8502   */\n      dup1\n        /* \"#utility.yul\":8494:8506   */\n      revert\n        /* \"#utility.yul\":8518:8620   */\n    tag_119:\n        /* \"#utility.yul\":8559:8565   */\n      0x00\n        /* \"#utility.yul\":8610:8612   */\n      0x1f\n        /* \"#utility.yul\":8606:8613   */\n      not\n        /* \"#utility.yul\":8601:8603   */\n      0x1f\n        /* \"#utility.yul\":8594:8599   */\n      dup4\n        /* \"#utility.yul\":8590:8604   */\n      add\n        /* \"#utility.yul\":8586:8614   */\n      and\n        /* \"#utility.yul\":8576:8614   */\n      swap1\n      pop\n        /* \"#utility.yul\":8518:8620   */\n      swap2\n      swap1\n      pop\n      jump\t// out\n        /* \"#utility.yul\":8626:8846   */\n    tag_124:\n        /* \"#utility.yul\":8766:8800   */\n      0x4f726465722073746174757320697320616c726561647920636f6d706c657465\n        /* \"#utility.yul\":8762:8763   */\n      0x00\n        /* \"#utility.yul\":8754:8760   */\n      dup3\n        /* \"#utility.yul\":8750:8764   */\n      add\n        /* \"#utility.yul\":8743:8801   */\n      mstore\n        /* \"#utility.yul\":8835:8838   */\n      0x6400000000000000000000000000000000000000000000000000000000000000\n        /* \"#utility.yul\":8830:8832   */\n      0x20\n        /* \"#utility.yul\":8822:8828   */\n      dup3\n        /* \"#utility.yul\":8818:8833   */\n      add\n        /* \"#utility.yul\":8811:8839   */\n      mstore\n        /* \"#utility.yul\":8626:8846   */\n      pop\n      jump\t// out\n        /* \"#utility.yul\":8852:8974   */\n    tag_89:\n        /* \"#utility.yul\":8925:8949   */\n      tag_193\n        /* \"#utility.yul\":8943:8948   */\n      dup2\n        /* \"#utility.yul\":8925:8949   */\n      tag_128\n      jump\t// in\n    tag_193:\n        /* \"#utility.yul\":8918:8923   */\n      dup2\n        /* \"#utility.yul\":8915:8950   */\n      eq\n        /* \"#utility.yul\":8905:8968   */\n      tag_194\n      jumpi\n        /* \"#utility.yul\":8964:8965   */\n      0x00\n        /* \"#utility.yul\":8961:8962   */\n      dup1\n        /* \"#utility.yul\":8954:8966   */\n      revert\n        /* \"#utility.yul\":8905:8968   */\n    tag_194:\n        /* \"#utility.yul\":8852:8974   */\n      pop\n      jump\t// out\n\n    auxdata: 0xa2646970667358221220f761a820602f74d6b7133af816df2cb0748b88720f41423c9091133c0c9ddb3964736f6c63430008070033\n}\n",
				"bytecode": {
					"linkReferences": {},
					"object": "608060405234801561001057600080fd5b50610b4c806100206000396000f3fe608060405234801561001057600080fd5b50600436106100415760003560e01c80632cca04df1461004657806338d9419314610062578063ffe3035914610095575b600080fd5b610060600480360381019061005b919061065c565b6100b1565b005b61007c600480360381019061007791906106a5565b6102c1565b60405161008c949392919061075b565b60405180910390f35b6100af60048036038101906100aa91906106a5565b6103b6565b005b60405180608001604052803373ffffffffffffffffffffffffffffffffffffffff16815260200182815260200142815260200160001515815250600260008201518160000160006101000a81548173ffffffffffffffffffffffffffffffffffffffff021916908373ffffffffffffffffffffffffffffffffffffffff16021790555060208201518160010190805190602001906101509291906104a7565b506040820151816002015560608201518160030160006101000a81548160ff0219169083151502179055509050506006600290806001815401808255809150506001900390600052602060002090600402016000909190919091506000820160009054906101000a900473ffffffffffffffffffffffffffffffffffffffff168160000160006101000a81548173ffffffffffffffffffffffffffffffffffffffff021916908373ffffffffffffffffffffffffffffffffffffffff160217905550600182018160010190805461022690610923565b61023192919061052d565b50600282015481600201556003820160009054906101000a900460ff168160030160006101000a81548160ff02191690831515021790555050506001600081548092919061027e90610986565b91905055507fb4d3f0ab211e9f869e41905addd6760c2c83c6acddb957c6997256cb927e3058600154336040516102b69291906107c7565b60405180910390a150565b600681815481106102d157600080fd5b90600052602060002090600402016000915090508060000160009054906101000a900473ffffffffffffffffffffffffffffffffffffffff169080600101805461031a90610923565b80601f016020809104026020016040519081016040528092919081815260200182805461034690610923565b80156103935780601f1061036857610100808354040283529160200191610393565b820191906000526020600020905b81548152906001019060200180831161037657829003601f168201915b5050505050908060020154908060030160009054906101000a900460ff16905084565b600681815481106103ca576103c9610a2d565b5b906000526020600020906004020160030160009054906101000a900460ff1615610429576040517f08c379a0000000000000000000000000000000000000000000000000000000008152600401610420906107a7565b60405180910390fd5b60016006828154811061043f5761043e610a2d565b5b906000526020600020906004020160030160006101000a81548160ff0219169083151502179055507f25a6dc4e7b36c92a59729842dda87265d48148269cbc53f0afa0261eceea2780600154334260405161049c939291906107f0565b60405180910390a150565b8280546104b390610923565b90600052602060002090601f0160209004810192826104d5576000855561051c565b82601f106104ee57805160ff191683800117855561051c565b8280016001018555821561051c579182015b8281111561051b578251825591602001919060010190610500565b5b50905061052991906105ba565b5090565b82805461053990610923565b90600052602060002090601f01602090048101928261055b57600085556105a9565b82601f1061056c57805485556105a9565b828001600101855582156105a957600052602060002091601f016020900482015b828111156105a857825482559160010191906001019061058d565b5b5090506105b691906105ba565b5090565b5b808211156105d35760008160009055506001016105bb565b5090565b60006105ea6105e58461084c565b610827565b90508281526020810184848401111561060657610605610a90565b5b6106118482856108e1565b509392505050565b600082601f83011261062e5761062d610a8b565b5b813561063e8482602086016105d7565b91505092915050565b60008135905061065681610aff565b92915050565b60006020828403121561067257610671610a9a565b5b600082013567ffffffffffffffff8111156106905761068f610a95565b5b61069c84828501610619565b91505092915050565b6000602082840312156106bb576106ba610a9a565b5b60006106c984828501610647565b91505092915050565b6106db81610899565b82525050565b6106ea816108ab565b82525050565b60006106fb8261087d565b6107058185610888565b93506107158185602086016108f0565b61071e81610a9f565b840191505092915050565b6000610736602183610888565b915061074182610ab0565b604082019050919050565b610755816108d7565b82525050565b600060808201905061077060008301876106d2565b818103602083015261078281866106f0565b9050610791604083018561074c565b61079e60608301846106e1565b95945050505050565b600060208201905081810360008301526107c081610729565b9050919050565b60006040820190506107dc600083018561074c565b6107e960208301846106d2565b9392505050565b6000606082019050610805600083018661074c565b61081260208301856106d2565b61081f604083018461074c565b949350505050565b6000610831610842565b905061083d8282610955565b919050565b6000604051905090565b600067ffffffffffffffff82111561086757610866610a5c565b5b61087082610a9f565b9050602081019050919050565b600081519050919050565b600082825260208201905092915050565b60006108a4826108b7565b9050919050565b60008115159050919050565b600073ffffffffffffffffffffffffffffffffffffffff82169050919050565b6000819050919050565b82818337600083830152505050565b60005b8381101561090e5780820151818401526020810190506108f3565b8381111561091d576000848401525b50505050565b6000600282049050600182168061093b57607f821691505b6020821081141561094f5761094e6109fe565b5b50919050565b61095e82610a9f565b810181811067ffffffffffffffff8211171561097d5761097c610a5c565b5b80604052505050565b6000610991826108d7565b91507fffffffffffffffffffffffffffffffffffffffffffffffffffffffffffffffff8214156109c4576109c36109cf565b5b600182019050919050565b7f4e487b7100000000000000000000000000000000000000000000000000000000600052601160045260246000fd5b7f4e487b7100000000000000000000000000000000000000000000000000000000600052602260045260246000fd5b7f4e487b7100000000000000000000000000000000000000000000000000000000600052603260045260246000fd5b7f4e487b7100000000000000000000000000000000000000000000000000000000600052604160045260246000fd5b600080fd5b600080fd5b600080fd5b600080fd5b6000601f19601f8301169050919050565b7f4f726465722073746174757320697320616c726561647920636f6d706c65746560008201527f6400000000000000000000000000000000000000000000000000000000000000602082015250565b610b08816108d7565b8114610b1357600080fd5b5056fea2646970667358221220f761a820602f74d6b7133af816df2cb0748b88720f41423c9091133c0c9ddb3964736f6c63430008070033",
					"opcodes": "PUSH1 0x80 PUSH1 0x40 MSTORE CALLVALUE DUP1 ISZERO PUSH2 0x10 JUMPI PUSH1 0x0 DUP1 REVERT JUMPDEST POP PUSH2 0xB4C DUP1 PUSH2 0x20 PUSH1 0x0 CODECOPY PUSH1 0x0 RETURN INVALID PUSH1 0x80 PUSH1 0x40 MSTORE CALLVALUE DUP1 ISZERO PUSH2 0x10 JUMPI PUSH1 0x0 DUP1 REVERT JUMPDEST POP PUSH1 0x4 CALLDATASIZE LT PUSH2 0x41 JUMPI PUSH1 0x0 CALLDATALOAD PUSH1 0xE0 SHR DUP1 PUSH4 0x2CCA04DF EQ PUSH2 0x46 JUMPI DUP1 PUSH4 0x38D94193 EQ PUSH2 0x62 JUMPI DUP1 PUSH4 0xFFE30359 EQ PUSH2 0x95 JUMPI JUMPDEST PUSH1 0x0 DUP1 REVERT JUMPDEST PUSH2 0x60 PUSH1 0x4 DUP1 CALLDATASIZE SUB DUP2 ADD SWAP1 PUSH2 0x5B SWAP2 SWAP1 PUSH2 0x65C JUMP JUMPDEST PUSH2 0xB1 JUMP JUMPDEST STOP JUMPDEST PUSH2 0x7C PUSH1 0x4 DUP1 CALLDATASIZE SUB DUP2 ADD SWAP1 PUSH2 0x77 SWAP2 SWAP1 PUSH2 0x6A5 JUMP JUMPDEST PUSH2 0x2C1 JUMP JUMPDEST PUSH1 0x40 MLOAD PUSH2 0x8C SWAP5 SWAP4 SWAP3 SWAP2 SWAP1 PUSH2 0x75B JUMP JUMPDEST PUSH1 0x40 MLOAD DUP1 SWAP2 SUB SWAP1 RETURN JUMPDEST PUSH2 0xAF PUSH1 0x4 DUP1 CALLDATASIZE SUB DUP2 ADD SWAP1 PUSH2 0xAA SWAP2 SWAP1 PUSH2 0x6A5 JUMP JUMPDEST PUSH2 0x3B6 JUMP JUMPDEST STOP JUMPDEST PUSH1 0x40 MLOAD DUP1 PUSH1 0x80 ADD PUSH1 0x40 MSTORE DUP1 CALLER PUSH20 0xFFFFFFFFFFFFFFFFFFFFFFFFFFFFFFFFFFFFFFFF AND DUP2 MSTORE PUSH1 0x20 ADD DUP3 DUP2 MSTORE PUSH1 0x20 ADD TIMESTAMP DUP2 MSTORE PUSH1 0x20 ADD PUSH1 0x0 ISZERO ISZERO DUP2 MSTORE POP PUSH1 0x2 PUSH1 0x0 DUP3 ADD MLOAD DUP2 PUSH1 0x0 ADD PUSH1 0x0 PUSH2 0x100 EXP DUP2 SLOAD DUP2 PUSH20 0xFFFFFFFFFFFFFFFFFFFFFFFFFFFFFFFFFFFFFFFF MUL NOT AND SWAP1 DUP4 PUSH20 0xFFFFFFFFFFFFFFFFFFFFFFFFFFFFFFFFFFFFFFFF AND MUL OR SWAP1 SSTORE POP PUSH1 0x20 DUP3 ADD MLOAD DUP2 PUSH1 0x1 ADD SWAP1 DUP1 MLOAD SWAP1 PUSH1 0x20 ADD SWAP1 PUSH2 0x150 SWAP3 SWAP2 SWAP1 PUSH2 0x4A7 JUMP JUMPDEST POP PUSH1 0x40 DUP3 ADD MLOAD DUP2 PUSH1 0x2 ADD SSTORE PUSH1 0x60 DUP3 ADD MLOAD DUP2 PUSH1 0x3 ADD PUSH1 0x0 PUSH2 0x100 EXP DUP2 SLOAD DUP2 PUSH1 0xFF MUL NOT AND SWAP1 DUP4 ISZERO ISZERO MUL OR SWAP1 SSTORE POP SWAP1 POP POP PUSH1 0x6 PUSH1 0x2 SWAP1 DUP1 PUSH1 0x1 DUP2 SLOAD ADD DUP1 DUP3 SSTORE DUP1 SWAP2 POP POP PUSH1 0x1 SWAP1 SUB SWAP1 PUSH1 0x0 MSTORE PUSH1 0x20 PUSH1 0x0 KECCAK256 SWAP1 PUSH1 0x4 MUL ADD PUSH1 0x0 SWAP1 SWAP2 SWAP1 SWAP2 SWAP1 SWAP2 POP PUSH1 0x0 DUP3 ADD PUSH1 0x0 SWAP1 SLOAD SWAP1 PUSH2 0x100 EXP SWAP1 DIV PUSH20 0xFFFFFFFFFFFFFFFFFFFFFFFFFFFFFFFFFFFFFFFF AND DUP2 PUSH1 0x0 ADD PUSH1 0x0 PUSH2 0x100 EXP DUP2 SLOAD DUP2 PUSH20 0xFFFFFFFFFFFFFFFFFFFFFFFFFFFFFFFFFFFFFFFF MUL NOT AND SWAP1 DUP4 PUSH20 0xFFFFFFFFFFFFFFFFFFFFFFFFFFFFFFFFFFFFFFFF AND MUL OR SWAP1 SSTORE POP PUSH1 0x1 DUP3 ADD DUP2 PUSH1 0x1 ADD SWAP1 DUP1 SLOAD PUSH2 0x226 SWAP1 PUSH2 0x923 JUMP JUMPDEST PUSH2 0x231 SWAP3 SWAP2 SWAP1 PUSH2 0x52D JUMP JUMPDEST POP PUSH1 0x2 DUP3 ADD SLOAD DUP2 PUSH1 0x2 ADD SSTORE PUSH1 0x3 DUP3 ADD PUSH1 0x0 SWAP1 SLOAD SWAP1 PUSH2 0x100 EXP SWAP1 DIV PUSH1 0xFF AND DUP2 PUSH1 0x3 ADD PUSH1 0x0 PUSH2 0x100 EXP DUP2 SLOAD DUP2 PUSH1 0xFF MUL NOT AND SWAP1 DUP4 ISZERO ISZERO MUL OR SWAP1 SSTORE POP POP POP PUSH1 0x1 PUSH1 0x0 DUP2 SLOAD DUP1 SWAP3 SWAP2 SWAP1 PUSH2 0x27E SWAP1 PUSH2 0x986 JUMP JUMPDEST SWAP2 SWAP1 POP SSTORE POP PUSH32 0xB4D3F0AB211E9F869E41905ADDD6760C2C83C6ACDDB957C6997256CB927E3058 PUSH1 0x1 SLOAD CALLER PUSH1 0x40 MLOAD PUSH2 0x2B6 SWAP3 SWAP2 SWAP1 PUSH2 0x7C7 JUMP JUMPDEST PUSH1 0x40 MLOAD DUP1 SWAP2 SUB SWAP1 LOG1 POP JUMP JUMPDEST PUSH1 0x6 DUP2 DUP2 SLOAD DUP2 LT PUSH2 0x2D1 JUMPI PUSH1 0x0 DUP1 REVERT JUMPDEST SWAP1 PUSH1 0x0 MSTORE PUSH1 0x20 PUSH1 0x0 KECCAK256 SWAP1 PUSH1 0x4 MUL ADD PUSH1 0x0 SWAP2 POP SWAP1 POP DUP1 PUSH1 0x0 ADD PUSH1 0x0 SWAP1 SLOAD SWAP1 PUSH2 0x100 EXP SWAP1 DIV PUSH20 0xFFFFFFFFFFFFFFFFFFFFFFFFFFFFFFFFFFFFFFFF AND SWAP1 DUP1 PUSH1 0x1 ADD DUP1 SLOAD PUSH2 0x31A SWAP1 PUSH2 0x923 JUMP JUMPDEST DUP1 PUSH1 0x1F ADD PUSH1 0x20 DUP1 SWAP2 DIV MUL PUSH1 0x20 ADD PUSH1 0x40 MLOAD SWAP1 DUP2 ADD PUSH1 0x40 MSTORE DUP1 SWAP3 SWAP2 SWAP1 DUP2 DUP2 MSTORE PUSH1 0x20 ADD DUP3 DUP1 SLOAD PUSH2 0x346 SWAP1 PUSH2 0x923 JUMP JUMPDEST DUP1 ISZERO PUSH2 0x393 JUMPI DUP1 PUSH1 0x1F LT PUSH2 0x368 JUMPI PUSH2 0x100 DUP1 DUP4 SLOAD DIV MUL DUP4 MSTORE SWAP2 PUSH1 0x20 ADD SWAP2 PUSH2 0x393 JUMP JUMPDEST DUP3 ADD SWAP2 SWAP1 PUSH1 0x0 MSTORE PUSH1 0x20 PUSH1 0x0 KECCAK256 SWAP1 JUMPDEST DUP2 SLOAD DUP2 MSTORE SWAP1 PUSH1 0x1 ADD SWAP1 PUSH1 0x20 ADD DUP1 DUP4 GT PUSH2 0x376 JUMPI DUP3 SWAP1 SUB PUSH1 0x1F AND DUP3 ADD SWAP2 JUMPDEST POP POP POP POP POP SWAP1 DUP1 PUSH1 0x2 ADD SLOAD SWAP1 DUP1 PUSH1 0x3 ADD PUSH1 0x0 SWAP1 SLOAD SWAP1 PUSH2 0x100 EXP SWAP1 DIV PUSH1 0xFF AND SWAP1 POP DUP5 JUMP JUMPDEST PUSH1 0x6 DUP2 DUP2 SLOAD DUP2 LT PUSH2 0x3CA JUMPI PUSH2 0x3C9 PUSH2 0xA2D JUMP JUMPDEST JUMPDEST SWAP1 PUSH1 0x0 MSTORE PUSH1 0x20 PUSH1 0x0 KECCAK256 SWAP1 PUSH1 0x4 MUL ADD PUSH1 0x3 ADD PUSH1 0x0 SWAP1 SLOAD SWAP1 PUSH2 0x100 EXP SWAP1 DIV PUSH1 0xFF AND ISZERO PUSH2 0x429 JUMPI PUSH1 0x40 MLOAD PUSH32 0x8C379A000000000000000000000000000000000000000000000000000000000 DUP2 MSTORE PUSH1 0x4 ADD PUSH2 0x420 SWAP1 PUSH2 0x7A7 JUMP JUMPDEST PUSH1 0x40 MLOAD DUP1 SWAP2 SUB SWAP1 REVERT JUMPDEST PUSH1 0x1 PUSH1 0x6 DUP3 DUP2 SLOAD DUP2 LT PUSH2 0x43F JUMPI PUSH2 0x43E PUSH2 0xA2D JUMP JUMPDEST JUMPDEST SWAP1 PUSH1 0x0 MSTORE PUSH1 0x20 PUSH1 0x0 KECCAK256 SWAP1 PUSH1 0x4 MUL ADD PUSH1 0x3 ADD PUSH1 0x0 PUSH2 0x100 EXP DUP2 SLOAD DUP2 PUSH1 0xFF MUL NOT AND SWAP1 DUP4 ISZERO ISZERO MUL OR SWAP1 SSTORE POP PUSH32 0x25A6DC4E7B36C92A59729842DDA87265D48148269CBC53F0AFA0261ECEEA2780 PUSH1 0x1 SLOAD CALLER TIMESTAMP PUSH1 0x40 MLOAD PUSH2 0x49C SWAP4 SWAP3 SWAP2 SWAP1 PUSH2 0x7F0 JUMP JUMPDEST PUSH1 0x40 MLOAD DUP1 SWAP2 SUB SWAP1 LOG1 POP JUMP JUMPDEST DUP3 DUP1 SLOAD PUSH2 0x4B3 SWAP1 PUSH2 0x923 JUMP JUMPDEST SWAP1 PUSH1 0x0 MSTORE PUSH1 0x20 PUSH1 0x0 KECCAK256 SWAP1 PUSH1 0x1F ADD PUSH1 0x20 SWAP1 DIV DUP2 ADD SWAP3 DUP3 PUSH2 0x4D5 JUMPI PUSH1 0x0 DUP6 SSTORE PUSH2 0x51C JUMP JUMPDEST DUP3 PUSH1 0x1F LT PUSH2 0x4EE JUMPI DUP1 MLOAD PUSH1 0xFF NOT AND DUP4 DUP1 ADD OR DUP6 SSTORE PUSH2 0x51C JUMP JUMPDEST DUP3 DUP1 ADD PUSH1 0x1 ADD DUP6 SSTORE DUP3 ISZERO PUSH2 0x51C JUMPI SWAP2 DUP3 ADD JUMPDEST DUP3 DUP2 GT ISZERO PUSH2 0x51B JUMPI DUP3 MLOAD DUP3 SSTORE SWAP2 PUSH1 0x20 ADD SWAP2 SWAP1 PUSH1 0x1 ADD SWAP1 PUSH2 0x500 JUMP JUMPDEST JUMPDEST POP SWAP1 POP PUSH2 0x529 SWAP2 SWAP1 PUSH2 0x5BA JUMP JUMPDEST POP SWAP1 JUMP JUMPDEST DUP3 DUP1 SLOAD PUSH2 0x539 SWAP1 PUSH2 0x923 JUMP JUMPDEST SWAP1 PUSH1 0x0 MSTORE PUSH1 0x20 PUSH1 0x0 KECCAK256 SWAP1 PUSH1 0x1F ADD PUSH1 0x20 SWAP1 DIV DUP2 ADD SWAP3 DUP3 PUSH2 0x55B JUMPI PUSH1 0x0 DUP6 SSTORE PUSH2 0x5A9 JUMP JUMPDEST DUP3 PUSH1 0x1F LT PUSH2 0x56C JUMPI DUP1 SLOAD DUP6 SSTORE PUSH2 0x5A9 JUMP JUMPDEST DUP3 DUP1 ADD PUSH1 0x1 ADD DUP6 SSTORE DUP3 ISZERO PUSH2 0x5A9 JUMPI PUSH1 0x0 MSTORE PUSH1 0x20 PUSH1 0x0 KECCAK256 SWAP2 PUSH1 0x1F ADD PUSH1 0x20 SWAP1 DIV DUP3 ADD JUMPDEST DUP3 DUP2 GT ISZERO PUSH2 0x5A8 JUMPI DUP3 SLOAD DUP3 SSTORE SWAP2 PUSH1 0x1 ADD SWAP2 SWAP1 PUSH1 0x1 ADD SWAP1 PUSH2 0x58D JUMP JUMPDEST JUMPDEST POP SWAP1 POP PUSH2 0x5B6 SWAP2 SWAP1 PUSH2 0x5BA JUMP JUMPDEST POP SWAP1 JUMP JUMPDEST JUMPDEST DUP1 DUP3 GT ISZERO PUSH2 0x5D3 JUMPI PUSH1 0x0 DUP2 PUSH1 0x0 SWAP1 SSTORE POP PUSH1 0x1 ADD PUSH2 0x5BB JUMP JUMPDEST POP SWAP1 JUMP JUMPDEST PUSH1 0x0 PUSH2 0x5EA PUSH2 0x5E5 DUP5 PUSH2 0x84C JUMP JUMPDEST PUSH2 0x827 JUMP JUMPDEST SWAP1 POP DUP3 DUP2 MSTORE PUSH1 0x20 DUP2 ADD DUP5 DUP5 DUP5 ADD GT ISZERO PUSH2 0x606 JUMPI PUSH2 0x605 PUSH2 0xA90 JUMP JUMPDEST JUMPDEST PUSH2 0x611 DUP5 DUP3 DUP6 PUSH2 0x8E1 JUMP JUMPDEST POP SWAP4 SWAP3 POP POP POP JUMP JUMPDEST PUSH1 0x0 DUP3 PUSH1 0x1F DUP4 ADD SLT PUSH2 0x62E JUMPI PUSH2 0x62D PUSH2 0xA8B JUMP JUMPDEST JUMPDEST DUP2 CALLDATALOAD PUSH2 0x63E DUP5 DUP3 PUSH1 0x20 DUP7 ADD PUSH2 0x5D7 JUMP JUMPDEST SWAP2 POP POP SWAP3 SWAP2 POP POP JUMP JUMPDEST PUSH1 0x0 DUP2 CALLDATALOAD SWAP1 POP PUSH2 0x656 DUP2 PUSH2 0xAFF JUMP JUMPDEST SWAP3 SWAP2 POP POP JUMP JUMPDEST PUSH1 0x0 PUSH1 0x20 DUP3 DUP5 SUB SLT ISZERO PUSH2 0x672 JUMPI PUSH2 0x671 PUSH2 0xA9A JUMP JUMPDEST JUMPDEST PUSH1 0x0 DUP3 ADD CALLDATALOAD PUSH8 0xFFFFFFFFFFFFFFFF DUP2 GT ISZERO PUSH2 0x690 JUMPI PUSH2 0x68F PUSH2 0xA95 JUMP JUMPDEST JUMPDEST PUSH2 0x69C DUP5 DUP3 DUP6 ADD PUSH2 0x619 JUMP JUMPDEST SWAP2 POP POP SWAP3 SWAP2 POP POP JUMP JUMPDEST PUSH1 0x0 PUSH1 0x20 DUP3 DUP5 SUB SLT ISZERO PUSH2 0x6BB JUMPI PUSH2 0x6BA PUSH2 0xA9A JUMP JUMPDEST JUMPDEST PUSH1 0x0 PUSH2 0x6C9 DUP5 DUP3 DUP6 ADD PUSH2 0x647 JUMP JUMPDEST SWAP2 POP POP SWAP3 SWAP2 POP POP JUMP JUMPDEST PUSH2 0x6DB DUP2 PUSH2 0x899 JUMP JUMPDEST DUP3 MSTORE POP POP JUMP JUMPDEST PUSH2 0x6EA DUP2 PUSH2 0x8AB JUMP JUMPDEST DUP3 MSTORE POP POP JUMP JUMPDEST PUSH1 0x0 PUSH2 0x6FB DUP3 PUSH2 0x87D JUMP JUMPDEST PUSH2 0x705 DUP2 DUP6 PUSH2 0x888 JUMP JUMPDEST SWAP4 POP PUSH2 0x715 DUP2 DUP6 PUSH1 0x20 DUP7 ADD PUSH2 0x8F0 JUMP JUMPDEST PUSH2 0x71E DUP2 PUSH2 0xA9F JUMP JUMPDEST DUP5 ADD SWAP2 POP POP SWAP3 SWAP2 POP POP JUMP JUMPDEST PUSH1 0x0 PUSH2 0x736 PUSH1 0x21 DUP4 PUSH2 0x888 JUMP JUMPDEST SWAP2 POP PUSH2 0x741 DUP3 PUSH2 0xAB0 JUMP JUMPDEST PUSH1 0x40 DUP3 ADD SWAP1 POP SWAP2 SWAP1 POP JUMP JUMPDEST PUSH2 0x755 DUP2 PUSH2 0x8D7 JUMP JUMPDEST DUP3 MSTORE POP POP JUMP JUMPDEST PUSH1 0x0 PUSH1 0x80 DUP3 ADD SWAP1 POP PUSH2 0x770 PUSH1 0x0 DUP4 ADD DUP8 PUSH2 0x6D2 JUMP JUMPDEST DUP2 DUP2 SUB PUSH1 0x20 DUP4 ADD MSTORE PUSH2 0x782 DUP2 DUP7 PUSH2 0x6F0 JUMP JUMPDEST SWAP1 POP PUSH2 0x791 PUSH1 0x40 DUP4 ADD DUP6 PUSH2 0x74C JUMP JUMPDEST PUSH2 0x79E PUSH1 0x60 DUP4 ADD DUP5 PUSH2 0x6E1 JUMP JUMPDEST SWAP6 SWAP5 POP POP POP POP POP JUMP JUMPDEST PUSH1 0x0 PUSH1 0x20 DUP3 ADD SWAP1 POP DUP2 DUP2 SUB PUSH1 0x0 DUP4 ADD MSTORE PUSH2 0x7C0 DUP2 PUSH2 0x729 JUMP JUMPDEST SWAP1 POP SWAP2 SWAP1 POP JUMP JUMPDEST PUSH1 0x0 PUSH1 0x40 DUP3 ADD SWAP1 POP PUSH2 0x7DC PUSH1 0x0 DUP4 ADD DUP6 PUSH2 0x74C JUMP JUMPDEST PUSH2 0x7E9 PUSH1 0x20 DUP4 ADD DUP5 PUSH2 0x6D2 JUMP JUMPDEST SWAP4 SWAP3 POP POP POP JUMP JUMPDEST PUSH1 0x0 PUSH1 0x60 DUP3 ADD SWAP1 POP PUSH2 0x805 PUSH1 0x0 DUP4 ADD DUP7 PUSH2 0x74C JUMP JUMPDEST PUSH2 0x812 PUSH1 0x20 DUP4 ADD DUP6 PUSH2 0x6D2 JUMP JUMPDEST PUSH2 0x81F PUSH1 0x40 DUP4 ADD DUP5 PUSH2 0x74C JUMP JUMPDEST SWAP5 SWAP4 POP POP POP POP JUMP JUMPDEST PUSH1 0x0 PUSH2 0x831 PUSH2 0x842 JUMP JUMPDEST SWAP1 POP PUSH2 0x83D DUP3 DUP3 PUSH2 0x955 JUMP JUMPDEST SWAP2 SWAP1 POP JUMP JUMPDEST PUSH1 0x0 PUSH1 0x40 MLOAD SWAP1 POP SWAP1 JUMP JUMPDEST PUSH1 0x0 PUSH8 0xFFFFFFFFFFFFFFFF DUP3 GT ISZERO PUSH2 0x867 JUMPI PUSH2 0x866 PUSH2 0xA5C JUMP JUMPDEST JUMPDEST PUSH2 0x870 DUP3 PUSH2 0xA9F JUMP JUMPDEST SWAP1 POP PUSH1 0x20 DUP2 ADD SWAP1 POP SWAP2 SWAP1 POP JUMP JUMPDEST PUSH1 0x0 DUP2 MLOAD SWAP1 POP SWAP2 SWAP1 POP JUMP JUMPDEST PUSH1 0x0 DUP3 DUP3 MSTORE PUSH1 0x20 DUP3 ADD SWAP1 POP SWAP3 SWAP2 POP POP JUMP JUMPDEST PUSH1 0x0 PUSH2 0x8A4 DUP3 PUSH2 0x8B7 JUMP JUMPDEST SWAP1 POP SWAP2 SWAP1 POP JUMP JUMPDEST PUSH1 0x0 DUP2 ISZERO ISZERO SWAP1 POP SWAP2 SWAP1 POP JUMP JUMPDEST PUSH1 0x0 PUSH20 0xFFFFFFFFFFFFFFFFFFFFFFFFFFFFFFFFFFFFFFFF DUP3 AND SWAP1 POP SWAP2 SWAP1 POP JUMP JUMPDEST PUSH1 0x0 DUP2 SWAP1 POP SWAP2 SWAP1 POP JUMP JUMPDEST DUP3 DUP2 DUP4 CALLDATACOPY PUSH1 0x0 DUP4 DUP4 ADD MSTORE POP POP POP JUMP JUMPDEST PUSH1 0x0 JUMPDEST DUP4 DUP2 LT ISZERO PUSH2 0x90E JUMPI DUP1 DUP3 ADD MLOAD DUP2 DUP5 ADD MSTORE PUSH1 0x20 DUP2 ADD SWAP1 POP PUSH2 0x8F3 JUMP JUMPDEST DUP4 DUP2 GT ISZERO PUSH2 0x91D JUMPI PUSH1 0x0 DUP5 DUP5 ADD MSTORE JUMPDEST POP POP POP POP JUMP JUMPDEST PUSH1 0x0 PUSH1 0x2 DUP3 DIV SWAP1 POP PUSH1 0x1 DUP3 AND DUP1 PUSH2 0x93B JUMPI PUSH1 0x7F DUP3 AND SWAP2 POP JUMPDEST PUSH1 0x20 DUP3 LT DUP2 EQ ISZERO PUSH2 0x94F JUMPI PUSH2 0x94E PUSH2 0x9FE JUMP JUMPDEST JUMPDEST POP SWAP2 SWAP1 POP JUMP JUMPDEST PUSH2 0x95E DUP3 PUSH2 0xA9F JUMP JUMPDEST DUP2 ADD DUP2 DUP2 LT PUSH8 0xFFFFFFFFFFFFFFFF DUP3 GT OR ISZERO PUSH2 0x97D JUMPI PUSH2 0x97C PUSH2 0xA5C JUMP JUMPDEST JUMPDEST DUP1 PUSH1 0x40 MSTORE POP POP POP JUMP JUMPDEST PUSH1 0x0 PUSH2 0x991 DUP3 PUSH2 0x8D7 JUMP JUMPDEST SWAP2 POP PUSH32 0xFFFFFFFFFFFFFFFFFFFFFFFFFFFFFFFFFFFFFFFFFFFFFFFFFFFFFFFFFFFFFFFF DUP3 EQ ISZERO PUSH2 0x9C4 JUMPI PUSH2 0x9C3 PUSH2 0x9CF JUMP JUMPDEST JUMPDEST PUSH1 0x1 DUP3 ADD SWAP1 POP SWAP2 SWAP1 POP JUMP JUMPDEST PUSH32 0x4E487B7100000000000000000000000000000000000000000000000000000000 PUSH1 0x0 MSTORE PUSH1 0x11 PUSH1 0x4 MSTORE PUSH1 0x24 PUSH1 0x0 REVERT JUMPDEST PUSH32 0x4E487B7100000000000000000000000000000000000000000000000000000000 PUSH1 0x0 MSTORE PUSH1 0x22 PUSH1 0x4 MSTORE PUSH1 0x24 PUSH1 0x0 REVERT JUMPDEST PUSH32 0x4E487B7100000000000000000000000000000000000000000000000000000000 PUSH1 0x0 MSTORE PUSH1 0x32 PUSH1 0x4 MSTORE PUSH1 0x24 PUSH1 0x0 REVERT JUMPDEST PUSH32 0x4E487B7100000000000000000000000000000000000000000000000000000000 PUSH1 0x0 MSTORE PUSH1 0x41 PUSH1 0x4 MSTORE PUSH1 0x24 PUSH1 0x0 REVERT JUMPDEST PUSH1 0x0 DUP1 REVERT JUMPDEST PUSH1 0x0 DUP1 REVERT JUMPDEST PUSH1 0x0 DUP1 REVERT JUMPDEST PUSH1 0x0 DUP1 REVERT JUMPDEST PUSH1 0x0 PUSH1 0x1F NOT PUSH1 0x1F DUP4 ADD AND SWAP1 POP SWAP2 SWAP1 POP JUMP JUMPDEST PUSH32 0x4F726465722073746174757320697320616C726561647920636F6D706C657465 PUSH1 0x0 DUP3 ADD MSTORE PUSH32 0x6400000000000000000000000000000000000000000000000000000000000000 PUSH1 0x20 DUP3 ADD MSTORE POP JUMP JUMPDEST PUSH2 0xB08 DUP2 PUSH2 0x8D7 JUMP JUMPDEST DUP2 EQ PUSH2 0xB13 JUMPI PUSH1 0x0 DUP1 REVERT JUMPDEST POP JUMP INVALID LOG2 PUSH5 0x6970667358 0x22 SLT KECCAK256 0xF7 PUSH2 0xA820 PUSH1 0x2F PUSH21 0xD6B7133AF816DF2CB0748B88720F41423C9091133C 0xC SWAP14 0xDB CODECOPY PUSH5 0x736F6C6343 STOP ADDMOD SMOD STOP CALLER "
				},
				"gasEstimates": {
					"creation": {
						"codeDepositCost": "578400",
						"executionCost": "613",
						"totalCost": "579013"
					},
					"external": {
						"addOrder(string)": "infinite",
						"array(uint256)": "infinite",
						"switchStatus(uint256)": "infinite"
					}
				},
				"methodIdentifiers": {
					"addOrder(string)": "2cca04df",
					"array(uint256)": "38d94193",
					"switchStatus(uint256)": "ffe30359"
				}
			},
			"storageLayout": {
				"storage": [
					{
						"astId": 3,
						"contract": "contracts/Events.sol:Events",
						"label": "owner",
						"offset": 0,
						"slot": "0",
						"type": "t_address"
					},
					{
						"astId": 5,
						"contract": "contracts/Events.sol:Events",
						"label": "orderNumber",
						"offset": 0,
						"slot": "1",
						"type": "t_uint256"
					},
					{
						"astId": 31,
						"contract": "contracts/Events.sol:Events",
						"label": "order",
						"offset": 0,
						"slot": "2",
						"type": "t_struct(Order)28_storage"
					},
					{
						"astId": 35,
						"contract": "contracts/Events.sol:Events",
						"label": "array",
						"offset": 0,
						"slot": "6",
						"type": "t_array(t_struct(Order)28_storage)dyn_storage"
					}
				],
				"types": {
					"t_address": {
						"encoding": "inplace",
						"label": "address",
						"numberOfBytes": "20"
					},
					"t_array(t_struct(Order)28_storage)dyn_storage": {
						"base": "t_struct(Order)28_storage",
						"encoding": "dynamic_array",
						"label": "struct Events.Order[]",
						"numberOfBytes": "32"
					},
					"t_bool": {
						"encoding": "inplace",
						"label": "bool",
						"numberOfBytes": "1"
					},
					"t_string_storage": {
						"encoding": "bytes",
						"label": "string",
						"numberOfBytes": "32"
					},
					"t_struct(Order)28_storage": {
						"encoding": "inplace",
						"label": "struct Events.Order",
						"members": [
							{
								"astId": 21,
								"contract": "contracts/Events.sol:Events",
								"label": "customerAddress",
								"offset": 0,
								"slot": "0",
								"type": "t_address"
							},
							{
								"astId": 23,
								"contract": "contracts/Events.sol:Events",
								"label": "customerName",
								"offset": 0,
								"slot": "1",
								"type": "t_string_storage"
							},
							{
								"astId": 25,
								"contract": "contracts/Events.sol:Events",
								"label": "creatingTime",
								"offset": 0,
								"slot": "2",
								"type": "t_uint256"
							},
							{
								"astId": 27,
								"contract": "contracts/Events.sol:Events",
								"label": "orderStatus",
								"offset": 0,
								"slot": "3",
								"type": "t_bool"
							}
						],
						"numberOfBytes": "128"
					},
					"t_uint256": {
						"encoding": "inplace",
						"label": "uint256",
						"numberOfBytes": "32"
					}
				}
			},
			"userdoc": {
				"kind": "user",
				"methods": {},
				"version": 1
			}
		}
	}
}